{
  "address": "0xA2624d1931D17632F74D217Fe1c1C903b65Bf548",
  "abi": [
    {
      "inputs": [
        {
          "internalType": "address",
          "name": "_checkpointManager",
          "type": "address"
        },
        {
          "internalType": "address",
          "name": "_fxRoot",
          "type": "address"
        }
      ],
      "stateMutability": "nonpayable",
      "type": "constructor"
    },
    {
      "anonymous": false,
      "inputs": [
        {
          "indexed": false,
          "internalType": "address",
          "name": "L1Token",
          "type": "address"
        },
        {
          "indexed": false,
          "internalType": "address",
          "name": "from",
          "type": "address"
        }
      ],
      "name": "L1MappingInitERC721",
      "type": "event"
    },
    {
      "anonymous": false,
      "inputs": [
        {
          "indexed": false,
          "internalType": "address",
          "name": "L1Token",
          "type": "address"
        },
        {
          "indexed": false,
          "internalType": "address",
          "name": "L2Token",
          "type": "address"
        },
        {
          "indexed": false,
          "internalType": "address",
          "name": "from",
          "type": "address"
        }
      ],
      "name": "L1MappingMappedERC721",
      "type": "event"
    },
    {
      "anonymous": false,
      "inputs": [
        {
          "indexed": false,
          "internalType": "address",
          "name": "L1Token",
          "type": "address"
        },
        {
          "indexed": false,
          "internalType": "address",
          "name": "from",
          "type": "address"
        },
        {
          "indexed": false,
          "internalType": "uint256",
          "name": "tokenId",
          "type": "uint256"
        }
      ],
      "name": "L1Transfer",
      "type": "event"
    },
    {
      "anonymous": false,
      "inputs": [
        {
          "indexed": true,
          "internalType": "address",
          "name": "previousOwner",
          "type": "address"
        },
        {
          "indexed": true,
          "internalType": "address",
          "name": "newOwner",
          "type": "address"
        }
      ],
      "name": "OwnershipTransferred",
      "type": "event"
    },
    {
      "anonymous": false,
      "inputs": [
        {
          "indexed": false,
          "internalType": "bytes",
          "name": "message",
          "type": "bytes"
        },
        {
          "indexed": false,
          "internalType": "uint256",
          "name": "_nonce",
          "type": "uint256"
        }
      ],
      "name": "Received",
      "type": "event"
    },
    {
      "inputs": [],
      "name": "SEND_MESSAGE_EVENT_SIG",
      "outputs": [
        {
          "internalType": "bytes32",
          "name": "",
          "type": "bytes32"
        }
      ],
      "stateMutability": "view",
      "type": "function"
    },
    {
      "inputs": [],
      "name": "checkpointManager",
      "outputs": [
        {
          "internalType": "contract ICheckpointManager",
          "name": "",
          "type": "address"
        }
      ],
      "stateMutability": "view",
      "type": "function"
    },
    {
      "inputs": [],
      "name": "fxChildTunnel",
      "outputs": [
        {
          "internalType": "address",
          "name": "",
          "type": "address"
        }
      ],
      "stateMutability": "view",
      "type": "function"
    },
    {
      "inputs": [],
      "name": "fxRoot",
      "outputs": [
        {
          "internalType": "contract IFxStateSender",
          "name": "",
          "type": "address"
        }
      ],
      "stateMutability": "view",
      "type": "function"
    },
    {
      "inputs": [
        {
          "internalType": "address",
          "name": "L1TokenAddress",
          "type": "address"
        }
      ],
      "name": "mapERC721",
      "outputs": [],
      "stateMutability": "nonpayable",
      "type": "function"
    },
    {
      "inputs": [
        {
          "internalType": "address",
          "name": "",
          "type": "address"
        }
      ],
      "name": "mappedTokenStatus",
      "outputs": [
        {
          "internalType": "enum Tunnel.TokenStatus",
          "name": "",
          "type": "uint8"
        }
      ],
      "stateMutability": "view",
      "type": "function"
    },
    {
      "inputs": [
        {
          "internalType": "address",
          "name": "",
          "type": "address"
        }
      ],
      "name": "mappedTokens",
      "outputs": [
        {
          "internalType": "address",
          "name": "",
          "type": "address"
        }
      ],
      "stateMutability": "view",
      "type": "function"
    },
    {
      "inputs": [],
      "name": "owner",
      "outputs": [
        {
          "internalType": "address",
          "name": "",
          "type": "address"
        }
      ],
      "stateMutability": "view",
      "type": "function"
    },
    {
      "inputs": [
        {
          "internalType": "bytes32",
          "name": "",
          "type": "bytes32"
        }
      ],
      "name": "processedExits",
      "outputs": [
        {
          "internalType": "bool",
          "name": "",
          "type": "bool"
        }
      ],
      "stateMutability": "view",
      "type": "function"
    },
    {
      "inputs": [
        {
          "internalType": "bytes",
          "name": "inputData",
          "type": "bytes"
        }
      ],
      "name": "receiveMessage",
      "outputs": [],
      "stateMutability": "nonpayable",
      "type": "function"
    },
    {
      "inputs": [],
      "name": "renounceOwnership",
      "outputs": [],
      "stateMutability": "nonpayable",
      "type": "function"
    },
    {
      "inputs": [
        {
          "internalType": "address",
          "name": "_fxChildTunnel",
          "type": "address"
        }
      ],
      "name": "setFxChildTunnel",
      "outputs": [],
      "stateMutability": "nonpayable",
      "type": "function"
    },
    {
      "inputs": [
        {
          "internalType": "address",
          "name": "newOwner",
          "type": "address"
        }
      ],
      "name": "transferOwnership",
      "outputs": [],
      "stateMutability": "nonpayable",
      "type": "function"
    },
    {
      "inputs": [
        {
          "internalType": "address",
          "name": "L1TokenAddress",
          "type": "address"
        },
        {
          "internalType": "uint256",
          "name": "tokenId",
          "type": "uint256"
        }
      ],
      "name": "transferToL2",
      "outputs": [],
      "stateMutability": "nonpayable",
      "type": "function"
    }
  ],
  "transactionHash": "0xe4fff8503a3ccf3fad0915f1db7713a1feee19959b8c35a1f9e728ade10a44c9",
  "args": [
    "0x2890bA17EfE978480615e330ecB65333b880928e",
    "0x3d1d3E34f7fB6D26245E6640E1c50710eFFf15bA"
  ],
  "numDeployments": 1,
  "solcInputHash": "949d7b2431fbada9946ff99b32e8528f",
  "bytecode": "0x60806040523480156200001157600080fd5b50604051620051ad380380620051ad8339818101604052810190620000379190620001d1565b818181600160006101000a81548173ffffffffffffffffffffffffffffffffffffffff021916908373ffffffffffffffffffffffffffffffffffffffff160217905550806000806101000a81548173ffffffffffffffffffffffffffffffffffffffff021916908373ffffffffffffffffffffffffffffffffffffffff1602179055505050620000dc620000d0620000ec60201b60201c565b620000f460201b60201c565b6001600581905550505062000260565b600033905090565b6000600460009054906101000a900473ffffffffffffffffffffffffffffffffffffffff16905081600460006101000a81548173ffffffffffffffffffffffffffffffffffffffff021916908373ffffffffffffffffffffffffffffffffffffffff1602179055508173ffffffffffffffffffffffffffffffffffffffff168173ffffffffffffffffffffffffffffffffffffffff167f8be0079c531659141344cd1fd0a4f28419497f9722a3daafe3b4186f6b6457e060405160405180910390a35050565b600081519050620001cb8162000246565b92915050565b60008060408385031215620001e557600080fd5b6000620001f585828601620001ba565b92505060206200020885828601620001ba565b9150509250929050565b60006200021f8262000226565b9050919050565b600073ffffffffffffffffffffffffffffffffffffffff82169050919050565b620002518162000212565b81146200025d57600080fd5b50565b614f3d80620002706000396000f3fe608060405234801561001057600080fd5b50600436106100ea5760003560e01c8063aea4e49e1161008c578063de9b771f11610066578063de9b771f14610225578063e6ede14d14610243578063f2fde38b14610273578063f953cec71461028f576100ea565b8063aea4e49e146101cf578063c0857ba0146101eb578063d642a54214610209576100ea565b8063715018a6116100c8578063715018a61461016d5780638da5cb5b14610177578063972c4928146101955780639f25bb5a146101b3576100ea565b80630a1a1968146100ef5780630e387de61461011f578063607f2d421461013d575b600080fd5b6101096004803603810190610104919061378e565b6102ab565b6040516101169190614173565b60405180910390f35b6101276102cb565b60405161013491906140d7565b60405180910390f35b61015760048036038101906101529190613845565b6102f2565b60405161016491906140bc565b60405180910390f35b610175610312565b005b61017f61039a565b60405161018c9190613fda565b60405180910390f35b61019d6103c4565b6040516101aa9190613fda565b60405180910390f35b6101cd60048036038101906101c8919061378e565b6103ea565b005b6101e960048036038101906101e4919061378e565b610a64565b005b6101f3610b39565b604051610200919061410d565b60405180910390f35b610223600480360381019061021e91906137e0565b610b5f565b005b61022d610ea5565b60405161023a9190614128565b60405180910390f35b61025d6004803603810190610258919061378e565b610ec9565b60405161026a9190613fda565b60405180910390f35b61028d6004803603810190610288919061378e565b610efc565b005b6102a960048036038101906102a491906138e5565b610ff4565b005b60076020528060005260406000206000915054906101000a900460ff1681565b7f8c5261668696ce22758910d05bab8f186d6eb247ceac2af2e82c7dc17669b03660001b81565b60036020528060005260406000206000915054906101000a900460ff1681565b61031a61100e565b73ffffffffffffffffffffffffffffffffffffffff1661033861039a565b73ffffffffffffffffffffffffffffffffffffffff161461038e576040517f08c379a00000000000000000000000000000000000000000000000000000000081526004016103859061426e565b60405180910390fd5b6103986000611016565b565b6000600460009054906101000a900473ffffffffffffffffffffffffffffffffffffffff16905090565b600260009054906101000a900473ffffffffffffffffffffffffffffffffffffffff1681565b60026005541415610430576040517f08c379a00000000000000000000000000000000000000000000000000000000081526004016104279061438e565b60405180910390fd5b600260058190555061044061100e565b73ffffffffffffffffffffffffffffffffffffffff168173ffffffffffffffffffffffffffffffffffffffff16638da5cb5b6040518163ffffffff1660e01b815260040160206040518083038186803b15801561049c57600080fd5b505afa1580156104b0573d6000803e3d6000fd5b505050506040513d601f19601f820116820180604052508101906104d491906137b7565b73ffffffffffffffffffffffffffffffffffffffff161461052a576040517f08c379a0000000000000000000000000000000000000000000000000000000008152600401610521906142ee565b60405180910390fd5b8073ffffffffffffffffffffffffffffffffffffffff166301ffc9a77f80ac58cd000000000000000000000000000000000000000000000000000000006040518263ffffffff1660e01b815260040161058391906140f2565b60206040518083038186803b15801561059b57600080fd5b505afa1580156105af573d6000803e3d6000fd5b505050506040513d601f19601f820116820180604052508101906105d3919061381c565b801561068457508073ffffffffffffffffffffffffffffffffffffffff166301ffc9a77f5b5e139f000000000000000000000000000000000000000000000000000000006040518263ffffffff1660e01b815260040161063391906140f2565b60206040518083038186803b15801561064b57600080fd5b505afa15801561065f573d6000803e3d6000fd5b505050506040513d601f19601f82011682018060405250810190610683919061381c565b5b6106c3576040517f08c379a00000000000000000000000000000000000000000000000000000000081526004016106ba9061428e565b60405180910390fd5b600060028111156106fd577f4e487b7100000000000000000000000000000000000000000000000000000000600052602160045260246000fd5b600760008373ffffffffffffffffffffffffffffffffffffffff1673ffffffffffffffffffffffffffffffffffffffff16815260200190815260200160002060009054906101000a900460ff166002811115610782577f4e487b7100000000000000000000000000000000000000000000000000000000600052602160045260246000fd5b146107c2576040517f08c379a00000000000000000000000000000000000000000000000000000000081526004016107b9906141ae565b60405180910390fd5b6001600760008373ffffffffffffffffffffffffffffffffffffffff1673ffffffffffffffffffffffffffffffffffffffff16815260200190815260200160002060006101000a81548160ff0219169083600281111561084b577f4e487b7100000000000000000000000000000000000000000000000000000000600052602160045260246000fd5b021790555060006040518060a001604052808373ffffffffffffffffffffffffffffffffffffffff168152602001600073ffffffffffffffffffffffffffffffffffffffff1681526020018373ffffffffffffffffffffffffffffffffffffffff166306fdde036040518163ffffffff1660e01b815260040160006040518083038186803b1580156108dc57600080fd5b505afa1580156108f0573d6000803e3d6000fd5b505050506040513d6000823e3d601f19601f8201168201806040525081019061091991906139bb565b81526020018373ffffffffffffffffffffffffffffffffffffffff166395d89b416040518163ffffffff1660e01b815260040160006040518083038186803b15801561096457600080fd5b505afa158015610978573d6000803e3d6000fd5b505050506040513d6000823e3d601f19601f820116820180604052508101906109a191906139bb565b81526020016109ae61100e565b73ffffffffffffffffffffffffffffffffffffffff168152506040516020016109d791906143ae565b6040516020818303038152906040529050600080826040516020016109fd929190614143565b60405160208183030381529060405290507f25d6912299d0e59bb6cdb2dc634b244699031f35916f85fc9ddc074faa2c453d83610a3861100e565b604051610a46929190613ff5565b60405180910390a1610a57816110dc565b5050600160058190555050565b600073ffffffffffffffffffffffffffffffffffffffff16600260009054906101000a900473ffffffffffffffffffffffffffffffffffffffff1673ffffffffffffffffffffffffffffffffffffffff1614610af5576040517f08c379a0000000000000000000000000000000000000000000000000000000008152600401610aec906141ce565b60405180910390fd5b80600260006101000a81548173ffffffffffffffffffffffffffffffffffffffff021916908373ffffffffffffffffffffffffffffffffffffffff16021790555050565b600160009054906101000a900473ffffffffffffffffffffffffffffffffffffffff1681565b60026005541415610ba5576040517f08c379a0000000000000000000000000000000000000000000000000000000008152600401610b9c9061438e565b60405180910390fd5b6002600581905550600280811115610be6577f4e487b7100000000000000000000000000000000000000000000000000000000600052602160045260246000fd5b600760008473ffffffffffffffffffffffffffffffffffffffff1673ffffffffffffffffffffffffffffffffffffffff16815260200190815260200160002060009054906101000a900460ff166002811115610c6b577f4e487b7100000000000000000000000000000000000000000000000000000000600052602160045260246000fd5b14610cab576040517f08c379a0000000000000000000000000000000000000000000000000000000008152600401610ca29061424e565b60405180910390fd5b8173ffffffffffffffffffffffffffffffffffffffff166323b872dd610ccf61100e565b30846040518463ffffffff1660e01b8152600401610cef93929190614055565b600060405180830381600087803b158015610d0957600080fd5b505af1158015610d1d573d6000803e3d6000fd5b50505050600060405180608001604052808473ffffffffffffffffffffffffffffffffffffffff168152602001610d5261100e565b73ffffffffffffffffffffffffffffffffffffffff1681526020018381526020018473ffffffffffffffffffffffffffffffffffffffff1663c87b56dd856040518263ffffffff1660e01b8152600401610dac91906143f2565b60006040518083038186803b158015610dc457600080fd5b505afa158015610dd8573d6000803e3d6000fd5b505050506040513d6000823e3d601f19601f82011682018060405250810190610e0191906139bb565b815250604051602001610e1491906143d0565b60405160208183030381529060405290506000600282604051602001610e3b929190614143565b60405160208183030381529060405290507faca316ff480149672397660744423f87453c12fa85d5fb28f9f83ddcbd702e7584610e7661100e565b85604051610e8693929190614055565b60405180910390a1610e97816110dc565b505060016005819055505050565b60008054906101000a900473ffffffffffffffffffffffffffffffffffffffff1681565b60066020528060005260406000206000915054906101000a900473ffffffffffffffffffffffffffffffffffffffff1681565b610f0461100e565b73ffffffffffffffffffffffffffffffffffffffff16610f2261039a565b73ffffffffffffffffffffffffffffffffffffffff1614610f78576040517f08c379a0000000000000000000000000000000000000000000000000000000008152600401610f6f9061426e565b60405180910390fd5b600073ffffffffffffffffffffffffffffffffffffffff168173ffffffffffffffffffffffffffffffffffffffff161415610fe8576040517f08c379a0000000000000000000000000000000000000000000000000000000008152600401610fdf906141ee565b60405180910390fd5b610ff181611016565b50565b6000610fff8261118e565b905061100a81611493565b5050565b600033905090565b6000600460009054906101000a900473ffffffffffffffffffffffffffffffffffffffff16905081600460006101000a81548173ffffffffffffffffffffffffffffffffffffffff021916908373ffffffffffffffffffffffffffffffffffffffff1602179055508173ffffffffffffffffffffffffffffffffffffffff168173ffffffffffffffffffffffffffffffffffffffff167f8be0079c531659141344cd1fd0a4f28419497f9722a3daafe3b4186f6b6457e060405160405180910390a35050565b60008054906101000a900473ffffffffffffffffffffffffffffffffffffffff1673ffffffffffffffffffffffffffffffffffffffff1663b4720477600260009054906101000a900473ffffffffffffffffffffffffffffffffffffffff16836040518363ffffffff1660e01b815260040161115992919061408c565b600060405180830381600087803b15801561117357600080fd5b505af1158015611187573d6000803e3d6000fd5b5050505050565b6060600061119b836118fb565b905060006111a88261192f565b905060006111b583611986565b90506000816111c3846119dd565b6111cc86611c8b565b6040516020016111de93929190613f53565b604051602081830303815290604052805190602001209050600015156003600083815260200190815260200160002060009054906101000a900460ff1615151461125d576040517f08c379a00000000000000000000000000000000000000000000000000000000081526004016112549061422e565b60405180910390fd5b60016003600083815260200190815260200160002060006101000a81548160ff021916908315150217905550600061129485611ce2565b905060006112a182611e53565b90506112ac81611f16565b73ffffffffffffffffffffffffffffffffffffffff16600260009054906101000a900473ffffffffffffffffffffffffffffffffffffffff1673ffffffffffffffffffffffffffffffffffffffff161461133b576040517f08c379a00000000000000000000000000000000000000000000000000000000081526004016113329061436e565b60405180910390fd5b600061134687611f6d565b905061136461135484611fc7565b8761135e8a611fd5565b8461202c565b6113a3576040517f08c379a000000000000000000000000000000000000000000000000000000000815260040161139a9061420e565b60405180910390fd5b6113d1856113b089612462565b6113b98a6124b9565b846113c38c612513565b6113cc8d61256a565b6125c1565b5060006113dd83612717565b90507f8c5261668696ce22758910d05bab8f186d6eb247ceac2af2e82c7dc17669b03660001b61141f61141a60008461278290919063ffffffff16565b6127d7565b60001b14611462576040517f08c379a00000000000000000000000000000000000000000000000000000000081526004016114599061432e565b60405180910390fd5b600061146d8461285a565b8060200190518101906114809190613926565b9050809950505050505050505050919050565b600080828060200190518101906114aa9190613967565b91509150600160038111156114e8577f4e487b7100000000000000000000000000000000000000000000000000000000600052602160045260246000fd5b826003811115611521577f4e487b7100000000000000000000000000000000000000000000000000000000600052602160045260246000fd5b14156116a65760008180602001905181019061153d91906139fc565b9050600260076000836000015173ffffffffffffffffffffffffffffffffffffffff1673ffffffffffffffffffffffffffffffffffffffff16815260200190815260200160002060006101000a81548160ff021916908360028111156115cc577f4e487b7100000000000000000000000000000000000000000000000000000000600052602160045260246000fd5b0217905550806020015160066000836000015173ffffffffffffffffffffffffffffffffffffffff1673ffffffffffffffffffffffffffffffffffffffff16815260200190815260200160002060006101000a81548173ffffffffffffffffffffffffffffffffffffffff021916908373ffffffffffffffffffffffffffffffffffffffff1602179055507f57ca430506a83a2bf3c8e62d65efad6b0a55147b3dea2d54edee5e8efe9966088160000151826020015183608001516040516116969392919061401e565b60405180910390a15050506118f8565b6003808111156116df577f4e487b7100000000000000000000000000000000000000000000000000000000600052602160045260246000fd5b826003811115611718577f4e487b7100000000000000000000000000000000000000000000000000000000600052602160045260246000fd5b14156118bd576000818060200190518101906117349190613a3d565b9050600081600001519050600280811115611778577f4e487b7100000000000000000000000000000000000000000000000000000000600052602160045260246000fd5b600760008373ffffffffffffffffffffffffffffffffffffffff1673ffffffffffffffffffffffffffffffffffffffff16815260200190815260200160002060009054906101000a900460ff1660028111156117fd577f4e487b7100000000000000000000000000000000000000000000000000000000600052602160045260246000fd5b1461183d576040517f08c379a00000000000000000000000000000000000000000000000000000000081526004016118349061418e565b60405180910390fd5b8073ffffffffffffffffffffffffffffffffffffffff166323b872dd30846020015185604001516040518463ffffffff1660e01b815260040161188293929190614055565b600060405180830381600087803b15801561189c57600080fd5b505af11580156118b0573d6000803e3d6000fd5b50505050505050506118f8565b6040517f08c379a00000000000000000000000000000000000000000000000000000000081526004016118ef9061434e565b60405180910390fd5b50565b6119036133e9565b6000611916611911846128b1565b6128df565b9050604051806020016040528082815250915050919050565b606061197f8260000151600881518110611972577f4e487b7100000000000000000000000000000000000000000000000000000000600052603260045260246000fd5b6020026020010151612a40565b9050919050565b60006119d682600001516002815181106119c9577f4e487b7100000000000000000000000000000000000000000000000000000000600052603260045260246000fd5b60200260200101516127d7565b9050919050565b60606000604051806020016040528060008152509050600083511115611c8257600080611a0b600086612b1d565b60f81c905060018160ff161480611a25575060038160ff16145b15611b3b57600160028651611a3a9190614711565b611a44919061476b565b67ffffffffffffffff811115611a83577f4e487b7100000000000000000000000000000000000000000000000000000000600052604160045260246000fd5b6040519080825280601f01601f191660200182016040528015611ab55781602001600182028036833780820191505090505b5092506000611ac5600187612b1d565b90508084600081518110611b02577f4e487b7100000000000000000000000000000000000000000000000000000000600052603260045260246000fd5b60200101907effffffffffffffffffffffffffffffffffffffffffffffffffffffffffffff1916908160001a9053506001925050611bcd565b6002808651611b4a9190614711565b611b54919061476b565b67ffffffffffffffff811115611b93577f4e487b7100000000000000000000000000000000000000000000000000000000600052604160045260246000fd5b6040519080825280601f01601f191660200182016040528015611bc55781602001600182028036833780820191505090505b509250600091505b60008260ff1690505b8351811015611c7e57611c0360028460ff1683611bf3919061476b565b611bfd91906144e8565b87612b1d565b848281518110611c3c577f4e487b7100000000000000000000000000000000000000000000000000000000600052603260045260246000fd5b60200101907effffffffffffffffffffffffffffffffffffffffffffffffffffffffffffff1916908160001a9053508080611c7690614963565b915050611bd6565b5050505b80915050919050565b6000611cdb8260000151600981518110611cce577f4e487b7100000000000000000000000000000000000000000000000000000000600052603260045260246000fd5b60200260200101516127d7565b9050919050565b611cea6133fc565b611d388260000151600681518110611d2b577f4e487b7100000000000000000000000000000000000000000000000000000000600052603260045260246000fd5b6020026020010151612a40565b81602001819052506000611d4f82602001516128b1565b9050611d5a81612c01565b15611d7557611d68816128df565b8260000181905250611e3b565b600082602001519050600060018251611d8e919061476b565b67ffffffffffffffff811115611dcd577f4e487b7100000000000000000000000000000000000000000000000000000000600052604160045260246000fd5b6040519080825280601f01601f191660200182016040528015611dff5781602001600182028036833780820191505090505b509050600080836021019150826020019050611e1d82828551612c4f565b611e2e611e29846128b1565b6128df565b8660000181905250505050505b611e4483611c8b565b82604001818152505050919050565b611e5b61341d565b6000611eab8360000151600381518110611e9e577f4e487b7100000000000000000000000000000000000000000000000000000000600052603260045260246000fd5b60200260200101516128df565b836040015181518110611ee7577f4e487b7100000000000000000000000000000000000000000000000000000000600052603260045260246000fd5b602002602001015190506040518060400160405280828152602001611f0b836128df565b815250915050919050565b6000611f668260200151600081518110611f59577f4e487b7100000000000000000000000000000000000000000000000000000000600052603260045260246000fd5b6020026020010151612cec565b9050919050565b6000611fbd8260000151600581518110611fb0577f4e487b7100000000000000000000000000000000000000000000000000000000600052603260045260246000fd5b60200260200101516127d7565b60001b9050919050565b606081602001519050919050565b60606120258260000151600781518110612018577f4e487b7100000000000000000000000000000000000000000000000000000000600052603260045260246000fd5b6020026020010151612a40565b9050919050565b600080612038846128b1565b90506000612045826128df565b9050606080600086905060008061205b8b6119dd565b905060008151141561207757600097505050505050505061245a565b60005b865181101561245157815183111561209d5760009850505050505050505061245a565b6120e68782815181106120d9577f4e487b7100000000000000000000000000000000000000000000000000000000600052603260045260246000fd5b6020026020010151612d0f565b9550858051906020012084146121075760009850505050505050505061245a565b612150878281518110612143577f4e487b7100000000000000000000000000000000000000000000000000000000600052603260045260246000fd5b60200260200101516128df565b94506011855114156122b55781518314156121e6578c805190602001206121b7866010815181106121aa577f4e487b7100000000000000000000000000000000000000000000000000000000600052603260045260246000fd5b6020026020010151612a40565b8051906020012014156121d55760019850505050505050505061245a565b60009850505050505050505061245a565b6000828481518110612221577f4e487b7100000000000000000000000000000000000000000000000000000000600052603260045260246000fd5b602001015160f81c60f81b60f81c905060108160ff16111561224f576000995050505050505050505061245a565b61229b868260ff168151811061228e577f4e487b7100000000000000000000000000000000000000000000000000000000600052603260045260246000fd5b6020026020010151612dc5565b60001b94506001846122ad91906144e8565b93505061243e565b60028551141561242c57600061231561230e87600081518110612301577f4e487b7100000000000000000000000000000000000000000000000000000000600052603260045260246000fd5b6020026020010151612a40565b8486612dfc565b90508251818561232591906144e8565b14156123ae578d8051906020012061237d87600181518110612370577f4e487b7100000000000000000000000000000000000000000000000000000000600052603260045260246000fd5b6020026020010151612a40565b80519060200120141561239c576001995050505050505050505061245a565b6000995050505050505050505061245a565b60008114156123c9576000995050505050505050505061245a565b80846123d591906144e8565b935061242186600181518110612414577f4e487b7100000000000000000000000000000000000000000000000000000000600052603260045260246000fd5b6020026020010151612dc5565b60001b94505061243d565b60009850505050505050505061245a565b5b808061244990614963565b91505061207a565b50505050505050505b949350505050565b60006124b282600001516003815181106124a5577f4e487b7100000000000000000000000000000000000000000000000000000000600052603260045260246000fd5b60200260200101516127d7565b9050919050565b600061250982600001516004815181106124fc577f4e487b7100000000000000000000000000000000000000000000000000000000600052603260045260246000fd5b60200260200101516127d7565b60001b9050919050565b60006125638260000151600081518110612556577f4e487b7100000000000000000000000000000000000000000000000000000000600052603260045260246000fd5b60200260200101516127d7565b9050919050565b60606125ba82600001516001815181106125ad577f4e487b7100000000000000000000000000000000000000000000000000000000600052603260045260246000fd5b6020026020010151612a40565b9050919050565b600080600080600160009054906101000a900473ffffffffffffffffffffffffffffffffffffffff1673ffffffffffffffffffffffffffffffffffffffff166341539d4a876040518263ffffffff1660e01b815260040161262291906143f2565b60a06040518083038186803b15801561263a57600080fd5b505afa15801561264e573d6000803e3d6000fd5b505050506040513d601f19601f82011682018060405250810190612672919061386e565b50935050925092506126c8828b612689919061476b565b84878d8d8d8d6040516020016126a29493929190613f8c565b60405160208183030381529060405280519060200120612fa4909392919063ffffffff16565b612707576040517f08c379a00000000000000000000000000000000000000000000000000000000081526004016126fe9061430e565b60405180910390fd5b8093505050509695505050505050565b61271f61343d565b6040518060200160405280612778846020015160018151811061276b577f4e487b7100000000000000000000000000000000000000000000000000000000600052603260045260246000fd5b60200260200101516128df565b8152509050919050565b61278a613450565b826000015182815181106127c7577f4e487b7100000000000000000000000000000000000000000000000000000000600052603260045260246000fd5b6020026020010151905092915050565b60008082600001511180156127f157506021826000015111155b6127fa57600080fd5b60006128098360200151613115565b9050600081846000015161281d919061476b565b905060008083866020015161283291906144e8565b905080519150602083101561284e57826020036101000a820491505b81945050505050919050565b60606128aa826020015160028151811061289d577f4e487b7100000000000000000000000000000000000000000000000000000000600052603260045260246000fd5b6020026020010151612a40565b9050919050565b6128b9613450565b600060208301905060405180604001604052808451815260200182815250915050919050565b60606128ea82612c01565b6128f357600080fd5b60006128fe836131d4565b905060008167ffffffffffffffff811115612942577f4e487b7100000000000000000000000000000000000000000000000000000000600052604160045260246000fd5b60405190808252806020026020018201604052801561297b57816020015b612968613450565b8152602001906001900390816129605790505b509050600061298d8560200151613115565b856020015161299c91906144e8565b9050600080600090505b84811015612a33576129b783613262565b9150604051806040016040528083815260200184815250848281518110612a07577f4e487b7100000000000000000000000000000000000000000000000000000000600052603260045260246000fd5b60200260200101819052508183612a1e91906144e8565b92508080612a2b90614963565b9150506129a6565b5082945050505050919050565b60606000826000015111612a5357600080fd5b6000612a628360200151613115565b90506000818460000151612a76919061476b565b905060008167ffffffffffffffff811115612aba577f4e487b7100000000000000000000000000000000000000000000000000000000600052604160045260246000fd5b6040519080825280601f01601f191660200182016040528015612aec5781602001600182028036833780820191505090505b5090506000816020019050612b11848760200151612b0a91906144e8565b828561333e565b81945050505050919050565b600080600284612b2d91906149c0565b14612b9657601082600285612b42919061453e565b81518110612b79577f4e487b7100000000000000000000000000000000000000000000000000000000600052603260045260246000fd5b602001015160f81c60f81b60f81c612b9191906149f1565b612bf6565b601082600285612ba6919061453e565b81518110612bdd577f4e487b7100000000000000000000000000000000000000000000000000000000600052603260045260246000fd5b602001015160f81c60f81b60f81c612bf5919061456f565b5b60f81b905092915050565b60008082600001511415612c185760009050612c4a565b60008083602001519050805160001a915060c060ff168260ff161015612c4357600092505050612c4a565b6001925050505b919050565b6000811415612c5d57612ce7565b5b602060ff168110612ca85782518252602060ff1683612c7d91906144e8565b9250602060ff1682612c8f91906144e8565b9150602060ff1681612ca1919061476b565b9050612c5e565b6000600182602060ff16612cbc919061476b565b610100612cc991906145f3565b612cd3919061476b565b905080198451168184511681811785525050505b505050565b60006015826000015114612cff57600080fd5b612d08826127d7565b9050919050565b60606000826000015167ffffffffffffffff811115612d57577f4e487b7100000000000000000000000000000000000000000000000000000000600052604160045260246000fd5b6040519080825280601f01601f191660200182016040528015612d895781602001600182028036833780820191505090505b509050600081511415612d9f5780915050612dc0565b6000816020019050612dba846020015182866000015161333e565b81925050505b919050565b60006021826000015114612dd857600080fd5b60008060018460200151612dec91906144e8565b9050805191508192505050919050565b600080600090506000612e0e866119dd565b90506000815167ffffffffffffffff811115612e53577f4e487b7100000000000000000000000000000000000000000000000000000000600052604160045260246000fd5b6040519080825280601f01601f191660200182016040528015612e855781602001600182028036833780820191505090505b50905060008590505b825186612e9b91906144e8565b811015612f72576000878281518110612edd577f4e487b7100000000000000000000000000000000000000000000000000000000600052603260045260246000fd5b602001015160f81c60f81b905080838884612ef8919061476b565b81518110612f2f577f4e487b7100000000000000000000000000000000000000000000000000000000600052603260045260246000fd5b60200101907effffffffffffffffffffffffffffffffffffffffffffffffffffffffffffff1916908160001a905350508080612f6a90614963565b915050612e8e565b50808051906020012082805190602001201415612f925781519250612f97565b600092505b8293505050509392505050565b60008060208351612fb591906149c0565b14612ff5576040517f08c379a0000000000000000000000000000000000000000000000000000000008152600401612fec906142ae565b60405180910390fd5b600060208351613005919061453e565b905080600261301491906145f3565b8510613055576040517f08c379a000000000000000000000000000000000000000000000000000000000815260040161304c906142ce565b60405180910390fd5b6000808790506000602090505b8551811161310457808601519250600060028961307f91906149c0565b14156130b5578183604051602001613098929190613f27565b6040516020818303038152906040528051906020012091506130e1565b82826040516020016130c8929190613f27565b6040516020818303038152906040528051906020012091505b6002886130ee919061453e565b97506020816130fd91906144e8565b9050613062565b508581149350505050949350505050565b600080825160001a9050608060ff168110156131355760009150506131cf565b60b860ff1681108061315a575060c060ff168110158015613159575060f860ff1681105b5b156131695760019150506131cf565b60c060ff168110156131a45760018060b8613184919061479f565b60ff1682613192919061476b565b61319c91906144e8565b9150506131cf565b60018060f86131b3919061479f565b60ff16826131c1919061476b565b6131cb91906144e8565b9150505b919050565b600080826000015114156131eb576000905061325d565b6000806131fb8460200151613115565b846020015161320a91906144e8565b905060008460000151856020015161322291906144e8565b90505b808210156132565761323682613262565b8261324191906144e8565b9150828061324e90614963565b935050613225565b8293505050505b919050565b6000806000835160001a9050608060ff168110156132835760019150613334565b60b860ff168110156132b2576001608060ff16826132a1919061476b565b6132ab91906144e8565b9150613333565b60c060ff168110156132e25760b78103600185019450806020036101000a85510460018201810193505050613332565b60f860ff1681101561331157600160c060ff1682613300919061476b565b61330a91906144e8565b9150613331565b60f78103600185019450806020036101000a855104600182018101935050505b5b5b5b8192505050919050565b600081141561334c576133e4565b5b602060ff1681106133975782518252602060ff168361336c91906144e8565b9250602060ff168261337e91906144e8565b9150602060ff1681613390919061476b565b905061334d565b60008114156133a5576133e4565b6000600182602060ff166133b9919061476b565b6101006133c691906145f3565b6133d0919061476b565b905080198451168184511681811785525050505b505050565b6040518060200160405280606081525090565b60405180606001604052806060815260200160608152602001600081525090565b6040518060400160405280613430613450565b8152602001606081525090565b6040518060200160405280606081525090565b604051806040016040528060008152602001600081525090565b600061347d61347884614432565b61440d565b90508281526020810184848401111561349557600080fd5b6134a08482856148f0565b509392505050565b60006134bb6134b684614432565b61440d565b9050828152602081018484840111156134d357600080fd5b6134de8482856148ff565b509392505050565b60006134f96134f484614463565b61440d565b90508281526020810184848401111561351157600080fd5b61351c8482856148ff565b509392505050565b60008135905061353381614e9b565b92915050565b60008151905061354881614e9b565b92915050565b60008151905061355d81614eb2565b92915050565b60008135905061357281614ec9565b92915050565b60008151905061358781614ec9565b92915050565b600082601f83011261359e57600080fd5b81356135ae84826020860161346a565b91505092915050565b600082601f8301126135c857600080fd5b81516135d88482602086016134a8565b91505092915050565b6000815190506135f081614ee0565b92915050565b600082601f83011261360757600080fd5b81516136178482602086016134e6565b91505092915050565b600060a0828403121561363257600080fd5b61363c60a061440d565b9050600061364c84828501613539565b600083015250602061366084828501613539565b602083015250604082015167ffffffffffffffff81111561368057600080fd5b61368c848285016135f6565b604083015250606082015167ffffffffffffffff8111156136ac57600080fd5b6136b8848285016135f6565b60608301525060806136cc84828501613539565b60808301525092915050565b6000608082840312156136ea57600080fd5b6136f4608061440d565b9050600061370484828501613539565b600083015250602061371884828501613539565b602083015250604061372c84828501613779565b604083015250606082015167ffffffffffffffff81111561374c57600080fd5b613758848285016135f6565b60608301525092915050565b60008135905061377381614ef0565b92915050565b60008151905061378881614ef0565b92915050565b6000602082840312156137a057600080fd5b60006137ae84828501613524565b91505092915050565b6000602082840312156137c957600080fd5b60006137d784828501613539565b91505092915050565b600080604083850312156137f357600080fd5b600061380185828601613524565b925050602061381285828601613764565b9150509250929050565b60006020828403121561382e57600080fd5b600061383c8482850161354e565b91505092915050565b60006020828403121561385757600080fd5b600061386584828501613563565b91505092915050565b600080600080600060a0868803121561388657600080fd5b600061389488828901613578565b95505060206138a588828901613779565b94505060406138b688828901613779565b93505060606138c788828901613779565b92505060806138d888828901613539565b9150509295509295909350565b6000602082840312156138f757600080fd5b600082013567ffffffffffffffff81111561391157600080fd5b61391d8482850161358d565b91505092915050565b60006020828403121561393857600080fd5b600082015167ffffffffffffffff81111561395257600080fd5b61395e848285016135b7565b91505092915050565b6000806040838503121561397a57600080fd5b6000613988858286016135e1565b925050602083015167ffffffffffffffff8111156139a557600080fd5b6139b1858286016135b7565b9150509250929050565b6000602082840312156139cd57600080fd5b600082015167ffffffffffffffff8111156139e757600080fd5b6139f3848285016135f6565b91505092915050565b600060208284031215613a0e57600080fd5b600082015167ffffffffffffffff811115613a2857600080fd5b613a3484828501613620565b91505092915050565b600060208284031215613a4f57600080fd5b600082015167ffffffffffffffff811115613a6957600080fd5b613a75848285016136d8565b91505092915050565b613a87816147d3565b82525050565b613a96816147d3565b82525050565b613aa5816147e5565b82525050565b613ab4816147f1565b82525050565b613acb613ac6826147f1565b6149ac565b82525050565b613ada816147fb565b82525050565b6000613aeb82614494565b613af581856144aa565b9350613b058185602086016148ff565b613b0e81614ade565b840191505092915050565b6000613b2482614494565b613b2e81856144bb565b9350613b3e8185602086016148ff565b80840191505092915050565b613b5381614884565b82525050565b613b62816148a8565b82525050565b613b71816148cc565b82525050565b613b80816148de565b82525050565b6000613b918261449f565b613b9b81856144c6565b9350613bab8185602086016148ff565b613bb481614ade565b840191505092915050565b6000613bcc6010836144d7565b9150613bd782614afc565b602082019050919050565b6000613bef6016836144d7565b9150613bfa82614b25565b602082019050919050565b6000613c12602a836144d7565b9150613c1d82614b4e565b604082019050919050565b6000613c356026836144d7565b9150613c4082614b9d565b604082019050919050565b6000613c586023836144d7565b9150613c6382614bec565b604082019050919050565b6000613c7b6024836144d7565b9150613c8682614c3b565b604082019050919050565b6000613c9e6010836144d7565b9150613ca982614c8a565b602082019050919050565b6000613cc16020836144d7565b9150613ccc82614cb3565b602082019050919050565b6000613ce46013836144d7565b9150613cef82614cdc565b602082019050919050565b6000613d076014836144d7565b9150613d1282614d05565b602082019050919050565b6000613d2a6015836144d7565b9150613d3582614d2e565b602082019050919050565b6000613d4d6015836144d7565b9150613d5882614d57565b602082019050919050565b6000613d70601c836144d7565b9150613d7b82614d80565b602082019050919050565b6000613d93601f836144d7565b9150613d9e82614da9565b602082019050919050565b6000613db6600c836144d7565b9150613dc182614dd2565b602082019050919050565b6000613dd96025836144d7565b9150613de482614dfb565b604082019050919050565b6000613dfc601f836144d7565b9150613e0782614e4a565b602082019050919050565b600060a083016000830151613e2a6000860182613a7e565b506020830151613e3d6020860182613a7e565b5060408301518482036040860152613e558282613b86565b91505060608301518482036060860152613e6f8282613b86565b9150506080830151613e846080860182613a7e565b508091505092915050565b6000608083016000830151613ea76000860182613a7e565b506020830151613eba6020860182613a7e565b506040830151613ecd6040860182613ef2565b5060608301518482036060860152613ee58282613b86565b9150508091505092915050565b613efb8161486d565b82525050565b613f0a8161486d565b82525050565b613f21613f1c8261486d565b6149b6565b82525050565b6000613f338285613aba565b602082019150613f438284613aba565b6020820191508190509392505050565b6000613f5f8286613f10565b602082019150613f6f8285613b19565b9150613f7b8284613f10565b602082019150819050949350505050565b6000613f988287613f10565b602082019150613fa88286613f10565b602082019150613fb88285613aba565b602082019150613fc88284613aba565b60208201915081905095945050505050565b6000602082019050613fef6000830184613a8d565b92915050565b600060408201905061400a6000830185613a8d565b6140176020830184613a8d565b9392505050565b60006060820190506140336000830186613a8d565b6140406020830185613a8d565b61404d6040830184613a8d565b949350505050565b600060608201905061406a6000830186613a8d565b6140776020830185613a8d565b6140846040830184613f01565b949350505050565b60006040820190506140a16000830185613a8d565b81810360208301526140b38184613ae0565b90509392505050565b60006020820190506140d16000830184613a9c565b92915050565b60006020820190506140ec6000830184613aab565b92915050565b60006020820190506141076000830184613ad1565b92915050565b60006020820190506141226000830184613b4a565b92915050565b600060208201905061413d6000830184613b59565b92915050565b60006040820190506141586000830185613b68565b818103602083015261416a8184613ae0565b90509392505050565b60006020820190506141886000830184613b77565b92915050565b600060208201905081810360008301526141a781613bbf565b9050919050565b600060208201905081810360008301526141c781613be2565b9050919050565b600060208201905081810360008301526141e781613c05565b9050919050565b6000602082019050818103600083015261420781613c28565b9050919050565b6000602082019050818103600083015261422781613c4b565b9050919050565b6000602082019050818103600083015261424781613c6e565b9050919050565b6000602082019050818103600083015261426781613c91565b9050919050565b6000602082019050818103600083015261428781613cb4565b9050919050565b600060208201905081810360008301526142a781613cd7565b9050919050565b600060208201905081810360008301526142c781613cfa565b9050919050565b600060208201905081810360008301526142e781613d1d565b9050919050565b6000602082019050818103600083015261430781613d40565b9050919050565b6000602082019050818103600083015261432781613d63565b9050919050565b6000602082019050818103600083015261434781613d86565b9050919050565b6000602082019050818103600083015261436781613da9565b9050919050565b6000602082019050818103600083015261438781613dcc565b9050919050565b600060208201905081810360008301526143a781613def565b9050919050565b600060208201905081810360008301526143c88184613e12565b905092915050565b600060208201905081810360008301526143ea8184613e8f565b905092915050565b60006020820190506144076000830184613f01565b92915050565b6000614417614428565b90506144238282614932565b919050565b6000604051905090565b600067ffffffffffffffff82111561444d5761444c614aaf565b5b61445682614ade565b9050602081019050919050565b600067ffffffffffffffff82111561447e5761447d614aaf565b5b61448782614ade565b9050602081019050919050565b600081519050919050565b600081519050919050565b600082825260208201905092915050565b600081905092915050565b600082825260208201905092915050565b600082825260208201905092915050565b60006144f38261486d565b91506144fe8361486d565b9250827fffffffffffffffffffffffffffffffffffffffffffffffffffffffffffffffff0382111561453357614532614a22565b5b828201905092915050565b60006145498261486d565b91506145548361486d565b92508261456457614563614a51565b5b828204905092915050565b600061457a82614877565b915061458583614877565b92508261459557614594614a51565b5b828204905092915050565b6000808291508390505b60018511156145ea578086048111156145c6576145c5614a22565b5b60018516156145d55780820291505b80810290506145e385614aef565b94506145aa565b94509492505050565b60006145fe8261486d565b91506146098361486d565b92506146367fffffffffffffffffffffffffffffffffffffffffffffffffffffffffffffffff848461463e565b905092915050565b60008261464e576001905061470a565b8161465c576000905061470a565b8160018114614672576002811461467c576146ab565b600191505061470a565b60ff84111561468e5761468d614a22565b5b8360020a9150848211156146a5576146a4614a22565b5b5061470a565b5060208310610133831016604e8410600b84101617156146e05782820a9050838111156146db576146da614a22565b5b61470a565b6146ed84848460016145a0565b9250905081840481111561470457614703614a22565b5b81810290505b9392505050565b600061471c8261486d565b91506147278361486d565b9250817fffffffffffffffffffffffffffffffffffffffffffffffffffffffffffffffff04831182151516156147605761475f614a22565b5b828202905092915050565b60006147768261486d565b91506147818361486d565b92508282101561479457614793614a22565b5b828203905092915050565b60006147aa82614877565b91506147b583614877565b9250828210156147c8576147c7614a22565b5b828203905092915050565b60006147de8261484d565b9050919050565b60008115159050919050565b6000819050919050565b60007fffffffff0000000000000000000000000000000000000000000000000000000082169050919050565b600081905061483582614e73565b919050565b600081905061484882614e87565b919050565b600073ffffffffffffffffffffffffffffffffffffffff82169050919050565b6000819050919050565b600060ff82169050919050565b600061488f82614896565b9050919050565b60006148a18261484d565b9050919050565b60006148b3826148ba565b9050919050565b60006148c58261484d565b9050919050565b60006148d782614827565b9050919050565b60006148e98261483a565b9050919050565b82818337600083830152505050565b60005b8381101561491d578082015181840152602081019050614902565b8381111561492c576000848401525b50505050565b61493b82614ade565b810181811067ffffffffffffffff8211171561495a57614959614aaf565b5b80604052505050565b600061496e8261486d565b91507fffffffffffffffffffffffffffffffffffffffffffffffffffffffffffffffff8214156149a1576149a0614a22565b5b600182019050919050565b6000819050919050565b6000819050919050565b60006149cb8261486d565b91506149d68361486d565b9250826149e6576149e5614a51565b5b828206905092915050565b60006149fc82614877565b9150614a0783614877565b925082614a1757614a16614a51565b5b828206905092915050565b7f4e487b7100000000000000000000000000000000000000000000000000000000600052601160045260246000fd5b7f4e487b7100000000000000000000000000000000000000000000000000000000600052601260045260246000fd5b7f4e487b7100000000000000000000000000000000000000000000000000000000600052602160045260246000fd5b7f4e487b7100000000000000000000000000000000000000000000000000000000600052604160045260246000fd5b6000601f19601f8301169050919050565b60008160011c9050919050565b7f546f6b656e204e6f74206d617070656400000000000000000000000000000000600082015250565b7f416c7265616479206d6170706564206f7220696e697400000000000000000000600082015250565b7f467842617365526f6f7454756e6e656c3a204348494c445f54554e4e454c5f4160008201527f4c52454144595f53455400000000000000000000000000000000000000000000602082015250565b7f4f776e61626c653a206e6577206f776e657220697320746865207a65726f206160008201527f6464726573730000000000000000000000000000000000000000000000000000602082015250565b7f4678526f6f7454756e6e656c3a20494e56414c49445f524543454950545f505260008201527f4f4f460000000000000000000000000000000000000000000000000000000000602082015250565b7f4678526f6f7454756e6e656c3a20455849545f414c52454144595f50524f434560008201527f5353454400000000000000000000000000000000000000000000000000000000602082015250565b7f546f6b656e206e6f74206d617070656400000000000000000000000000000000600082015250565b7f4f776e61626c653a2063616c6c6572206973206e6f7420746865206f776e6572600082015250565b7f546f6b656e206e6f7420737570706f7274656400000000000000000000000000600082015250565b7f496e76616c69642070726f6f66206c656e677468000000000000000000000000600082015250565b7f4c65616620696e64657820697320746f6f206269670000000000000000000000600082015250565b7f4e6f74206f776e6572206f66204c3120546f6b656e0000000000000000000000600082015250565b7f4678526f6f7454756e6e656c3a20494e56414c49445f48454144455200000000600082015250565b7f4678526f6f7454756e6e656c3a20494e56414c49445f5349474e415455524500600082015250565b7f496e76616c696420747970650000000000000000000000000000000000000000600082015250565b7f4678526f6f7454756e6e656c3a20494e56414c49445f46585f4348494c445f5460008201527f554e4e454c000000000000000000000000000000000000000000000000000000602082015250565b7f5265656e7472616e637947756172643a207265656e7472616e742063616c6c00600082015250565b60048110614e8457614e83614a80565b5b50565b60038110614e9857614e97614a80565b5b50565b614ea4816147d3565b8114614eaf57600080fd5b50565b614ebb816147e5565b8114614ec657600080fd5b50565b614ed2816147f1565b8114614edd57600080fd5b50565b60048110614eed57600080fd5b50565b614ef98161486d565b8114614f0457600080fd5b5056fea26469706673582212200f93d9214cbc7d6282310e403675be14841edacf32d154d8d4239f7d52db911564736f6c63430008040033",
  "devdoc": {
    "kind": "dev",
    "methods": {
      "owner()": {
        "details": "Returns the address of the current owner."
      },
      "receiveMessage(bytes)": {
        "details": "This function verifies if the transaction actually happened on child chain",
        "params": {
          "inputData": "RLP encoded data of the reference tx containing following list of fields  0 - headerNumber - Checkpoint header block number containing the reference tx  1 - blockProof - Proof that the block header (in the child chain) is a leaf in the submitted merkle root  2 - blockNumber - Block number containing the reference tx on child chain  3 - blockTime - Reference tx block time  4 - txRoot - Transactions root of block  5 - receiptRoot - Receipts root of block  6 - receipt - Receipt of the reference transaction  7 - receiptProof - Merkle proof of the reference receipt  8 - branchMask - 32 bits denoting the path of receipt in merkle tree  9 - receiptLogIndex - Log Index to read from the receipt"
        }
      },
      "renounceOwnership()": {
        "details": "Leaves the contract without owner. It will not be possible to call `onlyOwner` functions anymore. Can only be called by the current owner. NOTE: Renouncing ownership will leave the contract without an owner, thereby removing any functionality that is only available to the owner."
      },
      "transferOwnership(address)": {
        "details": "Transfers ownership of the contract to a new account (`newOwner`). Can only be called by the current owner."
      }
    },
    "version": 1
  },
  "userdoc": {
    "kind": "user",
    "methods": {
      "receiveMessage(bytes)": {
        "notice": "receive message from  L2 to L1, validated by proof"
      }
    },
    "version": 1
  },
  "storageLayout": {
    "storage": [
      {
        "astId": 7891,
        "contract": "contracts/l1/L1Tunnel.sol:L1Tunnel",
        "label": "fxRoot",
        "offset": 0,
        "slot": "0",
        "type": "t_contract(IFxStateSender)7841"
      },
      {
        "astId": 7894,
        "contract": "contracts/l1/L1Tunnel.sol:L1Tunnel",
        "label": "checkpointManager",
        "offset": 0,
        "slot": "1",
        "type": "t_contract(ICheckpointManager)7859"
      },
      {
        "astId": 7896,
        "contract": "contracts/l1/L1Tunnel.sol:L1Tunnel",
        "label": "fxChildTunnel",
        "offset": 0,
        "slot": "2",
        "type": "t_address"
      },
      {
        "astId": 7900,
        "contract": "contracts/l1/L1Tunnel.sol:L1Tunnel",
        "label": "processedExits",
        "offset": 0,
        "slot": "3",
        "type": "t_mapping(t_bytes32,t_bool)"
      },
      {
        "astId": 2017,
        "contract": "contracts/l1/L1Tunnel.sol:L1Tunnel",
        "label": "_owner",
        "offset": 0,
        "slot": "4",
        "type": "t_address"
      },
      {
        "astId": 2948,
        "contract": "contracts/l1/L1Tunnel.sol:L1Tunnel",
        "label": "_status",
        "offset": 0,
        "slot": "5",
        "type": "t_uint256"
      },
      {
        "astId": 4823,
        "contract": "contracts/l1/L1Tunnel.sol:L1Tunnel",
        "label": "mappedTokens",
        "offset": 0,
        "slot": "6",
        "type": "t_mapping(t_address,t_address)"
      },
      {
        "astId": 4828,
        "contract": "contracts/l1/L1Tunnel.sol:L1Tunnel",
        "label": "mappedTokenStatus",
        "offset": 0,
        "slot": "7",
        "type": "t_mapping(t_address,t_enum(TokenStatus)4758)"
      }
    ],
    "types": {
      "t_address": {
        "encoding": "inplace",
        "label": "address",
        "numberOfBytes": "20"
      },
      "t_bool": {
        "encoding": "inplace",
        "label": "bool",
        "numberOfBytes": "1"
      },
      "t_bytes32": {
        "encoding": "inplace",
        "label": "bytes32",
        "numberOfBytes": "32"
      },
      "t_contract(ICheckpointManager)7859": {
        "encoding": "inplace",
        "label": "contract ICheckpointManager",
        "numberOfBytes": "20"
      },
      "t_contract(IFxStateSender)7841": {
        "encoding": "inplace",
        "label": "contract IFxStateSender",
        "numberOfBytes": "20"
      },
      "t_enum(TokenStatus)4758": {
        "encoding": "inplace",
        "label": "enum Tunnel.TokenStatus",
        "numberOfBytes": "1"
      },
      "t_mapping(t_address,t_address)": {
        "encoding": "mapping",
        "key": "t_address",
        "label": "mapping(address => address)",
        "numberOfBytes": "32",
        "value": "t_address"
      },
      "t_mapping(t_address,t_enum(TokenStatus)4758)": {
        "encoding": "mapping",
        "key": "t_address",
        "label": "mapping(address => enum Tunnel.TokenStatus)",
        "numberOfBytes": "32",
        "value": "t_enum(TokenStatus)4758"
      },
      "t_mapping(t_bytes32,t_bool)": {
        "encoding": "mapping",
        "key": "t_bytes32",
        "label": "mapping(bytes32 => bool)",
        "numberOfBytes": "32",
        "value": "t_bool"
      },
      "t_uint256": {
        "encoding": "inplace",
        "label": "uint256",
        "numberOfBytes": "32"
      }
    }
  }
}