{
  "address": "0x601B25B23c90340ADc0051F626b050aEb2089BfB",
  "abi": [
    {
      "inputs": [
        {
          "internalType": "address",
          "name": "_fxChild",
          "type": "address"
        },
        {
          "internalType": "contract ProxyAdmin",
          "name": "_proxyAdmin",
          "type": "address"
        },
        {
          "internalType": "address",
          "name": "_cloneAbleERC721",
          "type": "address"
        }
      ],
      "stateMutability": "nonpayable",
      "type": "constructor"
    },
    {
      "anonymous": false,
      "inputs": [
        {
          "indexed": false,
          "internalType": "address",
          "name": "L1Token",
          "type": "address"
        },
        {
          "indexed": false,
          "internalType": "address",
          "name": "L2Token",
          "type": "address"
        },
        {
          "indexed": false,
          "internalType": "address",
          "name": "from",
          "type": "address"
        }
      ],
      "name": "L2MappingMappedERC721",
      "type": "event"
    },
    {
      "anonymous": false,
      "inputs": [
        {
          "indexed": false,
          "internalType": "bytes",
          "name": "message",
          "type": "bytes"
        }
      ],
      "name": "MessageSent",
      "type": "event"
    },
    {
      "anonymous": false,
      "inputs": [
        {
          "indexed": true,
          "internalType": "address",
          "name": "previousOwner",
          "type": "address"
        },
        {
          "indexed": true,
          "internalType": "address",
          "name": "newOwner",
          "type": "address"
        }
      ],
      "name": "OwnershipTransferred",
      "type": "event"
    },
    {
      "inputs": [],
      "name": "cloneAbleERC721",
      "outputs": [
        {
          "internalType": "address",
          "name": "",
          "type": "address"
        }
      ],
      "stateMutability": "view",
      "type": "function"
    },
    {
      "inputs": [
        {
          "internalType": "address",
          "name": "",
          "type": "address"
        }
      ],
      "name": "fromL1mappedTokens",
      "outputs": [
        {
          "internalType": "address",
          "name": "",
          "type": "address"
        }
      ],
      "stateMutability": "view",
      "type": "function"
    },
    {
      "inputs": [],
      "name": "fxChild",
      "outputs": [
        {
          "internalType": "address",
          "name": "",
          "type": "address"
        }
      ],
      "stateMutability": "view",
      "type": "function"
    },
    {
      "inputs": [],
      "name": "fxRootTunnel",
      "outputs": [
        {
          "internalType": "address",
          "name": "",
          "type": "address"
        }
      ],
      "stateMutability": "view",
      "type": "function"
    },
    {
      "inputs": [
        {
          "internalType": "address",
          "name": "",
          "type": "address"
        }
      ],
      "name": "mappedTokenMessageData",
      "outputs": [
        {
          "internalType": "bytes",
          "name": "",
          "type": "bytes"
        }
      ],
      "stateMutability": "view",
      "type": "function"
    },
    {
      "inputs": [
        {
          "internalType": "address",
          "name": "",
          "type": "address"
        }
      ],
      "name": "mappedTokens",
      "outputs": [
        {
          "internalType": "address",
          "name": "",
          "type": "address"
        }
      ],
      "stateMutability": "view",
      "type": "function"
    },
    {
      "inputs": [],
      "name": "owner",
      "outputs": [
        {
          "internalType": "address",
          "name": "",
          "type": "address"
        }
      ],
      "stateMutability": "view",
      "type": "function"
    },
    {
      "inputs": [
        {
          "internalType": "uint256",
          "name": "stateId",
          "type": "uint256"
        },
        {
          "internalType": "address",
          "name": "rootMessageSender",
          "type": "address"
        },
        {
          "internalType": "bytes",
          "name": "data",
          "type": "bytes"
        }
      ],
      "name": "processMessageFromRoot",
      "outputs": [],
      "stateMutability": "nonpayable",
      "type": "function"
    },
    {
      "inputs": [],
      "name": "proxyAdmin",
      "outputs": [
        {
          "internalType": "contract ProxyAdmin",
          "name": "",
          "type": "address"
        }
      ],
      "stateMutability": "view",
      "type": "function"
    },
    {
      "inputs": [],
      "name": "renounceOwnership",
      "outputs": [],
      "stateMutability": "nonpayable",
      "type": "function"
    },
    {
      "inputs": [
        {
          "internalType": "address",
          "name": "L1TokenAddress",
          "type": "address"
        }
      ],
      "name": "sendDeploymentDataToRoot",
      "outputs": [],
      "stateMutability": "nonpayable",
      "type": "function"
    },
    {
      "inputs": [
        {
          "internalType": "address",
          "name": "_fxRootTunnel",
          "type": "address"
        }
      ],
      "name": "setFxRootTunnel",
      "outputs": [],
      "stateMutability": "nonpayable",
      "type": "function"
    },
    {
      "inputs": [
        {
          "internalType": "address",
          "name": "newOwner",
          "type": "address"
        }
      ],
      "name": "transferOwnership",
      "outputs": [],
      "stateMutability": "nonpayable",
      "type": "function"
    },
    {
      "inputs": [
        {
          "internalType": "address",
          "name": "L2TokenAddress",
          "type": "address"
        },
        {
          "internalType": "uint256",
          "name": "tokenId",
          "type": "uint256"
        }
      ],
      "name": "transferToL1",
      "outputs": [],
      "stateMutability": "nonpayable",
      "type": "function"
    }
  ],
  "transactionHash": "0x00505baf2211fca501ec4795ed5e672d70cc70da592cd9330931c71a60918aac",
  "args": [
    "0xCf73231F28B7331BBe3124B907840A94851f9f11",
    "0xc3d7e9eeA0d9033EB3884AEBE500B6a20C3181F1",
    "0x44792DA39E7901267DA74f166CBd116BbC3d1aB9"
  ],
  "numDeployments": 1,
  "solcInputHash": "34b2c15a9775b2cb6ceb5452a30607a3",
  "bytecode": "0x60806040523480156200001157600080fd5b50604051620044e3380380620044e3833981810160405281019062000037919062000228565b82806000806101000a81548173ffffffffffffffffffffffffffffffffffffffff021916908373ffffffffffffffffffffffffffffffffffffffff16021790555050620000996200008d6200012c60201b60201c565b6200013460201b60201c565b600160038190555081600560006101000a81548173ffffffffffffffffffffffffffffffffffffffff021916908373ffffffffffffffffffffffffffffffffffffffff16021790555080600460006101000a81548173ffffffffffffffffffffffffffffffffffffffff021916908373ffffffffffffffffffffffffffffffffffffffff160217905550505050620002fa565b600033905090565b6000600260009054906101000a900473ffffffffffffffffffffffffffffffffffffffff16905081600260006101000a81548173ffffffffffffffffffffffffffffffffffffffff021916908373ffffffffffffffffffffffffffffffffffffffff1602179055508173ffffffffffffffffffffffffffffffffffffffff168173ffffffffffffffffffffffffffffffffffffffff167f8be0079c531659141344cd1fd0a4f28419497f9722a3daafe3b4186f6b6457e060405160405180910390a35050565b6000815190506200020b81620002c6565b92915050565b6000815190506200022281620002e0565b92915050565b6000806000606084860312156200023e57600080fd5b60006200024e86828701620001fa565b9350506020620002618682870162000211565b92505060406200027486828701620001fa565b9150509250925092565b60006200028b82620002a6565b9050919050565b60006200029f826200027e565b9050919050565b600073ffffffffffffffffffffffffffffffffffffffff82169050919050565b620002d1816200027e565b8114620002dd57600080fd5b50565b620002eb8162000292565b8114620002f757600080fd5b50565b6141d9806200030a6000396000f3fe60806040523480156200001157600080fd5b5060043610620001005760003560e01c80637f1e9cb011620000995780639a7c4b71116200006f5780639a7c4b711462000267578063e6ede14d1462000287578063f06bc00314620002bd578063f2fde38b14620002dd5762000100565b80637f1e9cb014620002035780638883709414620002255780638da5cb5b14620002455762000100565b8063450d11f011620000db578063450d11f0146200017f5780634c04cc9014620001a15780636b4e62a314620001d7578063715018a614620001f75762000100565b806316f6db6914620001055780631d01b3e114620001275780633e47158c146200015d575b600080fd5b6200010f620002fd565b6040516200011e919062001eb7565b60405180910390f35b6200014560048036038101906200013f919062001922565b62000323565b60405162000154919062001fd6565b60405180910390f35b62000167620003cb565b60405162000176919062001ffa565b60405180910390f35b62000189620003f1565b60405162000198919062001eb7565b60405180910390f35b620001bf6004803603810190620001b9919062001922565b62000415565b604051620001ce919062001eb7565b60405180910390f35b620001f56004803603810190620001ef919062001922565b62000448565b005b62000201620005c0565b005b6200020d62000651565b6040516200021c919062001eb7565b60405180910390f35b6200024360048036038101906200023d919062001922565b62000677565b005b6200024f6200074f565b6040516200025e919062001eb7565b60405180910390f35b6200028560048036038101906200027f919062001ab8565b62000779565b005b620002a560048036038101906200029f919062001922565b62000861565b604051620002b4919062001eb7565b60405180910390f35b620002db6004803603810190620002d591906200194e565b62000894565b005b620002fb6004803603810190620002f5919062001922565b62000bf8565b005b600460009054906101000a900473ffffffffffffffffffffffffffffffffffffffff1681565b60086020528060005260406000206000915090508054620003449062002421565b80601f0160208091040260200160405190810160405280929190818152602001828054620003729062002421565b8015620003c35780601f106200039757610100808354040283529160200191620003c3565b820191906000526020600020905b815481529060010190602001808311620003a557829003601f168201915b505050505081565b600560009054906101000a900473ffffffffffffffffffffffffffffffffffffffff1681565b60008054906101000a900473ffffffffffffffffffffffffffffffffffffffff1681565b60076020528060005260406000206000915054906101000a900473ffffffffffffffffffffffffffffffffffffffff1681565b6000600860008373ffffffffffffffffffffffffffffffffffffffff1673ffffffffffffffffffffffffffffffffffffffff1681526020019081526020016000208054620004969062002421565b80601f0160208091040260200160405190810160405280929190818152602001828054620004c49062002421565b8015620005155780601f10620004e95761010080835404028352916020019162000515565b820191906000526020600020905b815481529060010190602001808311620004f757829003601f168201915b5050505050905060008151141562000564576040517f08c379a00000000000000000000000000000000000000000000000000000000081526004016200055b9062002150565b60405180910390fd5b6200056f8162000cfc565b600860008373ffffffffffffffffffffffffffffffffffffffff1673ffffffffffffffffffffffffffffffffffffffff1681526020019081526020016000206000620005bc91906200151b565b5050565b620005ca62000d38565b73ffffffffffffffffffffffffffffffffffffffff16620005ea6200074f565b73ffffffffffffffffffffffffffffffffffffffff161462000643576040517f08c379a00000000000000000000000000000000000000000000000000000000081526004016200063a906200212e565b60405180910390fd5b6200064f600062000d40565b565b600160009054906101000a900473ffffffffffffffffffffffffffffffffffffffff1681565b600073ffffffffffffffffffffffffffffffffffffffff16600160009054906101000a900473ffffffffffffffffffffffffffffffffffffffff1673ffffffffffffffffffffffffffffffffffffffff16146200070b576040517f08c379a00000000000000000000000000000000000000000000000000000000081526004016200070290620021b6565b60405180910390fd5b80600160006101000a81548173ffffffffffffffffffffffffffffffffffffffff021916908373ffffffffffffffffffffffffffffffffffffffff16021790555050565b6000600260009054906101000a900473ffffffffffffffffffffffffffffffffffffffff16905090565b60008054906101000a900473ffffffffffffffffffffffffffffffffffffffff1673ffffffffffffffffffffffffffffffffffffffff163373ffffffffffffffffffffffffffffffffffffffff16146200080a576040517f08c379a00000000000000000000000000000000000000000000000000000000081526004016200080190620020a6565b60405180910390fd5b6200085b848484848080601f016020809104026020016040519081016040528093929190818152602001838380828437600081840152601f19601f8201169050808301925050505050505062000e06565b50505050565b60066020528060005260406000206000915054906101000a900473ffffffffffffffffffffffffffffffffffffffff1681565b60026003541415620008dd576040517f08c379a0000000000000000000000000000000000000000000000000000000008152600401620008d49062002194565b60405180910390fd5b60026003819055506000600660008473ffffffffffffffffffffffffffffffffffffffff1673ffffffffffffffffffffffffffffffffffffffff16815260200190815260200160002060009054906101000a900473ffffffffffffffffffffffffffffffffffffffff169050600073ffffffffffffffffffffffffffffffffffffffff168173ffffffffffffffffffffffffffffffffffffffff161415620009bc576040517f08c379a0000000000000000000000000000000000000000000000000000000008152600401620009b3906200210c565b60405180910390fd5b600060405180608001604052808373ffffffffffffffffffffffffffffffffffffffff168152602001620009ef62000d38565b73ffffffffffffffffffffffffffffffffffffffff1681526020018481526020018573ffffffffffffffffffffffffffffffffffffffff1663c87b56dd866040518263ffffffff1660e01b815260040162000a4b919062002220565b60006040518083038186803b15801562000a6457600080fd5b505afa15801562000a79573d6000803e3d6000fd5b505050506040513d6000823e3d601f19601f8201168201806040525081019062000aa49190620019e9565b81525060405160200162000ab99190620021fc565b60405160208183030381529060405290508373ffffffffffffffffffffffffffffffffffffffff166323b872dd62000af062000d38565b30866040518463ffffffff1660e01b815260040162000b129392919062001f55565b600060405180830381600087803b15801562000b2d57600080fd5b505af115801562000b42573d6000803e3d6000fd5b505050508373ffffffffffffffffffffffffffffffffffffffff166342966c68846040518263ffffffff1660e01b815260040162000b81919062002220565b600060405180830381600087803b15801562000b9c57600080fd5b505af115801562000bb1573d6000803e3d6000fd5b50505050600060038260405160200162000bcd92919062002017565b604051602081830303815290604052905062000be98162000cfc565b50505060016003819055505050565b62000c0262000d38565b73ffffffffffffffffffffffffffffffffffffffff1662000c226200074f565b73ffffffffffffffffffffffffffffffffffffffff161462000c7b576040517f08c379a000000000000000000000000000000000000000000000000000000000815260040162000c72906200212e565b60405180910390fd5b600073ffffffffffffffffffffffffffffffffffffffff168173ffffffffffffffffffffffffffffffffffffffff16141562000cee576040517f08c379a000000000000000000000000000000000000000000000000000000000815260040162000ce590620020c8565b60405180910390fd5b62000cf98162000d40565b50565b7f8c5261668696ce22758910d05bab8f186d6eb247ceac2af2e82c7dc17669b0368160405162000d2d919062001fd6565b60405180910390a150565b600033905090565b6000600260009054906101000a900473ffffffffffffffffffffffffffffffffffffffff16905081600260006101000a81548173ffffffffffffffffffffffffffffffffffffffff021916908373ffffffffffffffffffffffffffffffffffffffff1602179055508173ffffffffffffffffffffffffffffffffffffffff168173ffffffffffffffffffffffffffffffffffffffff167f8be0079c531659141344cd1fd0a4f28419497f9722a3daafe3b4186f6b6457e060405160405180910390a35050565b6000808280602001905181019062000e1f91906200198f565b915091506000600381111562000e5e577f4e487b7100000000000000000000000000000000000000000000000000000000600052602160045260246000fd5b82600381111562000e98577f4e487b7100000000000000000000000000000000000000000000000000000000600052602160045260246000fd5b141562000ee05760008180602001905181019062000eb7919062001a2e565b905062000ed78160000151826040015183606001518460800151620010a9565b505050620010a4565b6002600381111562000f1b577f4e487b7100000000000000000000000000000000000000000000000000000000600052602160045260246000fd5b82600381111562000f55577f4e487b7100000000000000000000000000000000000000000000000000000000600052602160045260246000fd5b1415620010675760008180602001905181019062000f74919062001a73565b9050600060076000836000015173ffffffffffffffffffffffffffffffffffffffff1673ffffffffffffffffffffffffffffffffffffffff16815260200190815260200160002060009054906101000a900473ffffffffffffffffffffffffffffffffffffffff1690508073ffffffffffffffffffffffffffffffffffffffff1663d3fc98648360200151846040015185606001516040518463ffffffff1660e01b8152600401620010299392919062001f92565b600060405180830381600087803b1580156200104457600080fd5b505af115801562001059573d6000803e3d6000fd5b5050505050505050620010a4565b6040517f08c379a00000000000000000000000000000000000000000000000000000000081526004016200109b9062002172565b60405180910390fd5b505050565b6000620010d8600460009054906101000a900473ffffffffffffffffffffffffffffffffffffffff1662001443565b9050600081600560009054906101000a900473ffffffffffffffffffffffffffffffffffffffff16638f15b41460e01b878730886040516024016200112194939291906200204b565b604051602081830303815290604052907bffffffffffffffffffffffffffffffffffffffffffffffffffffffff19166020820180517bffffffffffffffffffffffffffffffffffffffffffffffffffffffff83818316178352505050506040516200118c9062001561565b6200119a9392919062001f11565b604051809103906000f080158015620011b7573d6000803e3d6000fd5b50905085600660008373ffffffffffffffffffffffffffffffffffffffff1673ffffffffffffffffffffffffffffffffffffffff16815260200190815260200160002060006101000a81548173ffffffffffffffffffffffffffffffffffffffff021916908373ffffffffffffffffffffffffffffffffffffffff16021790555080600760008873ffffffffffffffffffffffffffffffffffffffff1673ffffffffffffffffffffffffffffffffffffffff16815260200190815260200160002060006101000a81548173ffffffffffffffffffffffffffffffffffffffff021916908373ffffffffffffffffffffffffffffffffffffffff16021790555060006040518060a001604052808873ffffffffffffffffffffffffffffffffffffffff1681526020018373ffffffffffffffffffffffffffffffffffffffff1681526020018781526020018681526020018573ffffffffffffffffffffffffffffffffffffffff16815250604051602001620013339190620021d8565b604051602081830303815290604052905060006001600381111562001381577f4e487b7100000000000000000000000000000000000000000000000000000000600052602160045260246000fd5b82604051602001620013959291906200223d565b60405160208183030381529060405290507f341d8784abaeeea2ecfc66b53a41a833aebde67d0b2ae3496b5e5780173f569c888487604051620013db9392919062001ed4565b60405180910390a180600860008a73ffffffffffffffffffffffffffffffffffffffff1673ffffffffffffffffffffffffffffffffffffffff1681526020019081526020016000209080519060200190620014389291906200156f565b505050505050505050565b60006040517f3d602d80600a3d3981f3363d3d373d3d3d363d7300000000000000000000000081528260601b60148201527f5af43d82803e903d91602b57fd5bf3000000000000000000000000000000000060288201526037816000f0915050600073ffffffffffffffffffffffffffffffffffffffff168173ffffffffffffffffffffffffffffffffffffffff16141562001516576040517f08c379a00000000000000000000000000000000000000000000000000000000081526004016200150d90620020ea565b60405180910390fd5b919050565b508054620015299062002421565b6000825580601f106200153d57506200155e565b601f0160209004906000526020600020908101906200155d919062001600565b5b50565b611a39806200276b83390190565b8280546200157d9062002421565b90600052602060002090601f016020900481019282620015a15760008555620015ed565b82601f10620015bc57805160ff1916838001178555620015ed565b82800160010185558215620015ed579182015b82811115620015ec578251825591602001919060010190620015cf565b5b509050620015fc919062001600565b5090565b5b808211156200161b57600081600090555060010162001601565b5090565b60006200163662001630846200229a565b62002271565b9050828152602081018484840111156200164f57600080fd5b6200165c848285620023eb565b509392505050565b60006200167b6200167584620022d0565b62002271565b9050828152602081018484840111156200169457600080fd5b620016a1848285620023eb565b509392505050565b600081359050620016ba8162002725565b92915050565b600081519050620016d18162002725565b92915050565b60008083601f840112620016ea57600080fd5b8235905067ffffffffffffffff8111156200170457600080fd5b6020830191508360018202830111156200171d57600080fd5b9250929050565b600082601f8301126200173657600080fd5b8151620017488482602086016200161f565b91505092915050565b60008151905062001762816200273f565b92915050565b600082601f8301126200177a57600080fd5b81516200178c84826020860162001664565b91505092915050565b600060a08284031215620017a857600080fd5b620017b460a062002271565b90506000620017c684828501620016c0565b6000830152506020620017dc84828501620016c0565b602083015250604082015167ffffffffffffffff811115620017fd57600080fd5b6200180b8482850162001768565b604083015250606082015167ffffffffffffffff8111156200182c57600080fd5b6200183a8482850162001768565b60608301525060806200185084828501620016c0565b60808301525092915050565b6000608082840312156200186f57600080fd5b6200187b608062002271565b905060006200188d84828501620016c0565b6000830152506020620018a384828501620016c0565b6020830152506040620018b9848285016200190b565b604083015250606082015167ffffffffffffffff811115620018da57600080fd5b620018e88482850162001768565b60608301525092915050565b600081359050620019058162002750565b92915050565b6000815190506200191c8162002750565b92915050565b6000602082840312156200193557600080fd5b60006200194584828501620016a9565b91505092915050565b600080604083850312156200196257600080fd5b60006200197285828601620016a9565b92505060206200198585828601620018f4565b9150509250929050565b60008060408385031215620019a357600080fd5b6000620019b38582860162001751565b925050602083015167ffffffffffffffff811115620019d157600080fd5b620019df8582860162001724565b9150509250929050565b600060208284031215620019fc57600080fd5b600082015167ffffffffffffffff81111562001a1757600080fd5b62001a258482850162001768565b91505092915050565b60006020828403121562001a4157600080fd5b600082015167ffffffffffffffff81111562001a5c57600080fd5b62001a6a8482850162001795565b91505092915050565b60006020828403121562001a8657600080fd5b600082015167ffffffffffffffff81111562001aa157600080fd5b62001aaf848285016200185c565b91505092915050565b6000806000806060858703121562001acf57600080fd5b600062001adf87828801620018f4565b945050602062001af287828801620016a9565b935050604085013567ffffffffffffffff81111562001b1057600080fd5b62001b1e87828801620016d7565b925092505092959194509250565b62001b37816200234f565b82525050565b62001b48816200234f565b82525050565b600062001b5b8262002306565b62001b6781856200231c565b935062001b79818560208601620023eb565b62001b84816200251a565b840191505092915050565b62001b9a81620023af565b82525050565b62001bab81620023d7565b82525050565b600062001bbe8262002311565b62001bca81856200232d565b935062001bdc818560208601620023eb565b62001be7816200251a565b840191505092915050565b600062001bff8262002311565b62001c0b81856200233e565b935062001c1d818560208601620023eb565b62001c28816200251a565b840191505092915050565b600062001c426021836200233e565b915062001c4f826200252b565b604082019050919050565b600062001c696026836200233e565b915062001c76826200257a565b604082019050919050565b600062001c906016836200233e565b915062001c9d82620025c9565b602082019050919050565b600062001cb76010836200233e565b915062001cc482620025f2565b602082019050919050565b600062001cde6020836200233e565b915062001ceb826200261b565b602082019050919050565b600062001d056007836200233e565b915062001d128262002644565b602082019050919050565b600062001d2c600c836200233e565b915062001d39826200266d565b602082019050919050565b600062001d53601f836200233e565b915062001d608262002696565b602082019050919050565b600062001d7a602a836200233e565b915062001d8782620026bf565b604082019050919050565b600060a08301600083015162001dac600086018262001b2c565b50602083015162001dc1602086018262001b2c565b506040830151848203604086015262001ddb828262001bb1565b9150506060830151848203606086015262001df7828262001bb1565b915050608083015162001e0e608086018262001b2c565b508091505092915050565b600060808301600083015162001e33600086018262001b2c565b50602083015162001e48602086018262001b2c565b50604083015162001e5d604086018262001e84565b506060830151848203606086015262001e77828262001bb1565b9150508091505092915050565b62001e8f8162002398565b82525050565b62001ea08162002398565b82525050565b62001eb181620023a2565b82525050565b600060208201905062001ece600083018462001b3d565b92915050565b600060608201905062001eeb600083018662001b3d565b62001efa602083018562001b3d565b62001f09604083018462001b3d565b949350505050565b600060608201905062001f28600083018662001b3d565b62001f37602083018562001b3d565b818103604083015262001f4b818462001b4e565b9050949350505050565b600060608201905062001f6c600083018662001b3d565b62001f7b602083018562001b3d565b62001f8a604083018462001e95565b949350505050565b600060608201905062001fa9600083018662001b3d565b62001fb8602083018562001e95565b818103604083015262001fcc818462001bf2565b9050949350505050565b6000602082019050818103600083015262001ff2818462001b4e565b905092915050565b600060208201905062002011600083018462001b8f565b92915050565b60006040820190506200202e600083018562001ba0565b818103602083015262002042818462001b4e565b90509392505050565b6000608082019050818103600083015262002067818762001bf2565b905081810360208301526200207d818662001bf2565b90506200208e604083018562001b3d565b6200209d606083018462001b3d565b95945050505050565b60006020820190508181036000830152620020c18162001c33565b9050919050565b60006020820190508181036000830152620020e38162001c5a565b9050919050565b60006020820190508181036000830152620021058162001c81565b9050919050565b60006020820190508181036000830152620021278162001ca8565b9050919050565b60006020820190508181036000830152620021498162001ccf565b9050919050565b600060208201905081810360008301526200216b8162001cf6565b9050919050565b600060208201905081810360008301526200218d8162001d1d565b9050919050565b60006020820190508181036000830152620021af8162001d44565b9050919050565b60006020820190508181036000830152620021d18162001d6b565b9050919050565b60006020820190508181036000830152620021f4818462001d92565b905092915050565b6000602082019050818103600083015262002218818462001e19565b905092915050565b600060208201905062002237600083018462001e95565b92915050565b600060408201905062002254600083018562001ea6565b818103602083015262002268818462001b4e565b90509392505050565b60006200227d62002290565b90506200228b828262002457565b919050565b6000604051905090565b600067ffffffffffffffff821115620022b857620022b7620024eb565b5b620022c3826200251a565b9050602081019050919050565b600067ffffffffffffffff821115620022ee57620022ed620024eb565b5b620022f9826200251a565b9050602081019050919050565b600081519050919050565b600081519050919050565b600082825260208201905092915050565b600082825260208201905092915050565b600082825260208201905092915050565b60006200235c8262002378565b9050919050565b600081905062002373826200270e565b919050565b600073ffffffffffffffffffffffffffffffffffffffff82169050919050565b6000819050919050565b600060ff82169050919050565b6000620023bc82620023c3565b9050919050565b6000620023d08262002378565b9050919050565b6000620023e48262002363565b9050919050565b60005b838110156200240b578082015181840152602081019050620023ee565b838111156200241b576000848401525b50505050565b600060028204905060018216806200243a57607f821691505b60208210811415620024515762002450620024bc565b5b50919050565b62002462826200251a565b810181811067ffffffffffffffff82111715620024845762002483620024eb565b5b80604052505050565b7f4e487b7100000000000000000000000000000000000000000000000000000000600052602160045260246000fd5b7f4e487b7100000000000000000000000000000000000000000000000000000000600052602260045260246000fd5b7f4e487b7100000000000000000000000000000000000000000000000000000000600052604160045260246000fd5b6000601f19601f8301169050919050565b7f4678426173654368696c6454756e6e656c3a20494e56414c49445f53454e444560008201527f5200000000000000000000000000000000000000000000000000000000000000602082015250565b7f4f776e61626c653a206e6577206f776e657220697320746865207a65726f206160008201527f6464726573730000000000000000000000000000000000000000000000000000602082015250565b7f455243313136373a20637265617465206661696c656400000000000000000000600082015250565b7f546f6b656e206e6f74206d617070656400000000000000000000000000000000600082015250565b7f4f776e61626c653a2063616c6c6572206973206e6f7420746865206f776e6572600082015250565b7f496e76616c696400000000000000000000000000000000000000000000000000600082015250565b7f496e76616c696420747970650000000000000000000000000000000000000000600082015250565b7f5265656e7472616e637947756172643a207265656e7472616e742063616c6c00600082015250565b7f4678426173654368696c6454756e6e656c3a20524f4f545f54554e4e454c5f4160008201527f4c52454144595f53455400000000000000000000000000000000000000000000602082015250565b600481106200272257620027216200248d565b5b50565b62002730816200234f565b81146200273c57600080fd5b50565b600481106200274d57600080fd5b50565b6200275b8162002398565b81146200276757600080fd5b5056fe608060405260405162001a3938038062001a398339818101604052810190620000299190620006d6565b828160017f360894a13ba1a3210667c828492db98dca3e2076cc3735a920a3ca505d382bbd60001c6200005d9190620009a4565b60001b7f360894a13ba1a3210667c828492db98dca3e2076cc3735a920a3ca505d382bbc60001b14620000b9577f4e487b7100000000000000000000000000000000000000000000000000000000600052600160045260246000fd5b620000cd828260006200017760201b60201c565b505060017fb53127684a568b3173ae13b9f8a6016e243e63b6e8ee1178d6a717850b5d610460001c620001019190620009a4565b60001b7fb53127684a568b3173ae13b9f8a6016e243e63b6e8ee1178d6a717850b5d610360001b146200015d577f4e487b7100000000000000000000000000000000000000000000000000000000600052600160045260246000fd5b6200016e82620001ba60201b60201c565b50505062000bff565b62000188836200021860201b60201c565b600082511180620001965750805b15620001b557620001b383836200026f60201b6200034f1760201c565b505b505050565b7f7e644d79422f17c01e4894b5f4f588d331ebfa28653d42ae832dc59e38c9798f620001eb620002a560201b60201c565b82604051620001fc9291906200085c565b60405180910390a162000215816200030960201b60201c565b50565b6200022981620003fa60201b60201c565b8073ffffffffffffffffffffffffffffffffffffffff167fbc7cd75a20ee27fd9adebab32041f755214dbc6bffa90cc0225b39da2e5c2d3b60405160405180910390a250565b60606200029d838360405180606001604052806027815260200162001a1260279139620004d060201b60201c565b905092915050565b6000620002e07fb53127684a568b3173ae13b9f8a6016e243e63b6e8ee1178d6a717850b5d610360001b620005b460201b6200037c1760201c565b60000160009054906101000a900473ffffffffffffffffffffffffffffffffffffffff16905090565b600073ffffffffffffffffffffffffffffffffffffffff168173ffffffffffffffffffffffffffffffffffffffff1614156200037c576040517f08c379a00000000000000000000000000000000000000000000000000000000081526004016200037390620008ad565b60405180910390fd5b80620003b67fb53127684a568b3173ae13b9f8a6016e243e63b6e8ee1178d6a717850b5d610360001b620005b460201b6200037c1760201c565b60000160006101000a81548173ffffffffffffffffffffffffffffffffffffffff021916908373ffffffffffffffffffffffffffffffffffffffff16021790555050565b6200041081620005be60201b620003861760201c565b62000452576040517f08c379a00000000000000000000000000000000000000000000000000000000081526004016200044990620008cf565b60405180910390fd5b806200048c7f360894a13ba1a3210667c828492db98dca3e2076cc3735a920a3ca505d382bbc60001b620005b460201b6200037c1760201c565b60000160006101000a81548173ffffffffffffffffffffffffffffffffffffffff021916908373ffffffffffffffffffffffffffffffffffffffff16021790555050565b6060620004e384620005be60201b60201c565b62000525576040517f08c379a00000000000000000000000000000000000000000000000000000000081526004016200051c90620008f1565b60405180910390fd5b6000808573ffffffffffffffffffffffffffffffffffffffff16856040516200054f919062000843565b600060405180830381855af49150503d80600081146200058c576040519150601f19603f3d011682016040523d82523d6000602084013e62000591565b606091505b5091509150620005a9828286620005e160201b60201c565b925050509392505050565b6000819050919050565b6000808273ffffffffffffffffffffffffffffffffffffffff163b119050919050565b60608315620005f35782905062000646565b600083511115620006075782518084602001fd5b816040517f08c379a00000000000000000000000000000000000000000000000000000000081526004016200063d919062000889565b60405180910390fd5b9392505050565b6000620006646200065e846200093c565b62000913565b9050828152602081018484840111156200067d57600080fd5b6200068a84828562000a1d565b509392505050565b600081519050620006a38162000be5565b92915050565b600082601f830112620006bb57600080fd5b8151620006cd8482602086016200064d565b91505092915050565b600080600060608486031215620006ec57600080fd5b6000620006fc8682870162000692565b93505060206200070f8682870162000692565b925050604084015167ffffffffffffffff8111156200072d57600080fd5b6200073b86828701620006a9565b9150509250925092565b6200075081620009df565b82525050565b6000620007638262000972565b6200076f818562000988565b93506200078181856020860162000a1d565b80840191505092915050565b60006200079a826200097d565b620007a6818562000993565b9350620007b881856020860162000a1d565b620007c38162000ae7565b840191505092915050565b6000620007dd60268362000993565b9150620007ea8262000af8565b604082019050919050565b600062000804602d8362000993565b9150620008118262000b47565b604082019050919050565b60006200082b60268362000993565b9150620008388262000b96565b604082019050919050565b600062000851828462000756565b915081905092915050565b600060408201905062000873600083018562000745565b62000882602083018462000745565b9392505050565b60006020820190508181036000830152620008a581846200078d565b905092915050565b60006020820190508181036000830152620008c881620007ce565b9050919050565b60006020820190508181036000830152620008ea81620007f5565b9050919050565b600060208201905081810360008301526200090c816200081c565b9050919050565b60006200091f62000932565b90506200092d828262000a53565b919050565b6000604051905090565b600067ffffffffffffffff8211156200095a576200095962000ab8565b5b620009658262000ae7565b9050602081019050919050565b600081519050919050565b600081519050919050565b600081905092915050565b600082825260208201905092915050565b6000620009b18262000a13565b9150620009be8362000a13565b925082821015620009d457620009d362000a89565b5b828203905092915050565b6000620009ec82620009f3565b9050919050565b600073ffffffffffffffffffffffffffffffffffffffff82169050919050565b6000819050919050565b60005b8381101562000a3d57808201518184015260208101905062000a20565b8381111562000a4d576000848401525b50505050565b62000a5e8262000ae7565b810181811067ffffffffffffffff8211171562000a805762000a7f62000ab8565b5b80604052505050565b7f4e487b7100000000000000000000000000000000000000000000000000000000600052601160045260246000fd5b7f4e487b7100000000000000000000000000000000000000000000000000000000600052604160045260246000fd5b6000601f19601f8301169050919050565b7f455243313936373a206e65772061646d696e20697320746865207a65726f206160008201527f6464726573730000000000000000000000000000000000000000000000000000602082015250565b7f455243313936373a206e657720696d706c656d656e746174696f6e206973206e60008201527f6f74206120636f6e747261637400000000000000000000000000000000000000602082015250565b7f416464726573733a2064656c65676174652063616c6c20746f206e6f6e2d636f60008201527f6e74726163740000000000000000000000000000000000000000000000000000602082015250565b62000bf081620009df565b811462000bfc57600080fd5b50565b610e038062000c0f6000396000f3fe60806040526004361061004e5760003560e01c80633659cfe6146100675780634f1ef286146100905780635c60da1b146100ac5780638f283970146100d7578063f851a440146101005761005d565b3661005d5761005b61012b565b005b61006561012b565b005b34801561007357600080fd5b5061008e60048036038101906100899190610902565b610145565b005b6100aa60048036038101906100a5919061092b565b6101ac565b005b3480156100b857600080fd5b506100c161024a565b6040516100ce9190610a9f565b60405180910390f35b3480156100e357600080fd5b506100fe60048036038101906100f99190610902565b6102a2565b005b34801561010c57600080fd5b506101156102f7565b6040516101229190610a9f565b60405180910390f35b6101336103a9565b61014361013e610429565b610438565b565b61014d61045e565b73ffffffffffffffffffffffffffffffffffffffff163373ffffffffffffffffffffffffffffffffffffffff1614156101a05761019b816040518060200160405280600081525060006104b5565b6101a9565b6101a861012b565b5b50565b6101b461045e565b73ffffffffffffffffffffffffffffffffffffffff163373ffffffffffffffffffffffffffffffffffffffff16141561023c576102378383838080601f016020809104026020016040519081016040528093929190818152602001838380828437600081840152601f19601f8201169050808301925050505050505060016104b5565b610245565b61024461012b565b5b505050565b600061025461045e565b73ffffffffffffffffffffffffffffffffffffffff163373ffffffffffffffffffffffffffffffffffffffff1614156102965761028f610429565b905061029f565b61029e61012b565b5b90565b6102aa61045e565b73ffffffffffffffffffffffffffffffffffffffff163373ffffffffffffffffffffffffffffffffffffffff1614156102eb576102e6816104e1565b6102f4565b6102f361012b565b5b50565b600061030161045e565b73ffffffffffffffffffffffffffffffffffffffff163373ffffffffffffffffffffffffffffffffffffffff1614156103435761033c61045e565b905061034c565b61034b61012b565b5b90565b60606103748383604051806060016040528060278152602001610da76027913961052d565b905092915050565b6000819050919050565b6000808273ffffffffffffffffffffffffffffffffffffffff163b119050919050565b6103b161045e565b73ffffffffffffffffffffffffffffffffffffffff163373ffffffffffffffffffffffffffffffffffffffff16141561041f576040517f08c379a000000000000000000000000000000000000000000000000000000000815260040161041690610b65565b60405180910390fd5b6104276105fa565b565b60006104336105fc565b905090565b3660008037600080366000845af43d6000803e8060008114610459573d6000f35b3d6000fd5b600061048c7fb53127684a568b3173ae13b9f8a6016e243e63b6e8ee1178d6a717850b5d610360001b61037c565b60000160009054906101000a900473ffffffffffffffffffffffffffffffffffffffff16905090565b6104be83610653565b6000825111806104cb5750805b156104dc576104da838361034f565b505b505050565b7f7e644d79422f17c01e4894b5f4f588d331ebfa28653d42ae832dc59e38c9798f61050a61045e565b82604051610519929190610aba565b60405180910390a161052a816106a2565b50565b606061053884610386565b610577576040517f08c379a000000000000000000000000000000000000000000000000000000000815260040161056e90610b45565b60405180910390fd5b6000808573ffffffffffffffffffffffffffffffffffffffff168560405161059f9190610a88565b600060405180830381855af49150503d80600081146105da576040519150601f19603f3d011682016040523d82523d6000602084013e6105df565b606091505b50915091506105ef828286610783565b925050509392505050565b565b600061062a7f360894a13ba1a3210667c828492db98dca3e2076cc3735a920a3ca505d382bbc60001b61037c565b60000160009054906101000a900473ffffffffffffffffffffffffffffffffffffffff16905090565b61065c816107ea565b8073ffffffffffffffffffffffffffffffffffffffff167fbc7cd75a20ee27fd9adebab32041f755214dbc6bffa90cc0225b39da2e5c2d3b60405160405180910390a250565b600073ffffffffffffffffffffffffffffffffffffffff168173ffffffffffffffffffffffffffffffffffffffff161415610712576040517f08c379a000000000000000000000000000000000000000000000000000000000815260040161070990610b05565b60405180910390fd5b8061073f7fb53127684a568b3173ae13b9f8a6016e243e63b6e8ee1178d6a717850b5d610360001b61037c565b60000160006101000a81548173ffffffffffffffffffffffffffffffffffffffff021916908373ffffffffffffffffffffffffffffffffffffffff16021790555050565b60608315610793578290506107e3565b6000835111156107a65782518084602001fd5b816040517f08c379a00000000000000000000000000000000000000000000000000000000081526004016107da9190610ae3565b60405180910390fd5b9392505050565b6107f381610386565b610832576040517f08c379a000000000000000000000000000000000000000000000000000000000815260040161082990610b25565b60405180910390fd5b8061085f7f360894a13ba1a3210667c828492db98dca3e2076cc3735a920a3ca505d382bbc60001b61037c565b60000160006101000a81548173ffffffffffffffffffffffffffffffffffffffff021916908373ffffffffffffffffffffffffffffffffffffffff16021790555050565b6000813590506108b281610d8f565b92915050565b60008083601f8401126108ca57600080fd5b8235905067ffffffffffffffff8111156108e357600080fd5b6020830191508360018202830111156108fb57600080fd5b9250929050565b60006020828403121561091457600080fd5b6000610922848285016108a3565b91505092915050565b60008060006040848603121561094057600080fd5b600061094e868287016108a3565b935050602084013567ffffffffffffffff81111561096b57600080fd5b610977868287016108b8565b92509250509250925092565b61098c81610bb7565b82525050565b600061099d82610b85565b6109a78185610b9b565b93506109b7818560208601610be9565b80840191505092915050565b60006109ce82610b90565b6109d88185610ba6565b93506109e8818560208601610be9565b6109f181610c1c565b840191505092915050565b6000610a09602683610ba6565b9150610a1482610c2d565b604082019050919050565b6000610a2c602d83610ba6565b9150610a3782610c7c565b604082019050919050565b6000610a4f602683610ba6565b9150610a5a82610ccb565b604082019050919050565b6000610a72604283610ba6565b9150610a7d82610d1a565b606082019050919050565b6000610a948284610992565b915081905092915050565b6000602082019050610ab46000830184610983565b92915050565b6000604082019050610acf6000830185610983565b610adc6020830184610983565b9392505050565b60006020820190508181036000830152610afd81846109c3565b905092915050565b60006020820190508181036000830152610b1e816109fc565b9050919050565b60006020820190508181036000830152610b3e81610a1f565b9050919050565b60006020820190508181036000830152610b5e81610a42565b9050919050565b60006020820190508181036000830152610b7e81610a65565b9050919050565b600081519050919050565b600081519050919050565b600081905092915050565b600082825260208201905092915050565b6000610bc282610bc9565b9050919050565b600073ffffffffffffffffffffffffffffffffffffffff82169050919050565b60005b83811015610c07578082015181840152602081019050610bec565b83811115610c16576000848401525b50505050565b6000601f19601f8301169050919050565b7f455243313936373a206e65772061646d696e20697320746865207a65726f206160008201527f6464726573730000000000000000000000000000000000000000000000000000602082015250565b7f455243313936373a206e657720696d706c656d656e746174696f6e206973206e60008201527f6f74206120636f6e747261637400000000000000000000000000000000000000602082015250565b7f416464726573733a2064656c65676174652063616c6c20746f206e6f6e2d636f60008201527f6e74726163740000000000000000000000000000000000000000000000000000602082015250565b7f5472616e73706172656e745570677261646561626c6550726f78793a2061646d60008201527f696e2063616e6e6f742066616c6c6261636b20746f2070726f7879207461726760208201527f6574000000000000000000000000000000000000000000000000000000000000604082015250565b610d9881610bb7565b8114610da357600080fd5b5056fe416464726573733a206c6f772d6c6576656c2064656c65676174652063616c6c206661696c6564a2646970667358221220a519d442b3c21fc8ed3f347339acbbdb9156ba8d3e20a034cbe6188ea4f5f3f864736f6c63430008040033416464726573733a206c6f772d6c6576656c2064656c65676174652063616c6c206661696c6564a2646970667358221220944a722bfd0c62e2e1d710afcb8a4624b0f0065e1f44754f1e3347aabc5c436c64736f6c63430008040033",
  "devdoc": {
    "kind": "dev",
    "methods": {
      "owner()": {
        "details": "Returns the address of the current owner."
      },
      "renounceOwnership()": {
        "details": "Leaves the contract without owner. It will not be possible to call `onlyOwner` functions anymore. Can only be called by the current owner. NOTE: Renouncing ownership will leave the contract without an owner, thereby removing any functionality that is only available to the owner."
      },
      "transferOwnership(address)": {
        "details": "Transfers ownership of the contract to a new account (`newOwner`). Can only be called by the current owner."
      }
    },
    "version": 1
  },
  "userdoc": {
    "kind": "user",
    "methods": {},
    "version": 1
  },
  "storageLayout": {
    "storage": [
      {
        "astId": 3054,
        "contract": "contracts/l2/L2Tunnel.sol:L2Tunnel",
        "label": "fxChild",
        "offset": 0,
        "slot": "0",
        "type": "t_address"
      },
      {
        "astId": 3056,
        "contract": "contracts/l2/L2Tunnel.sol:L2Tunnel",
        "label": "fxRootTunnel",
        "offset": 0,
        "slot": "1",
        "type": "t_address"
      },
      {
        "astId": 7,
        "contract": "contracts/l2/L2Tunnel.sol:L2Tunnel",
        "label": "_owner",
        "offset": 0,
        "slot": "2",
        "type": "t_address"
      },
      {
        "astId": 938,
        "contract": "contracts/l2/L2Tunnel.sol:L2Tunnel",
        "label": "_status",
        "offset": 0,
        "slot": "3",
        "type": "t_uint256"
      },
      {
        "astId": 2664,
        "contract": "contracts/l2/L2Tunnel.sol:L2Tunnel",
        "label": "cloneAbleERC721",
        "offset": 0,
        "slot": "4",
        "type": "t_address"
      },
      {
        "astId": 2667,
        "contract": "contracts/l2/L2Tunnel.sol:L2Tunnel",
        "label": "proxyAdmin",
        "offset": 0,
        "slot": "5",
        "type": "t_contract(ProxyAdmin)763"
      },
      {
        "astId": 2701,
        "contract": "contracts/l2/L2Tunnel.sol:L2Tunnel",
        "label": "mappedTokens",
        "offset": 0,
        "slot": "6",
        "type": "t_mapping(t_address,t_address)"
      },
      {
        "astId": 2705,
        "contract": "contracts/l2/L2Tunnel.sol:L2Tunnel",
        "label": "fromL1mappedTokens",
        "offset": 0,
        "slot": "7",
        "type": "t_mapping(t_address,t_address)"
      },
      {
        "astId": 2709,
        "contract": "contracts/l2/L2Tunnel.sol:L2Tunnel",
        "label": "mappedTokenMessageData",
        "offset": 0,
        "slot": "8",
        "type": "t_mapping(t_address,t_bytes_storage)"
      }
    ],
    "types": {
      "t_address": {
        "encoding": "inplace",
        "label": "address",
        "numberOfBytes": "20"
      },
      "t_bytes_storage": {
        "encoding": "bytes",
        "label": "bytes",
        "numberOfBytes": "32"
      },
      "t_contract(ProxyAdmin)763": {
        "encoding": "inplace",
        "label": "contract ProxyAdmin",
        "numberOfBytes": "20"
      },
      "t_mapping(t_address,t_address)": {
        "encoding": "mapping",
        "key": "t_address",
        "label": "mapping(address => address)",
        "numberOfBytes": "32",
        "value": "t_address"
      },
      "t_mapping(t_address,t_bytes_storage)": {
        "encoding": "mapping",
        "key": "t_address",
        "label": "mapping(address => bytes)",
        "numberOfBytes": "32",
        "value": "t_bytes_storage"
      },
      "t_uint256": {
        "encoding": "inplace",
        "label": "uint256",
        "numberOfBytes": "32"
      }
    }
  }
}