{
  "address": "0xc231880Eb45FCA79D8fcC52B856e8e2c7948ca98",
  "abi": [
    {
      "inputs": [
        {
          "internalType": "address",
          "name": "_fxChild",
          "type": "address"
        },
        {
          "internalType": "contract ProxyAdmin",
          "name": "_proxyAdmin",
          "type": "address"
        },
        {
          "internalType": "address",
          "name": "_cloneAbleERC721",
          "type": "address"
        }
      ],
      "stateMutability": "nonpayable",
      "type": "constructor"
    },
    {
      "anonymous": false,
      "inputs": [
        {
          "indexed": false,
          "internalType": "address",
          "name": "L1Token",
          "type": "address"
        },
        {
          "indexed": false,
          "internalType": "address",
          "name": "L2Token",
          "type": "address"
        },
        {
          "indexed": false,
          "internalType": "address",
          "name": "from",
          "type": "address"
        }
      ],
      "name": "L2MappingMappedERC721",
      "type": "event"
    },
    {
      "anonymous": false,
      "inputs": [
        {
          "indexed": false,
          "internalType": "bytes",
          "name": "message",
          "type": "bytes"
        }
      ],
      "name": "MessageSent",
      "type": "event"
    },
    {
      "anonymous": false,
      "inputs": [
        {
          "indexed": true,
          "internalType": "address",
          "name": "previousOwner",
          "type": "address"
        },
        {
          "indexed": true,
          "internalType": "address",
          "name": "newOwner",
          "type": "address"
        }
      ],
      "name": "OwnershipTransferred",
      "type": "event"
    },
    {
      "inputs": [],
      "name": "cloneAbleERC721",
      "outputs": [
        {
          "internalType": "address",
          "name": "",
          "type": "address"
        }
      ],
      "stateMutability": "view",
      "type": "function"
    },
    {
      "inputs": [
        {
          "internalType": "address",
          "name": "",
          "type": "address"
        }
      ],
      "name": "fromL1mappedTokens",
      "outputs": [
        {
          "internalType": "address",
          "name": "",
          "type": "address"
        }
      ],
      "stateMutability": "view",
      "type": "function"
    },
    {
      "inputs": [],
      "name": "fxChild",
      "outputs": [
        {
          "internalType": "address",
          "name": "",
          "type": "address"
        }
      ],
      "stateMutability": "view",
      "type": "function"
    },
    {
      "inputs": [],
      "name": "fxRootTunnel",
      "outputs": [
        {
          "internalType": "address",
          "name": "",
          "type": "address"
        }
      ],
      "stateMutability": "view",
      "type": "function"
    },
    {
      "inputs": [
        {
          "internalType": "address",
          "name": "",
          "type": "address"
        }
      ],
      "name": "mappedTokens",
      "outputs": [
        {
          "internalType": "address",
          "name": "",
          "type": "address"
        }
      ],
      "stateMutability": "view",
      "type": "function"
    },
    {
      "inputs": [],
      "name": "owner",
      "outputs": [
        {
          "internalType": "address",
          "name": "",
          "type": "address"
        }
      ],
      "stateMutability": "view",
      "type": "function"
    },
    {
      "inputs": [
        {
          "internalType": "uint256",
          "name": "stateId",
          "type": "uint256"
        },
        {
          "internalType": "address",
          "name": "rootMessageSender",
          "type": "address"
        },
        {
          "internalType": "bytes",
          "name": "data",
          "type": "bytes"
        }
      ],
      "name": "processMessageFromRoot",
      "outputs": [],
      "stateMutability": "nonpayable",
      "type": "function"
    },
    {
      "inputs": [],
      "name": "proxyAdmin",
      "outputs": [
        {
          "internalType": "contract ProxyAdmin",
          "name": "",
          "type": "address"
        }
      ],
      "stateMutability": "view",
      "type": "function"
    },
    {
      "inputs": [],
      "name": "renounceOwnership",
      "outputs": [],
      "stateMutability": "nonpayable",
      "type": "function"
    },
    {
      "inputs": [
        {
          "internalType": "address",
          "name": "_fxRootTunnel",
          "type": "address"
        }
      ],
      "name": "setFxRootTunnel",
      "outputs": [],
      "stateMutability": "nonpayable",
      "type": "function"
    },
    {
      "inputs": [
        {
          "internalType": "address",
          "name": "newOwner",
          "type": "address"
        }
      ],
      "name": "transferOwnership",
      "outputs": [],
      "stateMutability": "nonpayable",
      "type": "function"
    }
  ],
  "transactionHash": "0xbbbe8d087ed146469bb3439a6d1e07b908e69605567a0174c694e5220ec63dd1",
  "args": [
    "0xCf73231F28B7331BBe3124B907840A94851f9f11",
    "0xc3d7e9eeA0d9033EB3884AEBE500B6a20C3181F1",
    "0x44792DA39E7901267DA74f166CBd116BbC3d1aB9"
  ],
  "numDeployments": 1,
  "solcInputHash": "0fcaf86a5234caee7f891bbaf54e2172",
  "bytecode": "0x60806040523480156200001157600080fd5b506040516200369838038062003698833981810160405281019062000037919062000220565b82806000806101000a81548173ffffffffffffffffffffffffffffffffffffffff021916908373ffffffffffffffffffffffffffffffffffffffff16021790555050620000996200008d6200012460201b60201c565b6200012c60201b60201c565b81600460006101000a81548173ffffffffffffffffffffffffffffffffffffffff021916908373ffffffffffffffffffffffffffffffffffffffff16021790555080600360006101000a81548173ffffffffffffffffffffffffffffffffffffffff021916908373ffffffffffffffffffffffffffffffffffffffff160217905550505050620002f2565b600033905090565b6000600260009054906101000a900473ffffffffffffffffffffffffffffffffffffffff16905081600260006101000a81548173ffffffffffffffffffffffffffffffffffffffff021916908373ffffffffffffffffffffffffffffffffffffffff1602179055508173ffffffffffffffffffffffffffffffffffffffff168173ffffffffffffffffffffffffffffffffffffffff167f8be0079c531659141344cd1fd0a4f28419497f9722a3daafe3b4186f6b6457e060405160405180910390a35050565b6000815190506200020381620002be565b92915050565b6000815190506200021a81620002d8565b92915050565b6000806000606084860312156200023657600080fd5b60006200024686828701620001f2565b9350506020620002598682870162000209565b92505060406200026c86828701620001f2565b9150509250925092565b600062000283826200029e565b9050919050565b6000620002978262000276565b9050919050565b600073ffffffffffffffffffffffffffffffffffffffff82169050919050565b620002c98162000276565b8114620002d557600080fd5b50565b620002e3816200028a565b8114620002ef57600080fd5b50565b61339680620003026000396000f3fe60806040523480156200001157600080fd5b5060043610620000b85760003560e01c80637f1e9cb0116200007b5780637f1e9cb014620001655780638883709414620001875780638da5cb5b14620001a75780639a7c4b7114620001c9578063e6ede14d14620001e9578063f2fde38b146200021f57620000b8565b806316f6db6914620000bd5780633e47158c14620000df578063450d11f014620001015780634c04cc901462000123578063715018a61462000159575b600080fd5b620000c76200023f565b604051620000d691906200131f565b60405180910390f35b620000e962000265565b604051620000f89190620013e1565b60405180910390f35b6200010b6200028b565b6040516200011a91906200131f565b60405180910390f35b6200014160048036038101906200013b919062000f68565b620002af565b6040516200015091906200131f565b60405180910390f35b62000163620002e2565b005b6200016f62000373565b6040516200017e91906200131f565b60405180910390f35b620001a560048036038101906200019f919062000f68565b62000399565b005b620001b162000471565b604051620001c091906200131f565b60405180910390f35b620001e76004803603810190620001e1919062001033565b6200049b565b005b62000207600480360381019062000201919062000f68565b62000583565b6040516200021691906200131f565b60405180910390f35b6200023d600480360381019062000237919062000f68565b620005b6565b005b600360009054906101000a900473ffffffffffffffffffffffffffffffffffffffff1681565b600460009054906101000a900473ffffffffffffffffffffffffffffffffffffffff1681565b60008054906101000a900473ffffffffffffffffffffffffffffffffffffffff1681565b60066020528060005260406000206000915054906101000a900473ffffffffffffffffffffffffffffffffffffffff1681565b620002ec620006ba565b73ffffffffffffffffffffffffffffffffffffffff166200030c62000471565b73ffffffffffffffffffffffffffffffffffffffff161462000365576040517f08c379a00000000000000000000000000000000000000000000000000000000081526004016200035c90620014bf565b60405180910390fd5b620003716000620006c2565b565b600160009054906101000a900473ffffffffffffffffffffffffffffffffffffffff1681565b600073ffffffffffffffffffffffffffffffffffffffff16600160009054906101000a900473ffffffffffffffffffffffffffffffffffffffff1673ffffffffffffffffffffffffffffffffffffffff16146200042d576040517f08c379a0000000000000000000000000000000000000000000000000000000008152600401620004249062001503565b60405180910390fd5b80600160006101000a81548173ffffffffffffffffffffffffffffffffffffffff021916908373ffffffffffffffffffffffffffffffffffffffff16021790555050565b6000600260009054906101000a900473ffffffffffffffffffffffffffffffffffffffff16905090565b60008054906101000a900473ffffffffffffffffffffffffffffffffffffffff1673ffffffffffffffffffffffffffffffffffffffff163373ffffffffffffffffffffffffffffffffffffffff16146200052c576040517f08c379a0000000000000000000000000000000000000000000000000000000008152600401620005239062001459565b60405180910390fd5b6200057d848484848080601f016020809104026020016040519081016040528093929190818152602001838380828437600081840152601f19601f8201169050808301925050505050505062000788565b50505050565b60056020528060005260406000206000915054906101000a900473ffffffffffffffffffffffffffffffffffffffff1681565b620005c0620006ba565b73ffffffffffffffffffffffffffffffffffffffff16620005e062000471565b73ffffffffffffffffffffffffffffffffffffffff161462000639576040517f08c379a00000000000000000000000000000000000000000000000000000000081526004016200063090620014bf565b60405180910390fd5b600073ffffffffffffffffffffffffffffffffffffffff168173ffffffffffffffffffffffffffffffffffffffff161415620006ac576040517f08c379a0000000000000000000000000000000000000000000000000000000008152600401620006a3906200147b565b60405180910390fd5b620006b781620006c2565b50565b600033905090565b6000600260009054906101000a900473ffffffffffffffffffffffffffffffffffffffff16905081600260006101000a81548173ffffffffffffffffffffffffffffffffffffffff021916908373ffffffffffffffffffffffffffffffffffffffff1602179055508173ffffffffffffffffffffffffffffffffffffffff168173ffffffffffffffffffffffffffffffffffffffff167f8be0079c531659141344cd1fd0a4f28419497f9722a3daafe3b4186f6b6457e060405160405180910390a35050565b60008082806020019051810190620007a1919062000f94565b9150915060006001811115620007e0577f4e487b7100000000000000000000000000000000000000000000000000000000600052602160045260246000fd5b8260018111156200081a577f4e487b7100000000000000000000000000000000000000000000000000000000600052602160045260246000fd5b1415620008625760008180602001905181019062000839919062000fee565b9050620008598160000151826040015183606001518460800151620008a4565b5050506200089f565b6040517f08c379a00000000000000000000000000000000000000000000000000000000081526004016200089690620014e1565b60405180910390fd5b505050565b6000620008d3600360009054906101000a900473ffffffffffffffffffffffffffffffffffffffff1662000bf2565b9050600081600460009054906101000a900473ffffffffffffffffffffffffffffffffffffffff16638f15b41460e01b878730886040516024016200091c9493929190620013fe565b604051602081830303815290604052907bffffffffffffffffffffffffffffffffffffffffffffffffffffffff19166020820180517bffffffffffffffffffffffffffffffffffffffffffffffffffffffff8381831617835250505050604051620009879062000d06565b620009959392919062001379565b604051809103906000f080158015620009b2573d6000803e3d6000fd5b50905085600560008373ffffffffffffffffffffffffffffffffffffffff1673ffffffffffffffffffffffffffffffffffffffff16815260200190815260200160002060006101000a81548173ffffffffffffffffffffffffffffffffffffffff021916908373ffffffffffffffffffffffffffffffffffffffff16021790555080600660008873ffffffffffffffffffffffffffffffffffffffff1673ffffffffffffffffffffffffffffffffffffffff16815260200190815260200160002060006101000a81548173ffffffffffffffffffffffffffffffffffffffff021916908373ffffffffffffffffffffffffffffffffffffffff16021790555060006040518060a001604052808873ffffffffffffffffffffffffffffffffffffffff1681526020018373ffffffffffffffffffffffffffffffffffffffff1681526020018781526020018681526020018573ffffffffffffffffffffffffffffffffffffffff1681525060405160200162000b2e919062001525565b6040516020818303038152906040529050600060018081111562000b7b577f4e487b7100000000000000000000000000000000000000000000000000000000600052602160045260246000fd5b8260405160200162000b8f92919062001549565b60405160208183030381529060405290507f341d8784abaeeea2ecfc66b53a41a833aebde67d0b2ae3496b5e5780173f569c88848760405162000bd5939291906200133c565b60405180910390a162000be88162000cca565b5050505050505050565b60006040517f3d602d80600a3d3981f3363d3d373d3d3d363d7300000000000000000000000081528260601b60148201527f5af43d82803e903d91602b57fd5bf3000000000000000000000000000000000060288201526037816000f0915050600073ffffffffffffffffffffffffffffffffffffffff168173ffffffffffffffffffffffffffffffffffffffff16141562000cc5576040517f08c379a000000000000000000000000000000000000000000000000000000000815260040162000cbc906200149d565b60405180910390fd5b919050565b7f8c5261668696ce22758910d05bab8f186d6eb247ceac2af2e82c7dc17669b0368160405162000cfb9190620013bd565b60405180910390a150565b611a39806200192883390190565b600062000d2b62000d2584620015a6565b6200157d565b90508281526020810184848401111562000d4457600080fd5b62000d51848285620016ce565b509392505050565b600062000d7062000d6a84620015dc565b6200157d565b90508281526020810184848401111562000d8957600080fd5b62000d96848285620016ce565b509392505050565b60008135905062000daf81620018e2565b92915050565b60008151905062000dc681620018e2565b92915050565b60008083601f84011262000ddf57600080fd5b8235905067ffffffffffffffff81111562000df957600080fd5b60208301915083600182028301111562000e1257600080fd5b9250929050565b600082601f83011262000e2b57600080fd5b815162000e3d84826020860162000d14565b91505092915050565b60008151905062000e5781620018fc565b92915050565b600082601f83011262000e6f57600080fd5b815162000e8184826020860162000d59565b91505092915050565b600060a0828403121562000e9d57600080fd5b62000ea960a06200157d565b9050600062000ebb8482850162000db5565b600083015250602062000ed18482850162000db5565b602083015250604082015167ffffffffffffffff81111562000ef257600080fd5b62000f008482850162000e5d565b604083015250606082015167ffffffffffffffff81111562000f2157600080fd5b62000f2f8482850162000e5d565b606083015250608062000f458482850162000db5565b60808301525092915050565b60008135905062000f62816200190d565b92915050565b60006020828403121562000f7b57600080fd5b600062000f8b8482850162000d9e565b91505092915050565b6000806040838503121562000fa857600080fd5b600062000fb88582860162000e46565b925050602083015167ffffffffffffffff81111562000fd657600080fd5b62000fe48582860162000e19565b9150509250929050565b6000602082840312156200100157600080fd5b600082015167ffffffffffffffff8111156200101c57600080fd5b6200102a8482850162000e8a565b91505092915050565b600080600080606085870312156200104a57600080fd5b60006200105a8782880162000f51565b94505060206200106d8782880162000d9e565b935050604085013567ffffffffffffffff8111156200108b57600080fd5b620010998782880162000dcc565b925092505092959194509250565b620010b2816200165b565b82525050565b620010c3816200165b565b82525050565b6000620010d68262001612565b620010e2818562001628565b9350620010f4818560208601620016ce565b620010ff8162001769565b840191505092915050565b6200111581620016a6565b82525050565b600062001128826200161d565b62001134818562001639565b935062001146818560208601620016ce565b620011518162001769565b840191505092915050565b600062001169826200161d565b6200117581856200164a565b935062001187818560208601620016ce565b620011928162001769565b840191505092915050565b6000620011ac6021836200164a565b9150620011b9826200177a565b604082019050919050565b6000620011d36026836200164a565b9150620011e082620017c9565b604082019050919050565b6000620011fa6016836200164a565b9150620012078262001818565b602082019050919050565b6000620012216020836200164a565b91506200122e8262001841565b602082019050919050565b600062001248600c836200164a565b915062001255826200186a565b602082019050919050565b60006200126f602a836200164a565b91506200127c8262001893565b604082019050919050565b600060a083016000830151620012a16000860182620010a7565b506020830151620012b66020860182620010a7565b5060408301518482036040860152620012d082826200111b565b91505060608301518482036060860152620012ec82826200111b565b9150506080830151620013036080860182620010a7565b508091505092915050565b620013198162001699565b82525050565b6000602082019050620013366000830184620010b8565b92915050565b6000606082019050620013536000830186620010b8565b620013626020830185620010b8565b620013716040830184620010b8565b949350505050565b6000606082019050620013906000830186620010b8565b6200139f6020830185620010b8565b8181036040830152620013b38184620010c9565b9050949350505050565b60006020820190508181036000830152620013d98184620010c9565b905092915050565b6000602082019050620013f860008301846200110a565b92915050565b600060808201905081810360008301526200141a81876200115c565b905081810360208301526200143081866200115c565b9050620014416040830185620010b8565b620014506060830184620010b8565b95945050505050565b6000602082019050818103600083015262001474816200119d565b9050919050565b600060208201905081810360008301526200149681620011c4565b9050919050565b60006020820190508181036000830152620014b881620011eb565b9050919050565b60006020820190508181036000830152620014da8162001212565b9050919050565b60006020820190508181036000830152620014fc8162001239565b9050919050565b600060208201905081810360008301526200151e8162001260565b9050919050565b6000602082019050818103600083015262001541818462001287565b905092915050565b60006040820190506200156060008301856200130e565b8181036020830152620015748184620010c9565b90509392505050565b6000620015896200159c565b905062001597828262001704565b919050565b6000604051905090565b600067ffffffffffffffff821115620015c457620015c36200173a565b5b620015cf8262001769565b9050602081019050919050565b600067ffffffffffffffff821115620015fa57620015f96200173a565b5b620016058262001769565b9050602081019050919050565b600081519050919050565b600081519050919050565b600082825260208201905092915050565b600082825260208201905092915050565b600082825260208201905092915050565b600062001668826200166f565b9050919050565b600073ffffffffffffffffffffffffffffffffffffffff82169050919050565b6000819050919050565b600060ff82169050919050565b6000620016b382620016ba565b9050919050565b6000620016c7826200166f565b9050919050565b60005b83811015620016ee578082015181840152602081019050620016d1565b83811115620016fe576000848401525b50505050565b6200170f8262001769565b810181811067ffffffffffffffff821117156200173157620017306200173a565b5b80604052505050565b7f4e487b7100000000000000000000000000000000000000000000000000000000600052604160045260246000fd5b6000601f19601f8301169050919050565b7f4678426173654368696c6454756e6e656c3a20494e56414c49445f53454e444560008201527f5200000000000000000000000000000000000000000000000000000000000000602082015250565b7f4f776e61626c653a206e6577206f776e657220697320746865207a65726f206160008201527f6464726573730000000000000000000000000000000000000000000000000000602082015250565b7f455243313136373a20637265617465206661696c656400000000000000000000600082015250565b7f4f776e61626c653a2063616c6c6572206973206e6f7420746865206f776e6572600082015250565b7f496e76616c696420747970650000000000000000000000000000000000000000600082015250565b7f4678426173654368696c6454756e6e656c3a20524f4f545f54554e4e454c5f4160008201527f4c52454144595f53455400000000000000000000000000000000000000000000602082015250565b620018ed816200165b565b8114620018f957600080fd5b50565b600281106200190a57600080fd5b50565b62001918816200168f565b81146200192457600080fd5b5056fe608060405260405162001a3938038062001a398339818101604052810190620000299190620006d6565b828160017f360894a13ba1a3210667c828492db98dca3e2076cc3735a920a3ca505d382bbd60001c6200005d9190620009a4565b60001b7f360894a13ba1a3210667c828492db98dca3e2076cc3735a920a3ca505d382bbc60001b14620000b9577f4e487b7100000000000000000000000000000000000000000000000000000000600052600160045260246000fd5b620000cd828260006200017760201b60201c565b505060017fb53127684a568b3173ae13b9f8a6016e243e63b6e8ee1178d6a717850b5d610460001c620001019190620009a4565b60001b7fb53127684a568b3173ae13b9f8a6016e243e63b6e8ee1178d6a717850b5d610360001b146200015d577f4e487b7100000000000000000000000000000000000000000000000000000000600052600160045260246000fd5b6200016e82620001ba60201b60201c565b50505062000bff565b62000188836200021860201b60201c565b600082511180620001965750805b15620001b557620001b383836200026f60201b6200034f1760201c565b505b505050565b7f7e644d79422f17c01e4894b5f4f588d331ebfa28653d42ae832dc59e38c9798f620001eb620002a560201b60201c565b82604051620001fc9291906200085c565b60405180910390a162000215816200030960201b60201c565b50565b6200022981620003fa60201b60201c565b8073ffffffffffffffffffffffffffffffffffffffff167fbc7cd75a20ee27fd9adebab32041f755214dbc6bffa90cc0225b39da2e5c2d3b60405160405180910390a250565b60606200029d838360405180606001604052806027815260200162001a1260279139620004d060201b60201c565b905092915050565b6000620002e07fb53127684a568b3173ae13b9f8a6016e243e63b6e8ee1178d6a717850b5d610360001b620005b460201b6200037c1760201c565b60000160009054906101000a900473ffffffffffffffffffffffffffffffffffffffff16905090565b600073ffffffffffffffffffffffffffffffffffffffff168173ffffffffffffffffffffffffffffffffffffffff1614156200037c576040517f08c379a00000000000000000000000000000000000000000000000000000000081526004016200037390620008ad565b60405180910390fd5b80620003b67fb53127684a568b3173ae13b9f8a6016e243e63b6e8ee1178d6a717850b5d610360001b620005b460201b6200037c1760201c565b60000160006101000a81548173ffffffffffffffffffffffffffffffffffffffff021916908373ffffffffffffffffffffffffffffffffffffffff16021790555050565b6200041081620005be60201b620003861760201c565b62000452576040517f08c379a00000000000000000000000000000000000000000000000000000000081526004016200044990620008cf565b60405180910390fd5b806200048c7f360894a13ba1a3210667c828492db98dca3e2076cc3735a920a3ca505d382bbc60001b620005b460201b6200037c1760201c565b60000160006101000a81548173ffffffffffffffffffffffffffffffffffffffff021916908373ffffffffffffffffffffffffffffffffffffffff16021790555050565b6060620004e384620005be60201b60201c565b62000525576040517f08c379a00000000000000000000000000000000000000000000000000000000081526004016200051c90620008f1565b60405180910390fd5b6000808573ffffffffffffffffffffffffffffffffffffffff16856040516200054f919062000843565b600060405180830381855af49150503d80600081146200058c576040519150601f19603f3d011682016040523d82523d6000602084013e62000591565b606091505b5091509150620005a9828286620005e160201b60201c565b925050509392505050565b6000819050919050565b6000808273ffffffffffffffffffffffffffffffffffffffff163b119050919050565b60608315620005f35782905062000646565b600083511115620006075782518084602001fd5b816040517f08c379a00000000000000000000000000000000000000000000000000000000081526004016200063d919062000889565b60405180910390fd5b9392505050565b6000620006646200065e846200093c565b62000913565b9050828152602081018484840111156200067d57600080fd5b6200068a84828562000a1d565b509392505050565b600081519050620006a38162000be5565b92915050565b600082601f830112620006bb57600080fd5b8151620006cd8482602086016200064d565b91505092915050565b600080600060608486031215620006ec57600080fd5b6000620006fc8682870162000692565b93505060206200070f8682870162000692565b925050604084015167ffffffffffffffff8111156200072d57600080fd5b6200073b86828701620006a9565b9150509250925092565b6200075081620009df565b82525050565b6000620007638262000972565b6200076f818562000988565b93506200078181856020860162000a1d565b80840191505092915050565b60006200079a826200097d565b620007a6818562000993565b9350620007b881856020860162000a1d565b620007c38162000ae7565b840191505092915050565b6000620007dd60268362000993565b9150620007ea8262000af8565b604082019050919050565b600062000804602d8362000993565b9150620008118262000b47565b604082019050919050565b60006200082b60268362000993565b9150620008388262000b96565b604082019050919050565b600062000851828462000756565b915081905092915050565b600060408201905062000873600083018562000745565b62000882602083018462000745565b9392505050565b60006020820190508181036000830152620008a581846200078d565b905092915050565b60006020820190508181036000830152620008c881620007ce565b9050919050565b60006020820190508181036000830152620008ea81620007f5565b9050919050565b600060208201905081810360008301526200090c816200081c565b9050919050565b60006200091f62000932565b90506200092d828262000a53565b919050565b6000604051905090565b600067ffffffffffffffff8211156200095a576200095962000ab8565b5b620009658262000ae7565b9050602081019050919050565b600081519050919050565b600081519050919050565b600081905092915050565b600082825260208201905092915050565b6000620009b18262000a13565b9150620009be8362000a13565b925082821015620009d457620009d362000a89565b5b828203905092915050565b6000620009ec82620009f3565b9050919050565b600073ffffffffffffffffffffffffffffffffffffffff82169050919050565b6000819050919050565b60005b8381101562000a3d57808201518184015260208101905062000a20565b8381111562000a4d576000848401525b50505050565b62000a5e8262000ae7565b810181811067ffffffffffffffff8211171562000a805762000a7f62000ab8565b5b80604052505050565b7f4e487b7100000000000000000000000000000000000000000000000000000000600052601160045260246000fd5b7f4e487b7100000000000000000000000000000000000000000000000000000000600052604160045260246000fd5b6000601f19601f8301169050919050565b7f455243313936373a206e65772061646d696e20697320746865207a65726f206160008201527f6464726573730000000000000000000000000000000000000000000000000000602082015250565b7f455243313936373a206e657720696d706c656d656e746174696f6e206973206e60008201527f6f74206120636f6e747261637400000000000000000000000000000000000000602082015250565b7f416464726573733a2064656c65676174652063616c6c20746f206e6f6e2d636f60008201527f6e74726163740000000000000000000000000000000000000000000000000000602082015250565b62000bf081620009df565b811462000bfc57600080fd5b50565b610e038062000c0f6000396000f3fe60806040526004361061004e5760003560e01c80633659cfe6146100675780634f1ef286146100905780635c60da1b146100ac5780638f283970146100d7578063f851a440146101005761005d565b3661005d5761005b61012b565b005b61006561012b565b005b34801561007357600080fd5b5061008e60048036038101906100899190610902565b610145565b005b6100aa60048036038101906100a5919061092b565b6101ac565b005b3480156100b857600080fd5b506100c161024a565b6040516100ce9190610a9f565b60405180910390f35b3480156100e357600080fd5b506100fe60048036038101906100f99190610902565b6102a2565b005b34801561010c57600080fd5b506101156102f7565b6040516101229190610a9f565b60405180910390f35b6101336103a9565b61014361013e610429565b610438565b565b61014d61045e565b73ffffffffffffffffffffffffffffffffffffffff163373ffffffffffffffffffffffffffffffffffffffff1614156101a05761019b816040518060200160405280600081525060006104b5565b6101a9565b6101a861012b565b5b50565b6101b461045e565b73ffffffffffffffffffffffffffffffffffffffff163373ffffffffffffffffffffffffffffffffffffffff16141561023c576102378383838080601f016020809104026020016040519081016040528093929190818152602001838380828437600081840152601f19601f8201169050808301925050505050505060016104b5565b610245565b61024461012b565b5b505050565b600061025461045e565b73ffffffffffffffffffffffffffffffffffffffff163373ffffffffffffffffffffffffffffffffffffffff1614156102965761028f610429565b905061029f565b61029e61012b565b5b90565b6102aa61045e565b73ffffffffffffffffffffffffffffffffffffffff163373ffffffffffffffffffffffffffffffffffffffff1614156102eb576102e6816104e1565b6102f4565b6102f361012b565b5b50565b600061030161045e565b73ffffffffffffffffffffffffffffffffffffffff163373ffffffffffffffffffffffffffffffffffffffff1614156103435761033c61045e565b905061034c565b61034b61012b565b5b90565b60606103748383604051806060016040528060278152602001610da76027913961052d565b905092915050565b6000819050919050565b6000808273ffffffffffffffffffffffffffffffffffffffff163b119050919050565b6103b161045e565b73ffffffffffffffffffffffffffffffffffffffff163373ffffffffffffffffffffffffffffffffffffffff16141561041f576040517f08c379a000000000000000000000000000000000000000000000000000000000815260040161041690610b65565b60405180910390fd5b6104276105fa565b565b60006104336105fc565b905090565b3660008037600080366000845af43d6000803e8060008114610459573d6000f35b3d6000fd5b600061048c7fb53127684a568b3173ae13b9f8a6016e243e63b6e8ee1178d6a717850b5d610360001b61037c565b60000160009054906101000a900473ffffffffffffffffffffffffffffffffffffffff16905090565b6104be83610653565b6000825111806104cb5750805b156104dc576104da838361034f565b505b505050565b7f7e644d79422f17c01e4894b5f4f588d331ebfa28653d42ae832dc59e38c9798f61050a61045e565b82604051610519929190610aba565b60405180910390a161052a816106a2565b50565b606061053884610386565b610577576040517f08c379a000000000000000000000000000000000000000000000000000000000815260040161056e90610b45565b60405180910390fd5b6000808573ffffffffffffffffffffffffffffffffffffffff168560405161059f9190610a88565b600060405180830381855af49150503d80600081146105da576040519150601f19603f3d011682016040523d82523d6000602084013e6105df565b606091505b50915091506105ef828286610783565b925050509392505050565b565b600061062a7f360894a13ba1a3210667c828492db98dca3e2076cc3735a920a3ca505d382bbc60001b61037c565b60000160009054906101000a900473ffffffffffffffffffffffffffffffffffffffff16905090565b61065c816107ea565b8073ffffffffffffffffffffffffffffffffffffffff167fbc7cd75a20ee27fd9adebab32041f755214dbc6bffa90cc0225b39da2e5c2d3b60405160405180910390a250565b600073ffffffffffffffffffffffffffffffffffffffff168173ffffffffffffffffffffffffffffffffffffffff161415610712576040517f08c379a000000000000000000000000000000000000000000000000000000000815260040161070990610b05565b60405180910390fd5b8061073f7fb53127684a568b3173ae13b9f8a6016e243e63b6e8ee1178d6a717850b5d610360001b61037c565b60000160006101000a81548173ffffffffffffffffffffffffffffffffffffffff021916908373ffffffffffffffffffffffffffffffffffffffff16021790555050565b60608315610793578290506107e3565b6000835111156107a65782518084602001fd5b816040517f08c379a00000000000000000000000000000000000000000000000000000000081526004016107da9190610ae3565b60405180910390fd5b9392505050565b6107f381610386565b610832576040517f08c379a000000000000000000000000000000000000000000000000000000000815260040161082990610b25565b60405180910390fd5b8061085f7f360894a13ba1a3210667c828492db98dca3e2076cc3735a920a3ca505d382bbc60001b61037c565b60000160006101000a81548173ffffffffffffffffffffffffffffffffffffffff021916908373ffffffffffffffffffffffffffffffffffffffff16021790555050565b6000813590506108b281610d8f565b92915050565b60008083601f8401126108ca57600080fd5b8235905067ffffffffffffffff8111156108e357600080fd5b6020830191508360018202830111156108fb57600080fd5b9250929050565b60006020828403121561091457600080fd5b6000610922848285016108a3565b91505092915050565b60008060006040848603121561094057600080fd5b600061094e868287016108a3565b935050602084013567ffffffffffffffff81111561096b57600080fd5b610977868287016108b8565b92509250509250925092565b61098c81610bb7565b82525050565b600061099d82610b85565b6109a78185610b9b565b93506109b7818560208601610be9565b80840191505092915050565b60006109ce82610b90565b6109d88185610ba6565b93506109e8818560208601610be9565b6109f181610c1c565b840191505092915050565b6000610a09602683610ba6565b9150610a1482610c2d565b604082019050919050565b6000610a2c602d83610ba6565b9150610a3782610c7c565b604082019050919050565b6000610a4f602683610ba6565b9150610a5a82610ccb565b604082019050919050565b6000610a72604283610ba6565b9150610a7d82610d1a565b606082019050919050565b6000610a948284610992565b915081905092915050565b6000602082019050610ab46000830184610983565b92915050565b6000604082019050610acf6000830185610983565b610adc6020830184610983565b9392505050565b60006020820190508181036000830152610afd81846109c3565b905092915050565b60006020820190508181036000830152610b1e816109fc565b9050919050565b60006020820190508181036000830152610b3e81610a1f565b9050919050565b60006020820190508181036000830152610b5e81610a42565b9050919050565b60006020820190508181036000830152610b7e81610a65565b9050919050565b600081519050919050565b600081519050919050565b600081905092915050565b600082825260208201905092915050565b6000610bc282610bc9565b9050919050565b600073ffffffffffffffffffffffffffffffffffffffff82169050919050565b60005b83811015610c07578082015181840152602081019050610bec565b83811115610c16576000848401525b50505050565b6000601f19601f8301169050919050565b7f455243313936373a206e65772061646d696e20697320746865207a65726f206160008201527f6464726573730000000000000000000000000000000000000000000000000000602082015250565b7f455243313936373a206e657720696d706c656d656e746174696f6e206973206e60008201527f6f74206120636f6e747261637400000000000000000000000000000000000000602082015250565b7f416464726573733a2064656c65676174652063616c6c20746f206e6f6e2d636f60008201527f6e74726163740000000000000000000000000000000000000000000000000000602082015250565b7f5472616e73706172656e745570677261646561626c6550726f78793a2061646d60008201527f696e2063616e6e6f742066616c6c6261636b20746f2070726f7879207461726760208201527f6574000000000000000000000000000000000000000000000000000000000000604082015250565b610d9881610bb7565b8114610da357600080fd5b5056fe416464726573733a206c6f772d6c6576656c2064656c65676174652063616c6c206661696c6564a2646970667358221220a519d442b3c21fc8ed3f347339acbbdb9156ba8d3e20a034cbe6188ea4f5f3f864736f6c63430008040033416464726573733a206c6f772d6c6576656c2064656c65676174652063616c6c206661696c6564a26469706673582212202bfd5435c3fb5d7f4b3da2509b038019b7ad35b01ab61553716ddd600d82fd9a64736f6c63430008040033",
  "devdoc": {
    "kind": "dev",
    "methods": {
      "owner()": {
        "details": "Returns the address of the current owner."
      },
      "renounceOwnership()": {
        "details": "Leaves the contract without owner. It will not be possible to call `onlyOwner` functions anymore. Can only be called by the current owner. NOTE: Renouncing ownership will leave the contract without an owner, thereby removing any functionality that is only available to the owner."
      },
      "transferOwnership(address)": {
        "details": "Transfers ownership of the contract to a new account (`newOwner`). Can only be called by the current owner."
      }
    },
    "version": 1
  },
  "userdoc": {
    "kind": "user",
    "methods": {},
    "version": 1
  },
  "storageLayout": {
    "storage": [
      {
        "astId": 4995,
        "contract": "contracts/l2/L2Tunnel.sol:L2Tunnel",
        "label": "fxChild",
        "offset": 0,
        "slot": "0",
        "type": "t_address"
      },
      {
        "astId": 4997,
        "contract": "contracts/l2/L2Tunnel.sol:L2Tunnel",
        "label": "fxRootTunnel",
        "offset": 0,
        "slot": "1",
        "type": "t_address"
      },
      {
        "astId": 7,
        "contract": "contracts/l2/L2Tunnel.sol:L2Tunnel",
        "label": "_owner",
        "offset": 0,
        "slot": "2",
        "type": "t_address"
      },
      {
        "astId": 2859,
        "contract": "contracts/l2/L2Tunnel.sol:L2Tunnel",
        "label": "cloneAbleERC721",
        "offset": 0,
        "slot": "3",
        "type": "t_address"
      },
      {
        "astId": 2862,
        "contract": "contracts/l2/L2Tunnel.sol:L2Tunnel",
        "label": "proxyAdmin",
        "offset": 0,
        "slot": "4",
        "type": "t_contract(ProxyAdmin)763"
      },
      {
        "astId": 2896,
        "contract": "contracts/l2/L2Tunnel.sol:L2Tunnel",
        "label": "mappedTokens",
        "offset": 0,
        "slot": "5",
        "type": "t_mapping(t_address,t_address)"
      },
      {
        "astId": 2900,
        "contract": "contracts/l2/L2Tunnel.sol:L2Tunnel",
        "label": "fromL1mappedTokens",
        "offset": 0,
        "slot": "6",
        "type": "t_mapping(t_address,t_address)"
      }
    ],
    "types": {
      "t_address": {
        "encoding": "inplace",
        "label": "address",
        "numberOfBytes": "20"
      },
      "t_contract(ProxyAdmin)763": {
        "encoding": "inplace",
        "label": "contract ProxyAdmin",
        "numberOfBytes": "20"
      },
      "t_mapping(t_address,t_address)": {
        "encoding": "mapping",
        "key": "t_address",
        "label": "mapping(address => address)",
        "numberOfBytes": "32",
        "value": "t_address"
      }
    }
  }
}