{
  "address": "0x26aad2E94Eb1B79EFE1C5a65494A0622eADa9BD4",
  "abi": [
    {
      "inputs": [
        {
          "internalType": "address",
          "name": "_checkpointManager",
          "type": "address"
        },
        {
          "internalType": "address",
          "name": "_fxRoot",
          "type": "address"
        }
      ],
      "stateMutability": "nonpayable",
      "type": "constructor"
    },
    {
      "anonymous": false,
      "inputs": [
        {
          "indexed": false,
          "internalType": "address",
          "name": "L1Token",
          "type": "address"
        },
        {
          "indexed": false,
          "internalType": "address",
          "name": "from",
          "type": "address"
        }
      ],
      "name": "L1MappingInitERC721",
      "type": "event"
    },
    {
      "anonymous": false,
      "inputs": [
        {
          "indexed": false,
          "internalType": "address",
          "name": "L1Token",
          "type": "address"
        },
        {
          "indexed": false,
          "internalType": "address",
          "name": "L2Token",
          "type": "address"
        },
        {
          "indexed": false,
          "internalType": "address",
          "name": "from",
          "type": "address"
        }
      ],
      "name": "L1MappingMappedERC721",
      "type": "event"
    },
    {
      "anonymous": false,
      "inputs": [
        {
          "indexed": true,
          "internalType": "address",
          "name": "previousOwner",
          "type": "address"
        },
        {
          "indexed": true,
          "internalType": "address",
          "name": "newOwner",
          "type": "address"
        }
      ],
      "name": "OwnershipTransferred",
      "type": "event"
    },
    {
      "anonymous": false,
      "inputs": [
        {
          "indexed": false,
          "internalType": "bytes",
          "name": "message",
          "type": "bytes"
        },
        {
          "indexed": false,
          "internalType": "uint256",
          "name": "_nonce",
          "type": "uint256"
        }
      ],
      "name": "Received",
      "type": "event"
    },
    {
      "inputs": [],
      "name": "SEND_MESSAGE_EVENT_SIG",
      "outputs": [
        {
          "internalType": "bytes32",
          "name": "",
          "type": "bytes32"
        }
      ],
      "stateMutability": "view",
      "type": "function"
    },
    {
      "inputs": [],
      "name": "checkpointManager",
      "outputs": [
        {
          "internalType": "contract ICheckpointManager",
          "name": "",
          "type": "address"
        }
      ],
      "stateMutability": "view",
      "type": "function"
    },
    {
      "inputs": [],
      "name": "fxChildTunnel",
      "outputs": [
        {
          "internalType": "address",
          "name": "",
          "type": "address"
        }
      ],
      "stateMutability": "view",
      "type": "function"
    },
    {
      "inputs": [],
      "name": "fxRoot",
      "outputs": [
        {
          "internalType": "contract IFxStateSender",
          "name": "",
          "type": "address"
        }
      ],
      "stateMutability": "view",
      "type": "function"
    },
    {
      "inputs": [
        {
          "internalType": "address",
          "name": "L1TokenAddress",
          "type": "address"
        }
      ],
      "name": "mapERC721",
      "outputs": [],
      "stateMutability": "nonpayable",
      "type": "function"
    },
    {
      "inputs": [
        {
          "internalType": "address",
          "name": "",
          "type": "address"
        }
      ],
      "name": "mappedTokenStatus",
      "outputs": [
        {
          "internalType": "enum L1Tunnel.TokenStatus",
          "name": "",
          "type": "uint8"
        }
      ],
      "stateMutability": "view",
      "type": "function"
    },
    {
      "inputs": [
        {
          "internalType": "address",
          "name": "",
          "type": "address"
        }
      ],
      "name": "mappedTokens",
      "outputs": [
        {
          "internalType": "address",
          "name": "",
          "type": "address"
        }
      ],
      "stateMutability": "view",
      "type": "function"
    },
    {
      "inputs": [],
      "name": "owner",
      "outputs": [
        {
          "internalType": "address",
          "name": "",
          "type": "address"
        }
      ],
      "stateMutability": "view",
      "type": "function"
    },
    {
      "inputs": [
        {
          "internalType": "bytes32",
          "name": "",
          "type": "bytes32"
        }
      ],
      "name": "processedExits",
      "outputs": [
        {
          "internalType": "bool",
          "name": "",
          "type": "bool"
        }
      ],
      "stateMutability": "view",
      "type": "function"
    },
    {
      "inputs": [
        {
          "internalType": "bytes",
          "name": "inputData",
          "type": "bytes"
        }
      ],
      "name": "receiveMessage",
      "outputs": [],
      "stateMutability": "nonpayable",
      "type": "function"
    },
    {
      "inputs": [],
      "name": "renounceOwnership",
      "outputs": [],
      "stateMutability": "nonpayable",
      "type": "function"
    },
    {
      "inputs": [
        {
          "internalType": "address",
          "name": "_fxChildTunnel",
          "type": "address"
        }
      ],
      "name": "setFxChildTunnel",
      "outputs": [],
      "stateMutability": "nonpayable",
      "type": "function"
    },
    {
      "inputs": [
        {
          "internalType": "address",
          "name": "newOwner",
          "type": "address"
        }
      ],
      "name": "transferOwnership",
      "outputs": [],
      "stateMutability": "nonpayable",
      "type": "function"
    }
  ],
  "transactionHash": "0x63069605774e4d6ea595d52138001962c22e3457eb0d5ed62d793df5a43465b2",
  "args": [
    "0x2890bA17EfE978480615e330ecB65333b880928e",
    "0x3d1d3E34f7fB6D26245E6640E1c50710eFFf15bA"
  ],
  "numDeployments": 1,
  "solcInputHash": "0fcaf86a5234caee7f891bbaf54e2172",
  "bytecode": "0x60806040523480156200001157600080fd5b506040516200488d3803806200488d8339818101604052810190620000379190620001c9565b818181600160006101000a81548173ffffffffffffffffffffffffffffffffffffffff021916908373ffffffffffffffffffffffffffffffffffffffff160217905550806000806101000a81548173ffffffffffffffffffffffffffffffffffffffff021916908373ffffffffffffffffffffffffffffffffffffffff1602179055505050620000dc620000d0620000e460201b60201c565b620000ec60201b60201c565b505062000258565b600033905090565b6000600460009054906101000a900473ffffffffffffffffffffffffffffffffffffffff16905081600460006101000a81548173ffffffffffffffffffffffffffffffffffffffff021916908373ffffffffffffffffffffffffffffffffffffffff1602179055508173ffffffffffffffffffffffffffffffffffffffff168173ffffffffffffffffffffffffffffffffffffffff167f8be0079c531659141344cd1fd0a4f28419497f9722a3daafe3b4186f6b6457e060405160405180910390a35050565b600081519050620001c3816200023e565b92915050565b60008060408385031215620001dd57600080fd5b6000620001ed85828601620001b2565b92505060206200020085828601620001b2565b9150509250929050565b600062000217826200021e565b9050919050565b600073ffffffffffffffffffffffffffffffffffffffff82169050919050565b62000249816200020a565b81146200025557600080fd5b50565b61462580620002686000396000f3fe608060405234801561001057600080fd5b50600436106100cf5760003560e01c80639f25bb5a1161008c578063de9b771f11610066578063de9b771f146101ee578063e6ede14d1461020c578063f2fde38b1461023c578063f953cec714610258576100cf565b80639f25bb5a14610198578063aea4e49e146101b4578063c0857ba0146101d0576100cf565b80630a1a1968146100d45780630e387de614610104578063607f2d4214610122578063715018a6146101525780638da5cb5b1461015c578063972c49281461017a575b600080fd5b6100ee60048036038101906100e99190613102565b610274565b6040516100fb9190613958565b60405180910390f35b61010c610294565b60405161011991906138bc565b60405180910390f35b61013c6004803603810190610137919061317d565b6102bb565b60405161014991906138a1565b60405180910390f35b61015a6102db565b005b610164610363565b60405161017191906137f6565b60405180910390f35b61018261038d565b60405161018f91906137f6565b60405180910390f35b6101b260048036038101906101ad9190613102565b6103b3565b005b6101ce60048036038101906101c99190613102565b6109d7565b005b6101d8610aac565b6040516101e591906138f2565b60405180910390f35b6101f6610ad2565b604051610203919061390d565b60405180910390f35b61022660048036038101906102219190613102565b610af6565b60405161023391906137f6565b60405180910390f35b61025660048036038101906102519190613102565b610b29565b005b610272600480360381019061026d919061321d565b610c21565b005b60066020528060005260406000206000915054906101000a900460ff1681565b7f8c5261668696ce22758910d05bab8f186d6eb247ceac2af2e82c7dc17669b03660001b81565b60036020528060005260406000206000915054906101000a900460ff1681565b6102e3610c3b565b73ffffffffffffffffffffffffffffffffffffffff16610301610363565b73ffffffffffffffffffffffffffffffffffffffff1614610357576040517f08c379a000000000000000000000000000000000000000000000000000000000815260040161034e90613a13565b60405180910390fd5b6103616000610c43565b565b6000600460009054906101000a900473ffffffffffffffffffffffffffffffffffffffff16905090565b600260009054906101000a900473ffffffffffffffffffffffffffffffffffffffff1681565b6103bb610c3b565b73ffffffffffffffffffffffffffffffffffffffff168173ffffffffffffffffffffffffffffffffffffffff16638da5cb5b6040518163ffffffff1660e01b815260040160206040518083038186803b15801561041757600080fd5b505afa15801561042b573d6000803e3d6000fd5b505050506040513d601f19601f8201168201806040525081019061044f919061312b565b73ffffffffffffffffffffffffffffffffffffffff16146104a5576040517f08c379a000000000000000000000000000000000000000000000000000000000815260040161049c90613a93565b60405180910390fd5b8073ffffffffffffffffffffffffffffffffffffffff166301ffc9a77f80ac58cd000000000000000000000000000000000000000000000000000000006040518263ffffffff1660e01b81526004016104fe91906138d7565b60206040518083038186803b15801561051657600080fd5b505afa15801561052a573d6000803e3d6000fd5b505050506040513d601f19601f8201168201806040525081019061054e9190613154565b80156105ff57508073ffffffffffffffffffffffffffffffffffffffff166301ffc9a77f5b5e139f000000000000000000000000000000000000000000000000000000006040518263ffffffff1660e01b81526004016105ae91906138d7565b60206040518083038186803b1580156105c657600080fd5b505afa1580156105da573d6000803e3d6000fd5b505050506040513d601f19601f820116820180604052508101906105fe9190613154565b5b61063e576040517f08c379a000000000000000000000000000000000000000000000000000000000815260040161063590613a33565b60405180910390fd5b60006002811115610678577f4e487b7100000000000000000000000000000000000000000000000000000000600052602160045260246000fd5b600660008373ffffffffffffffffffffffffffffffffffffffff1673ffffffffffffffffffffffffffffffffffffffff16815260200190815260200160002060009054906101000a900460ff1660028111156106fd577f4e487b7100000000000000000000000000000000000000000000000000000000600052602160045260246000fd5b1461073d576040517f08c379a000000000000000000000000000000000000000000000000000000000815260040161073490613973565b60405180910390fd5b6001600660008373ffffffffffffffffffffffffffffffffffffffff1673ffffffffffffffffffffffffffffffffffffffff16815260200190815260200160002060006101000a81548160ff021916908360028111156107c6577f4e487b7100000000000000000000000000000000000000000000000000000000600052602160045260246000fd5b021790555060006040518060a001604052808373ffffffffffffffffffffffffffffffffffffffff168152602001600073ffffffffffffffffffffffffffffffffffffffff1681526020018373ffffffffffffffffffffffffffffffffffffffff166306fdde036040518163ffffffff1660e01b815260040160006040518083038186803b15801561085757600080fd5b505afa15801561086b573d6000803e3d6000fd5b505050506040513d6000823e3d601f19601f8201168201806040525081019061089491906132f3565b81526020018373ffffffffffffffffffffffffffffffffffffffff166395d89b416040518163ffffffff1660e01b815260040160006040518083038186803b1580156108df57600080fd5b505afa1580156108f3573d6000803e3d6000fd5b505050506040513d6000823e3d601f19601f8201168201806040525081019061091c91906132f3565b8152602001610929610c3b565b73ffffffffffffffffffffffffffffffffffffffff168152506040516020016109529190613b33565b604051602081830303815290604052905060008082604051602001610978929190613928565b60405160208183030381529060405290507f25d6912299d0e59bb6cdb2dc634b244699031f35916f85fc9ddc074faa2c453d836109b3610c3b565b6040516109c1929190613811565b60405180910390a16109d281610d09565b505050565b600073ffffffffffffffffffffffffffffffffffffffff16600260009054906101000a900473ffffffffffffffffffffffffffffffffffffffff1673ffffffffffffffffffffffffffffffffffffffff1614610a68576040517f08c379a0000000000000000000000000000000000000000000000000000000008152600401610a5f90613993565b60405180910390fd5b80600260006101000a81548173ffffffffffffffffffffffffffffffffffffffff021916908373ffffffffffffffffffffffffffffffffffffffff16021790555050565b600160009054906101000a900473ffffffffffffffffffffffffffffffffffffffff1681565b60008054906101000a900473ffffffffffffffffffffffffffffffffffffffff1681565b60056020528060005260406000206000915054906101000a900473ffffffffffffffffffffffffffffffffffffffff1681565b610b31610c3b565b73ffffffffffffffffffffffffffffffffffffffff16610b4f610363565b73ffffffffffffffffffffffffffffffffffffffff1614610ba5576040517f08c379a0000000000000000000000000000000000000000000000000000000008152600401610b9c90613a13565b60405180910390fd5b600073ffffffffffffffffffffffffffffffffffffffff168173ffffffffffffffffffffffffffffffffffffffff161415610c15576040517f08c379a0000000000000000000000000000000000000000000000000000000008152600401610c0c906139b3565b60405180910390fd5b610c1e81610c43565b50565b6000610c2c82610dbb565b9050610c37816110c0565b5050565b600033905090565b6000600460009054906101000a900473ffffffffffffffffffffffffffffffffffffffff16905081600460006101000a81548173ffffffffffffffffffffffffffffffffffffffff021916908373ffffffffffffffffffffffffffffffffffffffff1602179055508173ffffffffffffffffffffffffffffffffffffffff168173ffffffffffffffffffffffffffffffffffffffff167f8be0079c531659141344cd1fd0a4f28419497f9722a3daafe3b4186f6b6457e060405160405180910390a35050565b60008054906101000a900473ffffffffffffffffffffffffffffffffffffffff1673ffffffffffffffffffffffffffffffffffffffff1663b4720477600260009054906101000a900473ffffffffffffffffffffffffffffffffffffffff16836040518363ffffffff1660e01b8152600401610d86929190613871565b600060405180830381600087803b158015610da057600080fd5b505af1158015610db4573d6000803e3d6000fd5b5050505050565b60606000610dc883611310565b90506000610dd582611344565b90506000610de28361139b565b9050600081610df0846113f2565b610df9866116a0565b604051602001610e0b9392919061376f565b604051602081830303815290604052805190602001209050600015156003600083815260200190815260200160002060009054906101000a900460ff16151514610e8a576040517f08c379a0000000000000000000000000000000000000000000000000000000008152600401610e81906139f3565b60405180910390fd5b60016003600083815260200190815260200160002060006101000a81548160ff0219169083151502179055506000610ec1856116f7565b90506000610ece82611868565b9050610ed98161192b565b73ffffffffffffffffffffffffffffffffffffffff16600260009054906101000a900473ffffffffffffffffffffffffffffffffffffffff1673ffffffffffffffffffffffffffffffffffffffff1614610f68576040517f08c379a0000000000000000000000000000000000000000000000000000000008152600401610f5f90613b13565b60405180910390fd5b6000610f7387611982565b9050610f91610f81846119dc565b87610f8b8a6119ea565b84611a41565b610fd0576040517f08c379a0000000000000000000000000000000000000000000000000000000008152600401610fc7906139d3565b60405180910390fd5b610ffe85610fdd89611e77565b610fe68a611ece565b84610ff08c611f28565b610ff98d611f7f565b611fd6565b50600061100a8361212c565b90507f8c5261668696ce22758910d05bab8f186d6eb247ceac2af2e82c7dc17669b03660001b61104c61104760008461219790919063ffffffff16565b6121ec565b60001b1461108f576040517f08c379a000000000000000000000000000000000000000000000000000000000815260040161108690613ad3565b60405180910390fd5b600061109a8461226f565b8060200190518101906110ad919061325e565b9050809950505050505050505050919050565b600080828060200190518101906110d7919061329f565b91509150600180811115611114577f4e487b7100000000000000000000000000000000000000000000000000000000600052602160045260246000fd5b82600181111561114d577f4e487b7100000000000000000000000000000000000000000000000000000000600052602160045260246000fd5b14156112d2576000818060200190518101906111699190613334565b9050600260066000836000015173ffffffffffffffffffffffffffffffffffffffff1673ffffffffffffffffffffffffffffffffffffffff16815260200190815260200160002060006101000a81548160ff021916908360028111156111f8577f4e487b7100000000000000000000000000000000000000000000000000000000600052602160045260246000fd5b0217905550806020015160056000836000015173ffffffffffffffffffffffffffffffffffffffff1673ffffffffffffffffffffffffffffffffffffffff16815260200190815260200160002060006101000a81548173ffffffffffffffffffffffffffffffffffffffff021916908373ffffffffffffffffffffffffffffffffffffffff1602179055507f57ca430506a83a2bf3c8e62d65efad6b0a55147b3dea2d54edee5e8efe9966088160000151826020015183608001516040516112c29392919061383a565b60405180910390a150505061130d565b6040517f08c379a000000000000000000000000000000000000000000000000000000000815260040161130490613af3565b60405180910390fd5b50565b611318612dfe565b600061132b611326846122c6565b6122f4565b9050604051806020016040528082815250915050919050565b60606113948260000151600881518110611387577f4e487b7100000000000000000000000000000000000000000000000000000000600052603260045260246000fd5b6020026020010151612455565b9050919050565b60006113eb82600001516002815181106113de577f4e487b7100000000000000000000000000000000000000000000000000000000600052603260045260246000fd5b60200260200101516121ec565b9050919050565b6060600060405180602001604052806000815250905060008351111561169757600080611420600086612532565b60f81c905060018160ff16148061143a575060038160ff16145b156115505760016002865161144f9190613e74565b6114599190613ece565b67ffffffffffffffff811115611498577f4e487b7100000000000000000000000000000000000000000000000000000000600052604160045260246000fd5b6040519080825280601f01601f1916602001820160405280156114ca5781602001600182028036833780820191505090505b50925060006114da600187612532565b90508084600081518110611517577f4e487b7100000000000000000000000000000000000000000000000000000000600052603260045260246000fd5b60200101907effffffffffffffffffffffffffffffffffffffffffffffffffffffffffffff1916908160001a90535060019250506115e2565b600280865161155f9190613e74565b6115699190613ece565b67ffffffffffffffff8111156115a8577f4e487b7100000000000000000000000000000000000000000000000000000000600052604160045260246000fd5b6040519080825280601f01601f1916602001820160405280156115da5781602001600182028036833780820191505090505b509250600091505b60008260ff1690505b83518110156116935761161860028460ff16836116089190613ece565b6116129190613c4b565b87612532565b848281518110611651577f4e487b7100000000000000000000000000000000000000000000000000000000600052603260045260246000fd5b60200101907effffffffffffffffffffffffffffffffffffffffffffffffffffffffffffff1916908160001a905350808061168b906140c6565b9150506115eb565b5050505b80915050919050565b60006116f082600001516009815181106116e3577f4e487b7100000000000000000000000000000000000000000000000000000000600052603260045260246000fd5b60200260200101516121ec565b9050919050565b6116ff612e11565b61174d8260000151600681518110611740577f4e487b7100000000000000000000000000000000000000000000000000000000600052603260045260246000fd5b6020026020010151612455565b8160200181905250600061176482602001516122c6565b905061176f81612616565b1561178a5761177d816122f4565b8260000181905250611850565b6000826020015190506000600182516117a39190613ece565b67ffffffffffffffff8111156117e2577f4e487b7100000000000000000000000000000000000000000000000000000000600052604160045260246000fd5b6040519080825280601f01601f1916602001820160405280156118145781602001600182028036833780820191505090505b50905060008083602101915082602001905061183282828551612664565b61184361183e846122c6565b6122f4565b8660000181905250505050505b611859836116a0565b82604001818152505050919050565b611870612e32565b60006118c083600001516003815181106118b3577f4e487b7100000000000000000000000000000000000000000000000000000000600052603260045260246000fd5b60200260200101516122f4565b8360400151815181106118fc577f4e487b7100000000000000000000000000000000000000000000000000000000600052603260045260246000fd5b602002602001015190506040518060400160405280828152602001611920836122f4565b815250915050919050565b600061197b826020015160008151811061196e577f4e487b7100000000000000000000000000000000000000000000000000000000600052603260045260246000fd5b6020026020010151612701565b9050919050565b60006119d282600001516005815181106119c5577f4e487b7100000000000000000000000000000000000000000000000000000000600052603260045260246000fd5b60200260200101516121ec565b60001b9050919050565b606081602001519050919050565b6060611a3a8260000151600781518110611a2d577f4e487b7100000000000000000000000000000000000000000000000000000000600052603260045260246000fd5b6020026020010151612455565b9050919050565b600080611a4d846122c6565b90506000611a5a826122f4565b90506060806000869050600080611a708b6113f2565b9050600081511415611a8c576000975050505050505050611e6f565b60005b8651811015611e66578151831115611ab257600098505050505050505050611e6f565b611afb878281518110611aee577f4e487b7100000000000000000000000000000000000000000000000000000000600052603260045260246000fd5b6020026020010151612724565b955085805190602001208414611b1c57600098505050505050505050611e6f565b611b65878281518110611b58577f4e487b7100000000000000000000000000000000000000000000000000000000600052603260045260246000fd5b60200260200101516122f4565b9450601185511415611cca578151831415611bfb578c80519060200120611bcc86601081518110611bbf577f4e487b7100000000000000000000000000000000000000000000000000000000600052603260045260246000fd5b6020026020010151612455565b805190602001201415611bea57600198505050505050505050611e6f565b600098505050505050505050611e6f565b6000828481518110611c36577f4e487b7100000000000000000000000000000000000000000000000000000000600052603260045260246000fd5b602001015160f81c60f81b60f81c905060108160ff161115611c645760009950505050505050505050611e6f565b611cb0868260ff1681518110611ca3577f4e487b7100000000000000000000000000000000000000000000000000000000600052603260045260246000fd5b60200260200101516127da565b60001b9450600184611cc29190613c4b565b935050611e53565b600285511415611e41576000611d2a611d2387600081518110611d16577f4e487b7100000000000000000000000000000000000000000000000000000000600052603260045260246000fd5b6020026020010151612455565b8486612811565b905082518185611d3a9190613c4b565b1415611dc3578d80519060200120611d9287600181518110611d85577f4e487b7100000000000000000000000000000000000000000000000000000000600052603260045260246000fd5b6020026020010151612455565b805190602001201415611db15760019950505050505050505050611e6f565b60009950505050505050505050611e6f565b6000811415611dde5760009950505050505050505050611e6f565b8084611dea9190613c4b565b9350611e3686600181518110611e29577f4e487b7100000000000000000000000000000000000000000000000000000000600052603260045260246000fd5b60200260200101516127da565b60001b945050611e52565b600098505050505050505050611e6f565b5b8080611e5e906140c6565b915050611a8f565b50505050505050505b949350505050565b6000611ec78260000151600381518110611eba577f4e487b7100000000000000000000000000000000000000000000000000000000600052603260045260246000fd5b60200260200101516121ec565b9050919050565b6000611f1e8260000151600481518110611f11577f4e487b7100000000000000000000000000000000000000000000000000000000600052603260045260246000fd5b60200260200101516121ec565b60001b9050919050565b6000611f788260000151600081518110611f6b577f4e487b7100000000000000000000000000000000000000000000000000000000600052603260045260246000fd5b60200260200101516121ec565b9050919050565b6060611fcf8260000151600181518110611fc2577f4e487b7100000000000000000000000000000000000000000000000000000000600052603260045260246000fd5b6020026020010151612455565b9050919050565b600080600080600160009054906101000a900473ffffffffffffffffffffffffffffffffffffffff1673ffffffffffffffffffffffffffffffffffffffff166341539d4a876040518263ffffffff1660e01b81526004016120379190613b55565b60a06040518083038186803b15801561204f57600080fd5b505afa158015612063573d6000803e3d6000fd5b505050506040513d601f19601f8201168201806040525081019061208791906131a6565b50935050925092506120dd828b61209e9190613ece565b84878d8d8d8d6040516020016120b794939291906137a8565b604051602081830303815290604052805190602001206129b9909392919063ffffffff16565b61211c576040517f08c379a000000000000000000000000000000000000000000000000000000000815260040161211390613ab3565b60405180910390fd5b8093505050509695505050505050565b612134612e52565b604051806020016040528061218d8460200151600181518110612180577f4e487b7100000000000000000000000000000000000000000000000000000000600052603260045260246000fd5b60200260200101516122f4565b8152509050919050565b61219f612e65565b826000015182815181106121dc577f4e487b7100000000000000000000000000000000000000000000000000000000600052603260045260246000fd5b6020026020010151905092915050565b600080826000015111801561220657506021826000015111155b61220f57600080fd5b600061221e8360200151612b2a565b905060008184600001516122329190613ece565b90506000808386602001516122479190613c4b565b905080519150602083101561226357826020036101000a820491505b81945050505050919050565b60606122bf82602001516002815181106122b2577f4e487b7100000000000000000000000000000000000000000000000000000000600052603260045260246000fd5b6020026020010151612455565b9050919050565b6122ce612e65565b600060208301905060405180604001604052808451815260200182815250915050919050565b60606122ff82612616565b61230857600080fd5b600061231383612be9565b905060008167ffffffffffffffff811115612357577f4e487b7100000000000000000000000000000000000000000000000000000000600052604160045260246000fd5b60405190808252806020026020018201604052801561239057816020015b61237d612e65565b8152602001906001900390816123755790505b50905060006123a28560200151612b2a565b85602001516123b19190613c4b565b9050600080600090505b84811015612448576123cc83612c77565b915060405180604001604052808381526020018481525084828151811061241c577f4e487b7100000000000000000000000000000000000000000000000000000000600052603260045260246000fd5b602002602001018190525081836124339190613c4b565b92508080612440906140c6565b9150506123bb565b5082945050505050919050565b6060600082600001511161246857600080fd5b60006124778360200151612b2a565b9050600081846000015161248b9190613ece565b905060008167ffffffffffffffff8111156124cf577f4e487b7100000000000000000000000000000000000000000000000000000000600052604160045260246000fd5b6040519080825280601f01601f1916602001820160405280156125015781602001600182028036833780820191505090505b509050600081602001905061252684876020015161251f9190613c4b565b8285612d53565b81945050505050919050565b6000806002846125429190614123565b146125ab576010826002856125579190613ca1565b8151811061258e577f4e487b7100000000000000000000000000000000000000000000000000000000600052603260045260246000fd5b602001015160f81c60f81b60f81c6125a69190614154565b61260b565b6010826002856125bb9190613ca1565b815181106125f2577f4e487b7100000000000000000000000000000000000000000000000000000000600052603260045260246000fd5b602001015160f81c60f81b60f81c61260a9190613cd2565b5b60f81b905092915050565b6000808260000151141561262d576000905061265f565b60008083602001519050805160001a915060c060ff168260ff1610156126585760009250505061265f565b6001925050505b919050565b6000811415612672576126fc565b5b602060ff1681106126bd5782518252602060ff16836126929190613c4b565b9250602060ff16826126a49190613c4b565b9150602060ff16816126b69190613ece565b9050612673565b6000600182602060ff166126d19190613ece565b6101006126de9190613d56565b6126e89190613ece565b905080198451168184511681811785525050505b505050565b6000601582600001511461271457600080fd5b61271d826121ec565b9050919050565b60606000826000015167ffffffffffffffff81111561276c577f4e487b7100000000000000000000000000000000000000000000000000000000600052604160045260246000fd5b6040519080825280601f01601f19166020018201604052801561279e5781602001600182028036833780820191505090505b5090506000815114156127b457809150506127d5565b60008160200190506127cf8460200151828660000151612d53565b81925050505b919050565b600060218260000151146127ed57600080fd5b600080600184602001516128019190613c4b565b9050805191508192505050919050565b600080600090506000612823866113f2565b90506000815167ffffffffffffffff811115612868577f4e487b7100000000000000000000000000000000000000000000000000000000600052604160045260246000fd5b6040519080825280601f01601f19166020018201604052801561289a5781602001600182028036833780820191505090505b50905060008590505b8251866128b09190613c4b565b8110156129875760008782815181106128f2577f4e487b7100000000000000000000000000000000000000000000000000000000600052603260045260246000fd5b602001015160f81c60f81b90508083888461290d9190613ece565b81518110612944577f4e487b7100000000000000000000000000000000000000000000000000000000600052603260045260246000fd5b60200101907effffffffffffffffffffffffffffffffffffffffffffffffffffffffffffff1916908160001a90535050808061297f906140c6565b9150506128a3565b508080519060200120828051906020012014156129a757815192506129ac565b600092505b8293505050509392505050565b600080602083516129ca9190614123565b14612a0a576040517f08c379a0000000000000000000000000000000000000000000000000000000008152600401612a0190613a53565b60405180910390fd5b600060208351612a1a9190613ca1565b9050806002612a299190613d56565b8510612a6a576040517f08c379a0000000000000000000000000000000000000000000000000000000008152600401612a6190613a73565b60405180910390fd5b6000808790506000602090505b85518111612b19578086015192506000600289612a949190614123565b1415612aca578183604051602001612aad929190613743565b604051602081830303815290604052805190602001209150612af6565b8282604051602001612add929190613743565b6040516020818303038152906040528051906020012091505b600288612b039190613ca1565b9750602081612b129190613c4b565b9050612a77565b508581149350505050949350505050565b600080825160001a9050608060ff16811015612b4a576000915050612be4565b60b860ff16811080612b6f575060c060ff168110158015612b6e575060f860ff1681105b5b15612b7e576001915050612be4565b60c060ff16811015612bb95760018060b8612b999190613f02565b60ff1682612ba79190613ece565b612bb19190613c4b565b915050612be4565b60018060f8612bc89190613f02565b60ff1682612bd69190613ece565b612be09190613c4b565b9150505b919050565b60008082600001511415612c005760009050612c72565b600080612c108460200151612b2a565b8460200151612c1f9190613c4b565b9050600084600001518560200151612c379190613c4b565b90505b80821015612c6b57612c4b82612c77565b82612c569190613c4b565b91508280612c63906140c6565b935050612c3a565b8293505050505b919050565b6000806000835160001a9050608060ff16811015612c985760019150612d49565b60b860ff16811015612cc7576001608060ff1682612cb69190613ece565b612cc09190613c4b565b9150612d48565b60c060ff16811015612cf75760b78103600185019450806020036101000a85510460018201810193505050612d47565b60f860ff16811015612d2657600160c060ff1682612d159190613ece565b612d1f9190613c4b565b9150612d46565b60f78103600185019450806020036101000a855104600182018101935050505b5b5b5b8192505050919050565b6000811415612d6157612df9565b5b602060ff168110612dac5782518252602060ff1683612d819190613c4b565b9250602060ff1682612d939190613c4b565b9150602060ff1681612da59190613ece565b9050612d62565b6000811415612dba57612df9565b6000600182602060ff16612dce9190613ece565b610100612ddb9190613d56565b612de59190613ece565b905080198451168184511681811785525050505b505050565b6040518060200160405280606081525090565b60405180606001604052806060815260200160608152602001600081525090565b6040518060400160405280612e45612e65565b8152602001606081525090565b6040518060200160405280606081525090565b604051806040016040528060008152602001600081525090565b6000612e92612e8d84613b95565b613b70565b905082815260208101848484011115612eaa57600080fd5b612eb5848285614053565b509392505050565b6000612ed0612ecb84613b95565b613b70565b905082815260208101848484011115612ee857600080fd5b612ef3848285614062565b509392505050565b6000612f0e612f0984613bc6565b613b70565b905082815260208101848484011115612f2657600080fd5b612f31848285614062565b509392505050565b600081359050612f4881614583565b92915050565b600081519050612f5d81614583565b92915050565b600081519050612f728161459a565b92915050565b600081359050612f87816145b1565b92915050565b600081519050612f9c816145b1565b92915050565b600082601f830112612fb357600080fd5b8135612fc3848260208601612e7f565b91505092915050565b600082601f830112612fdd57600080fd5b8151612fed848260208601612ebd565b91505092915050565b600081519050613005816145c8565b92915050565b600082601f83011261301c57600080fd5b815161302c848260208601612efb565b91505092915050565b600060a0828403121561304757600080fd5b61305160a0613b70565b9050600061306184828501612f4e565b600083015250602061307584828501612f4e565b602083015250604082015167ffffffffffffffff81111561309557600080fd5b6130a18482850161300b565b604083015250606082015167ffffffffffffffff8111156130c157600080fd5b6130cd8482850161300b565b60608301525060806130e184828501612f4e565b60808301525092915050565b6000815190506130fc816145d8565b92915050565b60006020828403121561311457600080fd5b600061312284828501612f39565b91505092915050565b60006020828403121561313d57600080fd5b600061314b84828501612f4e565b91505092915050565b60006020828403121561316657600080fd5b600061317484828501612f63565b91505092915050565b60006020828403121561318f57600080fd5b600061319d84828501612f78565b91505092915050565b600080600080600060a086880312156131be57600080fd5b60006131cc88828901612f8d565b95505060206131dd888289016130ed565b94505060406131ee888289016130ed565b93505060606131ff888289016130ed565b925050608061321088828901612f4e565b9150509295509295909350565b60006020828403121561322f57600080fd5b600082013567ffffffffffffffff81111561324957600080fd5b61325584828501612fa2565b91505092915050565b60006020828403121561327057600080fd5b600082015167ffffffffffffffff81111561328a57600080fd5b61329684828501612fcc565b91505092915050565b600080604083850312156132b257600080fd5b60006132c085828601612ff6565b925050602083015167ffffffffffffffff8111156132dd57600080fd5b6132e985828601612fcc565b9150509250929050565b60006020828403121561330557600080fd5b600082015167ffffffffffffffff81111561331f57600080fd5b61332b8482850161300b565b91505092915050565b60006020828403121561334657600080fd5b600082015167ffffffffffffffff81111561336057600080fd5b61336c84828501613035565b91505092915050565b61337e81613f36565b82525050565b61338d81613f36565b82525050565b61339c81613f48565b82525050565b6133ab81613f54565b82525050565b6133c26133bd82613f54565b61410f565b82525050565b6133d181613f5e565b82525050565b60006133e282613bf7565b6133ec8185613c0d565b93506133fc818560208601614062565b61340581614241565b840191505092915050565b600061341b82613bf7565b6134258185613c1e565b9350613435818560208601614062565b80840191505092915050565b61344a81613fe7565b82525050565b6134598161400b565b82525050565b6134688161402f565b82525050565b61347781614041565b82525050565b600061348882613c02565b6134928185613c29565b93506134a2818560208601614062565b6134ab81614241565b840191505092915050565b60006134c3601683613c3a565b91506134ce8261425f565b602082019050919050565b60006134e6602a83613c3a565b91506134f182614288565b604082019050919050565b6000613509602683613c3a565b9150613514826142d7565b604082019050919050565b600061352c602383613c3a565b915061353782614326565b604082019050919050565b600061354f602483613c3a565b915061355a82614375565b604082019050919050565b6000613572602083613c3a565b915061357d826143c4565b602082019050919050565b6000613595601383613c3a565b91506135a0826143ed565b602082019050919050565b60006135b8601483613c3a565b91506135c382614416565b602082019050919050565b60006135db601583613c3a565b91506135e68261443f565b602082019050919050565b60006135fe601583613c3a565b915061360982614468565b602082019050919050565b6000613621601c83613c3a565b915061362c82614491565b602082019050919050565b6000613644601f83613c3a565b915061364f826144ba565b602082019050919050565b6000613667600c83613c3a565b9150613672826144e3565b602082019050919050565b600061368a602583613c3a565b91506136958261450c565b604082019050919050565b600060a0830160008301516136b86000860182613375565b5060208301516136cb6020860182613375565b50604083015184820360408601526136e3828261347d565b915050606083015184820360608601526136fd828261347d565b91505060808301516137126080860182613375565b508091505092915050565b61372681613fd0565b82525050565b61373d61373882613fd0565b614119565b82525050565b600061374f82856133b1565b60208201915061375f82846133b1565b6020820191508190509392505050565b600061377b828661372c565b60208201915061378b8285613410565b9150613797828461372c565b602082019150819050949350505050565b60006137b4828761372c565b6020820191506137c4828661372c565b6020820191506137d482856133b1565b6020820191506137e482846133b1565b60208201915081905095945050505050565b600060208201905061380b6000830184613384565b92915050565b60006040820190506138266000830185613384565b6138336020830184613384565b9392505050565b600060608201905061384f6000830186613384565b61385c6020830185613384565b6138696040830184613384565b949350505050565b60006040820190506138866000830185613384565b818103602083015261389881846133d7565b90509392505050565b60006020820190506138b66000830184613393565b92915050565b60006020820190506138d160008301846133a2565b92915050565b60006020820190506138ec60008301846133c8565b92915050565b60006020820190506139076000830184613441565b92915050565b60006020820190506139226000830184613450565b92915050565b600060408201905061393d600083018561345f565b818103602083015261394f81846133d7565b90509392505050565b600060208201905061396d600083018461346e565b92915050565b6000602082019050818103600083015261398c816134b6565b9050919050565b600060208201905081810360008301526139ac816134d9565b9050919050565b600060208201905081810360008301526139cc816134fc565b9050919050565b600060208201905081810360008301526139ec8161351f565b9050919050565b60006020820190508181036000830152613a0c81613542565b9050919050565b60006020820190508181036000830152613a2c81613565565b9050919050565b60006020820190508181036000830152613a4c81613588565b9050919050565b60006020820190508181036000830152613a6c816135ab565b9050919050565b60006020820190508181036000830152613a8c816135ce565b9050919050565b60006020820190508181036000830152613aac816135f1565b9050919050565b60006020820190508181036000830152613acc81613614565b9050919050565b60006020820190508181036000830152613aec81613637565b9050919050565b60006020820190508181036000830152613b0c8161365a565b9050919050565b60006020820190508181036000830152613b2c8161367d565b9050919050565b60006020820190508181036000830152613b4d81846136a0565b905092915050565b6000602082019050613b6a600083018461371d565b92915050565b6000613b7a613b8b565b9050613b868282614095565b919050565b6000604051905090565b600067ffffffffffffffff821115613bb057613baf614212565b5b613bb982614241565b9050602081019050919050565b600067ffffffffffffffff821115613be157613be0614212565b5b613bea82614241565b9050602081019050919050565b600081519050919050565b600081519050919050565b600082825260208201905092915050565b600081905092915050565b600082825260208201905092915050565b600082825260208201905092915050565b6000613c5682613fd0565b9150613c6183613fd0565b9250827fffffffffffffffffffffffffffffffffffffffffffffffffffffffffffffffff03821115613c9657613c95614185565b5b828201905092915050565b6000613cac82613fd0565b9150613cb783613fd0565b925082613cc757613cc66141b4565b5b828204905092915050565b6000613cdd82613fda565b9150613ce883613fda565b925082613cf857613cf76141b4565b5b828204905092915050565b6000808291508390505b6001851115613d4d57808604811115613d2957613d28614185565b5b6001851615613d385780820291505b8081029050613d4685614252565b9450613d0d565b94509492505050565b6000613d6182613fd0565b9150613d6c83613fd0565b9250613d997fffffffffffffffffffffffffffffffffffffffffffffffffffffffffffffffff8484613da1565b905092915050565b600082613db15760019050613e6d565b81613dbf5760009050613e6d565b8160018114613dd55760028114613ddf57613e0e565b6001915050613e6d565b60ff841115613df157613df0614185565b5b8360020a915084821115613e0857613e07614185565b5b50613e6d565b5060208310610133831016604e8410600b8410161715613e435782820a905083811115613e3e57613e3d614185565b5b613e6d565b613e508484846001613d03565b92509050818404811115613e6757613e66614185565b5b81810290505b9392505050565b6000613e7f82613fd0565b9150613e8a83613fd0565b9250817fffffffffffffffffffffffffffffffffffffffffffffffffffffffffffffffff0483118215151615613ec357613ec2614185565b5b828202905092915050565b6000613ed982613fd0565b9150613ee483613fd0565b925082821015613ef757613ef6614185565b5b828203905092915050565b6000613f0d82613fda565b9150613f1883613fda565b925082821015613f2b57613f2a614185565b5b828203905092915050565b6000613f4182613fb0565b9050919050565b60008115159050919050565b6000819050919050565b60007fffffffff0000000000000000000000000000000000000000000000000000000082169050919050565b6000819050613f988261455b565b919050565b6000819050613fab8261456f565b919050565b600073ffffffffffffffffffffffffffffffffffffffff82169050919050565b6000819050919050565b600060ff82169050919050565b6000613ff282613ff9565b9050919050565b600061400482613fb0565b9050919050565b60006140168261401d565b9050919050565b600061402882613fb0565b9050919050565b600061403a82613f8a565b9050919050565b600061404c82613f9d565b9050919050565b82818337600083830152505050565b60005b83811015614080578082015181840152602081019050614065565b8381111561408f576000848401525b50505050565b61409e82614241565b810181811067ffffffffffffffff821117156140bd576140bc614212565b5b80604052505050565b60006140d182613fd0565b91507fffffffffffffffffffffffffffffffffffffffffffffffffffffffffffffffff82141561410457614103614185565b5b600182019050919050565b6000819050919050565b6000819050919050565b600061412e82613fd0565b915061413983613fd0565b925082614149576141486141b4565b5b828206905092915050565b600061415f82613fda565b915061416a83613fda565b92508261417a576141796141b4565b5b828206905092915050565b7f4e487b7100000000000000000000000000000000000000000000000000000000600052601160045260246000fd5b7f4e487b7100000000000000000000000000000000000000000000000000000000600052601260045260246000fd5b7f4e487b7100000000000000000000000000000000000000000000000000000000600052602160045260246000fd5b7f4e487b7100000000000000000000000000000000000000000000000000000000600052604160045260246000fd5b6000601f19601f8301169050919050565b60008160011c9050919050565b7f416c7265616479206d6170706564206f7220696e697400000000000000000000600082015250565b7f467842617365526f6f7454756e6e656c3a204348494c445f54554e4e454c5f4160008201527f4c52454144595f53455400000000000000000000000000000000000000000000602082015250565b7f4f776e61626c653a206e6577206f776e657220697320746865207a65726f206160008201527f6464726573730000000000000000000000000000000000000000000000000000602082015250565b7f4678526f6f7454756e6e656c3a20494e56414c49445f524543454950545f505260008201527f4f4f460000000000000000000000000000000000000000000000000000000000602082015250565b7f4678526f6f7454756e6e656c3a20455849545f414c52454144595f50524f434560008201527f5353454400000000000000000000000000000000000000000000000000000000602082015250565b7f4f776e61626c653a2063616c6c6572206973206e6f7420746865206f776e6572600082015250565b7f546f6b656e206e6f7420737570706f7274656400000000000000000000000000600082015250565b7f496e76616c69642070726f6f66206c656e677468000000000000000000000000600082015250565b7f4c65616620696e64657820697320746f6f206269670000000000000000000000600082015250565b7f4e6f74206f776e6572206f66204c3120546f6b656e0000000000000000000000600082015250565b7f4678526f6f7454756e6e656c3a20494e56414c49445f48454144455200000000600082015250565b7f4678526f6f7454756e6e656c3a20494e56414c49445f5349474e415455524500600082015250565b7f496e76616c696420747970650000000000000000000000000000000000000000600082015250565b7f4678526f6f7454756e6e656c3a20494e56414c49445f46585f4348494c445f5460008201527f554e4e454c000000000000000000000000000000000000000000000000000000602082015250565b6002811061456c5761456b6141e3565b5b50565b600381106145805761457f6141e3565b5b50565b61458c81613f36565b811461459757600080fd5b50565b6145a381613f48565b81146145ae57600080fd5b50565b6145ba81613f54565b81146145c557600080fd5b50565b600281106145d557600080fd5b50565b6145e181613fd0565b81146145ec57600080fd5b5056fea264697066735822122015642d2543d258d11d16eb51aa217cf3eb47620777328fac1dbaad6009e0c48764736f6c63430008040033",
  "devdoc": {
    "kind": "dev",
    "methods": {
      "owner()": {
        "details": "Returns the address of the current owner."
      },
      "receiveMessage(bytes)": {
        "details": "This function verifies if the transaction actually happened on child chain",
        "params": {
          "inputData": "RLP encoded data of the reference tx containing following list of fields  0 - headerNumber - Checkpoint header block number containing the reference tx  1 - blockProof - Proof that the block header (in the child chain) is a leaf in the submitted merkle root  2 - blockNumber - Block number containing the reference tx on child chain  3 - blockTime - Reference tx block time  4 - txRoot - Transactions root of block  5 - receiptRoot - Receipts root of block  6 - receipt - Receipt of the reference transaction  7 - receiptProof - Merkle proof of the reference receipt  8 - branchMask - 32 bits denoting the path of receipt in merkle tree  9 - receiptLogIndex - Log Index to read from the receipt"
        }
      },
      "renounceOwnership()": {
        "details": "Leaves the contract without owner. It will not be possible to call `onlyOwner` functions anymore. Can only be called by the current owner. NOTE: Renouncing ownership will leave the contract without an owner, thereby removing any functionality that is only available to the owner."
      },
      "transferOwnership(address)": {
        "details": "Transfers ownership of the contract to a new account (`newOwner`). Can only be called by the current owner."
      }
    },
    "version": 1
  },
  "userdoc": {
    "kind": "user",
    "methods": {
      "receiveMessage(bytes)": {
        "notice": "receive message from  L2 to L1, validated by proof"
      }
    },
    "version": 1
  },
  "storageLayout": {
    "storage": [
      {
        "astId": 5154,
        "contract": "contracts/l1/L1Tunnel.sol:L1Tunnel",
        "label": "fxRoot",
        "offset": 0,
        "slot": "0",
        "type": "t_contract(IFxStateSender)5104"
      },
      {
        "astId": 5157,
        "contract": "contracts/l1/L1Tunnel.sol:L1Tunnel",
        "label": "checkpointManager",
        "offset": 0,
        "slot": "1",
        "type": "t_contract(ICheckpointManager)5122"
      },
      {
        "astId": 5159,
        "contract": "contracts/l1/L1Tunnel.sol:L1Tunnel",
        "label": "fxChildTunnel",
        "offset": 0,
        "slot": "2",
        "type": "t_address"
      },
      {
        "astId": 5163,
        "contract": "contracts/l1/L1Tunnel.sol:L1Tunnel",
        "label": "processedExits",
        "offset": 0,
        "slot": "3",
        "type": "t_mapping(t_bytes32,t_bool)"
      },
      {
        "astId": 7,
        "contract": "contracts/l1/L1Tunnel.sol:L1Tunnel",
        "label": "_owner",
        "offset": 0,
        "slot": "4",
        "type": "t_address"
      },
      {
        "astId": 2623,
        "contract": "contracts/l1/L1Tunnel.sol:L1Tunnel",
        "label": "mappedTokens",
        "offset": 0,
        "slot": "5",
        "type": "t_mapping(t_address,t_address)"
      },
      {
        "astId": 2628,
        "contract": "contracts/l1/L1Tunnel.sol:L1Tunnel",
        "label": "mappedTokenStatus",
        "offset": 0,
        "slot": "6",
        "type": "t_mapping(t_address,t_enum(TokenStatus)2605)"
      }
    ],
    "types": {
      "t_address": {
        "encoding": "inplace",
        "label": "address",
        "numberOfBytes": "20"
      },
      "t_bool": {
        "encoding": "inplace",
        "label": "bool",
        "numberOfBytes": "1"
      },
      "t_bytes32": {
        "encoding": "inplace",
        "label": "bytes32",
        "numberOfBytes": "32"
      },
      "t_contract(ICheckpointManager)5122": {
        "encoding": "inplace",
        "label": "contract ICheckpointManager",
        "numberOfBytes": "20"
      },
      "t_contract(IFxStateSender)5104": {
        "encoding": "inplace",
        "label": "contract IFxStateSender",
        "numberOfBytes": "20"
      },
      "t_enum(TokenStatus)2605": {
        "encoding": "inplace",
        "label": "enum L1Tunnel.TokenStatus",
        "numberOfBytes": "1"
      },
      "t_mapping(t_address,t_address)": {
        "encoding": "mapping",
        "key": "t_address",
        "label": "mapping(address => address)",
        "numberOfBytes": "32",
        "value": "t_address"
      },
      "t_mapping(t_address,t_enum(TokenStatus)2605)": {
        "encoding": "mapping",
        "key": "t_address",
        "label": "mapping(address => enum L1Tunnel.TokenStatus)",
        "numberOfBytes": "32",
        "value": "t_enum(TokenStatus)2605"
      },
      "t_mapping(t_bytes32,t_bool)": {
        "encoding": "mapping",
        "key": "t_bytes32",
        "label": "mapping(bytes32 => bool)",
        "numberOfBytes": "32",
        "value": "t_bool"
      }
    }
  }
}