{
  "address": "0x9fbF80763d3924f90Fa90A58d891d9aD8ba6551E",
  "abi": [
    {
      "inputs": [
        {
          "internalType": "address",
          "name": "_checkpointManager",
          "type": "address"
        },
        {
          "internalType": "address",
          "name": "_fxRoot",
          "type": "address"
        }
      ],
      "stateMutability": "nonpayable",
      "type": "constructor"
    },
    {
      "anonymous": false,
      "inputs": [
        {
          "indexed": false,
          "internalType": "bytes",
          "name": "message",
          "type": "bytes"
        },
        {
          "indexed": false,
          "internalType": "uint256",
          "name": "_nonce",
          "type": "uint256"
        }
      ],
      "name": "Received",
      "type": "event"
    },
    {
      "inputs": [],
      "name": "SEND_MESSAGE_EVENT_SIG",
      "outputs": [
        {
          "internalType": "bytes32",
          "name": "",
          "type": "bytes32"
        }
      ],
      "stateMutability": "view",
      "type": "function"
    },
    {
      "inputs": [],
      "name": "checkpointManager",
      "outputs": [
        {
          "internalType": "contract ICheckpointManager",
          "name": "",
          "type": "address"
        }
      ],
      "stateMutability": "view",
      "type": "function"
    },
    {
      "inputs": [],
      "name": "fxChildTunnel",
      "outputs": [
        {
          "internalType": "address",
          "name": "",
          "type": "address"
        }
      ],
      "stateMutability": "view",
      "type": "function"
    },
    {
      "inputs": [],
      "name": "fxRoot",
      "outputs": [
        {
          "internalType": "contract IFxStateSender",
          "name": "",
          "type": "address"
        }
      ],
      "stateMutability": "view",
      "type": "function"
    },
    {
      "inputs": [
        {
          "internalType": "bytes32",
          "name": "",
          "type": "bytes32"
        }
      ],
      "name": "processedExits",
      "outputs": [
        {
          "internalType": "bool",
          "name": "",
          "type": "bool"
        }
      ],
      "stateMutability": "view",
      "type": "function"
    },
    {
      "inputs": [
        {
          "internalType": "bytes",
          "name": "inputData",
          "type": "bytes"
        }
      ],
      "name": "receiveMessage",
      "outputs": [],
      "stateMutability": "nonpayable",
      "type": "function"
    },
    {
      "inputs": [
        {
          "internalType": "bytes",
          "name": "encodedData",
          "type": "bytes"
        }
      ],
      "name": "sendMessageToChild",
      "outputs": [],
      "stateMutability": "nonpayable",
      "type": "function"
    },
    {
      "inputs": [
        {
          "internalType": "address",
          "name": "_fxChildTunnel",
          "type": "address"
        }
      ],
      "name": "setFxChildTunnel",
      "outputs": [],
      "stateMutability": "nonpayable",
      "type": "function"
    }
  ],
  "transactionHash": "0xa90ac89f428fb90851f959444edd9b5f2b260958209f451c4f510a53a9e7043b",
  "args": [
    "0x2890bA17EfE978480615e330ecB65333b880928e",
    "0x3d1d3E34f7fB6D26245E6640E1c50710eFFf15bA"
  ],
  "numDeployments": 1,
  "solcInputHash": "7a2cfdc22e90f64b0ee3b228d040bdf6",
  "bytecode": "0x60806040523480156200001157600080fd5b50604051620033ce380380620033ce8339818101604052810190620000379190620000db565b818181600160006101000a81548173ffffffffffffffffffffffffffffffffffffffff021916908373ffffffffffffffffffffffffffffffffffffffff160217905550806000806101000a81548173ffffffffffffffffffffffffffffffffffffffff021916908373ffffffffffffffffffffffffffffffffffffffff160217905550505050506200016a565b600081519050620000d58162000150565b92915050565b60008060408385031215620000ef57600080fd5b6000620000ff85828601620000c4565b92505060206200011285828601620000c4565b9150509250929050565b6000620001298262000130565b9050919050565b600073ffffffffffffffffffffffffffffffffffffffff82169050919050565b6200015b816200011c565b81146200016757600080fd5b50565b613254806200017a6000396000f3fe608060405234801561001057600080fd5b50600436106100885760003560e01c8063aea4e49e1161005b578063aea4e49e14610115578063c0857ba014610131578063de9b771f1461014f578063f953cec71461016d57610088565b80630e387de61461008d5780634c09e6e8146100ab578063607f2d42146100c7578063972c4928146100f7575b600080fd5b610095610189565b6040516100a29190612860565b60405180910390f35b6100c560048036038101906100c091906124bb565b6101b0565b005b6100e160048036038101906100dc919061241b565b6101bc565b6040516100ee9190612845565b60405180910390f35b6100ff6101dc565b60405161010c91906127fa565b60405180910390f35b61012f600480360381019061012a91906123f2565b610202565b005b6101396102d7565b60405161014691906128ab565b60405180910390f35b6101576102fd565b60405161016491906128c6565b60405180910390f35b610187600480360381019061018291906124bb565b610321565b005b7f8c5261668696ce22758910d05bab8f186d6eb247ceac2af2e82c7dc17669b03660001b81565b6101b98161033b565b50565b60036020528060005260406000206000915054906101000a900460ff1681565b600260009054906101000a900473ffffffffffffffffffffffffffffffffffffffff1681565b600073ffffffffffffffffffffffffffffffffffffffff16600260009054906101000a900473ffffffffffffffffffffffffffffffffffffffff1673ffffffffffffffffffffffffffffffffffffffff1614610293576040517f08c379a000000000000000000000000000000000000000000000000000000000815260040161028a906128e1565b60405180910390fd5b80600260006101000a81548173ffffffffffffffffffffffffffffffffffffffff021916908373ffffffffffffffffffffffffffffffffffffffff16021790555050565b600160009054906101000a900473ffffffffffffffffffffffffffffffffffffffff1681565b60008054906101000a900473ffffffffffffffffffffffffffffffffffffffff1681565b600061032c826103ed565b9050610337816106f2565b5050565b60008054906101000a900473ffffffffffffffffffffffffffffffffffffffff1673ffffffffffffffffffffffffffffffffffffffff1663b4720477600260009054906101000a900473ffffffffffffffffffffffffffffffffffffffff16836040518363ffffffff1660e01b81526004016103b8929190612815565b600060405180830381600087803b1580156103d257600080fd5b505af11580156103e6573d6000803e3d6000fd5b5050505050565b606060006103fa8361074a565b905060006104078261077e565b90506000610414836107d5565b90506000816104228461082c565b61042b86610ada565b60405160200161043d93929190612773565b604051602081830303815290604052805190602001209050600015156003600083815260200190815260200160002060009054906101000a900460ff161515146104bc576040517f08c379a00000000000000000000000000000000000000000000000000000000081526004016104b390612921565b60405180910390fd5b60016003600083815260200190815260200160002060006101000a81548160ff02191690831515021790555060006104f385610b31565b9050600061050082610ca2565b905061050b81610d65565b73ffffffffffffffffffffffffffffffffffffffff16600260009054906101000a900473ffffffffffffffffffffffffffffffffffffffff1673ffffffffffffffffffffffffffffffffffffffff161461059a576040517f08c379a0000000000000000000000000000000000000000000000000000000008152600401610591906129c1565b60405180910390fd5b60006105a587610dbc565b90506105c36105b384610e16565b876105bd8a610e24565b84610e7b565b610602576040517f08c379a00000000000000000000000000000000000000000000000000000000081526004016105f990612901565b60405180910390fd5b6106308561060f896112b1565b6106188a611308565b846106228c611362565b61062b8d6113b9565b611410565b50600061063c83611566565b90507f8c5261668696ce22758910d05bab8f186d6eb247ceac2af2e82c7dc17669b03660001b61067e6106796000846115d190919063ffffffff16565b611626565b60001b146106c1576040517f08c379a00000000000000000000000000000000000000000000000000000000081526004016106b8906129a1565b60405180910390fd5b60006106cc846116a9565b8060200190518101906106df91906124fc565b9050809950505050505050505050919050565b6001600460008282546107059190612a8a565b925050819055507fe82e6d7c5ae1f4551ce6f4c5869693af64a6ae55e7f8b0e7a6c71980525d89468160045460405161073f92919061287b565b60405180910390a150565b610752612238565b600061076561076084611700565b61172e565b9050604051806020016040528082815250915050919050565b60606107ce82600001516008815181106107c1577f4e487b7100000000000000000000000000000000000000000000000000000000600052603260045260246000fd5b602002602001015161188f565b9050919050565b60006108258260000151600281518110610818577f4e487b7100000000000000000000000000000000000000000000000000000000600052603260045260246000fd5b6020026020010151611626565b9050919050565b60606000604051806020016040528060008152509050600083511115610ad15760008061085a60008661196c565b60f81c905060018160ff161480610874575060038160ff16145b1561098a576001600286516108899190612cb3565b6108939190612d0d565b67ffffffffffffffff8111156108d2577f4e487b7100000000000000000000000000000000000000000000000000000000600052604160045260246000fd5b6040519080825280601f01601f1916602001820160405280156109045781602001600182028036833780820191505090505b509250600061091460018761196c565b90508084600081518110610951577f4e487b7100000000000000000000000000000000000000000000000000000000600052603260045260246000fd5b60200101907effffffffffffffffffffffffffffffffffffffffffffffffffffffffffffff1916908160001a9053506001925050610a1c565b60028086516109999190612cb3565b6109a39190612d0d565b67ffffffffffffffff8111156109e2577f4e487b7100000000000000000000000000000000000000000000000000000000600052604160045260246000fd5b6040519080825280601f01601f191660200182016040528015610a145781602001600182028036833780820191505090505b509250600091505b60008260ff1690505b8351811015610acd57610a5260028460ff1683610a429190612d0d565b610a4c9190612a8a565b8761196c565b848281518110610a8b577f4e487b7100000000000000000000000000000000000000000000000000000000600052603260045260246000fd5b60200101907effffffffffffffffffffffffffffffffffffffffffffffffffffffffffffff1916908160001a9053508080610ac590612e8f565b915050610a25565b5050505b80915050919050565b6000610b2a8260000151600981518110610b1d577f4e487b7100000000000000000000000000000000000000000000000000000000600052603260045260246000fd5b6020026020010151611626565b9050919050565b610b3961224b565b610b878260000151600681518110610b7a577f4e487b7100000000000000000000000000000000000000000000000000000000600052603260045260246000fd5b602002602001015161188f565b81602001819052506000610b9e8260200151611700565b9050610ba981611a50565b15610bc457610bb78161172e565b8260000181905250610c8a565b600082602001519050600060018251610bdd9190612d0d565b67ffffffffffffffff811115610c1c577f4e487b7100000000000000000000000000000000000000000000000000000000600052604160045260246000fd5b6040519080825280601f01601f191660200182016040528015610c4e5781602001600182028036833780820191505090505b509050600080836021019150826020019050610c6c82828551611a9e565b610c7d610c7884611700565b61172e565b8660000181905250505050505b610c9383610ada565b82604001818152505050919050565b610caa61226c565b6000610cfa8360000151600381518110610ced577f4e487b7100000000000000000000000000000000000000000000000000000000600052603260045260246000fd5b602002602001015161172e565b836040015181518110610d36577f4e487b7100000000000000000000000000000000000000000000000000000000600052603260045260246000fd5b602002602001015190506040518060400160405280828152602001610d5a8361172e565b815250915050919050565b6000610db58260200151600081518110610da8577f4e487b7100000000000000000000000000000000000000000000000000000000600052603260045260246000fd5b6020026020010151611b3b565b9050919050565b6000610e0c8260000151600581518110610dff577f4e487b7100000000000000000000000000000000000000000000000000000000600052603260045260246000fd5b6020026020010151611626565b60001b9050919050565b606081602001519050919050565b6060610e748260000151600781518110610e67577f4e487b7100000000000000000000000000000000000000000000000000000000600052603260045260246000fd5b602002602001015161188f565b9050919050565b600080610e8784611700565b90506000610e948261172e565b90506060806000869050600080610eaa8b61082c565b9050600081511415610ec65760009750505050505050506112a9565b60005b86518110156112a0578151831115610eec576000985050505050505050506112a9565b610f35878281518110610f28577f4e487b7100000000000000000000000000000000000000000000000000000000600052603260045260246000fd5b6020026020010151611b5e565b955085805190602001208414610f56576000985050505050505050506112a9565b610f9f878281518110610f92577f4e487b7100000000000000000000000000000000000000000000000000000000600052603260045260246000fd5b602002602001015161172e565b9450601185511415611104578151831415611035578c8051906020012061100686601081518110610ff9577f4e487b7100000000000000000000000000000000000000000000000000000000600052603260045260246000fd5b602002602001015161188f565b805190602001201415611024576001985050505050505050506112a9565b6000985050505050505050506112a9565b6000828481518110611070577f4e487b7100000000000000000000000000000000000000000000000000000000600052603260045260246000fd5b602001015160f81c60f81b60f81c905060108160ff16111561109e57600099505050505050505050506112a9565b6110ea868260ff16815181106110dd577f4e487b7100000000000000000000000000000000000000000000000000000000600052603260045260246000fd5b6020026020010151611c14565b60001b94506001846110fc9190612a8a565b93505061128d565b60028551141561127b57600061116461115d87600081518110611150577f4e487b7100000000000000000000000000000000000000000000000000000000600052603260045260246000fd5b602002602001015161188f565b8486611c4b565b9050825181856111749190612a8a565b14156111fd578d805190602001206111cc876001815181106111bf577f4e487b7100000000000000000000000000000000000000000000000000000000600052603260045260246000fd5b602002602001015161188f565b8051906020012014156111eb57600199505050505050505050506112a9565b600099505050505050505050506112a9565b600081141561121857600099505050505050505050506112a9565b80846112249190612a8a565b935061127086600181518110611263577f4e487b7100000000000000000000000000000000000000000000000000000000600052603260045260246000fd5b6020026020010151611c14565b60001b94505061128c565b6000985050505050505050506112a9565b5b808061129890612e8f565b915050610ec9565b50505050505050505b949350505050565b600061130182600001516003815181106112f4577f4e487b7100000000000000000000000000000000000000000000000000000000600052603260045260246000fd5b6020026020010151611626565b9050919050565b6000611358826000015160048151811061134b577f4e487b7100000000000000000000000000000000000000000000000000000000600052603260045260246000fd5b6020026020010151611626565b60001b9050919050565b60006113b282600001516000815181106113a5577f4e487b7100000000000000000000000000000000000000000000000000000000600052603260045260246000fd5b6020026020010151611626565b9050919050565b606061140982600001516001815181106113fc577f4e487b7100000000000000000000000000000000000000000000000000000000600052603260045260246000fd5b602002602001015161188f565b9050919050565b600080600080600160009054906101000a900473ffffffffffffffffffffffffffffffffffffffff1673ffffffffffffffffffffffffffffffffffffffff166341539d4a876040518263ffffffff1660e01b815260040161147191906129e1565b60a06040518083038186803b15801561148957600080fd5b505afa15801561149d573d6000803e3d6000fd5b505050506040513d601f19601f820116820180604052508101906114c19190612444565b5093505092509250611517828b6114d89190612d0d565b84878d8d8d8d6040516020016114f194939291906127ac565b60405160208183030381529060405280519060200120611df3909392919063ffffffff16565b611556576040517f08c379a000000000000000000000000000000000000000000000000000000000815260040161154d90612981565b60405180910390fd5b8093505050509695505050505050565b61156e61228c565b60405180602001604052806115c784602001516001815181106115ba577f4e487b7100000000000000000000000000000000000000000000000000000000600052603260045260246000fd5b602002602001015161172e565b8152509050919050565b6115d961229f565b82600001518281518110611616577f4e487b7100000000000000000000000000000000000000000000000000000000600052603260045260246000fd5b6020026020010151905092915050565b600080826000015111801561164057506021826000015111155b61164957600080fd5b60006116588360200151611f64565b9050600081846000015161166c9190612d0d565b90506000808386602001516116819190612a8a565b905080519150602083101561169d57826020036101000a820491505b81945050505050919050565b60606116f982602001516002815181106116ec577f4e487b7100000000000000000000000000000000000000000000000000000000600052603260045260246000fd5b602002602001015161188f565b9050919050565b61170861229f565b600060208301905060405180604001604052808451815260200182815250915050919050565b606061173982611a50565b61174257600080fd5b600061174d83612023565b905060008167ffffffffffffffff811115611791577f4e487b7100000000000000000000000000000000000000000000000000000000600052604160045260246000fd5b6040519080825280602002602001820160405280156117ca57816020015b6117b761229f565b8152602001906001900390816117af5790505b50905060006117dc8560200151611f64565b85602001516117eb9190612a8a565b9050600080600090505b8481101561188257611806836120b1565b9150604051806040016040528083815260200184815250848281518110611856577f4e487b7100000000000000000000000000000000000000000000000000000000600052603260045260246000fd5b6020026020010181905250818361186d9190612a8a565b9250808061187a90612e8f565b9150506117f5565b5082945050505050919050565b606060008260000151116118a257600080fd5b60006118b18360200151611f64565b905060008184600001516118c59190612d0d565b905060008167ffffffffffffffff811115611909577f4e487b7100000000000000000000000000000000000000000000000000000000600052604160045260246000fd5b6040519080825280601f01601f19166020018201604052801561193b5781602001600182028036833780820191505090505b50905060008160200190506119608487602001516119599190612a8a565b828561218d565b81945050505050919050565b60008060028461197c9190612eec565b146119e5576010826002856119919190612ae0565b815181106119c8577f4e487b7100000000000000000000000000000000000000000000000000000000600052603260045260246000fd5b602001015160f81c60f81b60f81c6119e09190612f1d565b611a45565b6010826002856119f59190612ae0565b81518110611a2c577f4e487b7100000000000000000000000000000000000000000000000000000000600052603260045260246000fd5b602001015160f81c60f81b60f81c611a449190612b11565b5b60f81b905092915050565b60008082600001511415611a675760009050611a99565b60008083602001519050805160001a915060c060ff168260ff161015611a9257600092505050611a99565b6001925050505b919050565b6000811415611aac57611b36565b5b602060ff168110611af75782518252602060ff1683611acc9190612a8a565b9250602060ff1682611ade9190612a8a565b9150602060ff1681611af09190612d0d565b9050611aad565b6000600182602060ff16611b0b9190612d0d565b610100611b189190612b95565b611b229190612d0d565b905080198451168184511681811785525050505b505050565b60006015826000015114611b4e57600080fd5b611b5782611626565b9050919050565b60606000826000015167ffffffffffffffff811115611ba6577f4e487b7100000000000000000000000000000000000000000000000000000000600052604160045260246000fd5b6040519080825280601f01601f191660200182016040528015611bd85781602001600182028036833780820191505090505b509050600081511415611bee5780915050611c0f565b6000816020019050611c09846020015182866000015161218d565b81925050505b919050565b60006021826000015114611c2757600080fd5b60008060018460200151611c3b9190612a8a565b9050805191508192505050919050565b600080600090506000611c5d8661082c565b90506000815167ffffffffffffffff811115611ca2577f4e487b7100000000000000000000000000000000000000000000000000000000600052604160045260246000fd5b6040519080825280601f01601f191660200182016040528015611cd45781602001600182028036833780820191505090505b50905060008590505b825186611cea9190612a8a565b811015611dc1576000878281518110611d2c577f4e487b7100000000000000000000000000000000000000000000000000000000600052603260045260246000fd5b602001015160f81c60f81b905080838884611d479190612d0d565b81518110611d7e577f4e487b7100000000000000000000000000000000000000000000000000000000600052603260045260246000fd5b60200101907effffffffffffffffffffffffffffffffffffffffffffffffffffffffffffff1916908160001a905350508080611db990612e8f565b915050611cdd565b50808051906020012082805190602001201415611de15781519250611de6565b600092505b8293505050509392505050565b60008060208351611e049190612eec565b14611e44576040517f08c379a0000000000000000000000000000000000000000000000000000000008152600401611e3b90612941565b60405180910390fd5b600060208351611e549190612ae0565b9050806002611e639190612b95565b8510611ea4576040517f08c379a0000000000000000000000000000000000000000000000000000000008152600401611e9b90612961565b60405180910390fd5b6000808790506000602090505b85518111611f53578086015192506000600289611ece9190612eec565b1415611f04578183604051602001611ee7929190612747565b604051602081830303815290604052805190602001209150611f30565b8282604051602001611f17929190612747565b6040516020818303038152906040528051906020012091505b600288611f3d9190612ae0565b9750602081611f4c9190612a8a565b9050611eb1565b508581149350505050949350505050565b600080825160001a9050608060ff16811015611f8457600091505061201e565b60b860ff16811080611fa9575060c060ff168110158015611fa8575060f860ff1681105b5b15611fb857600191505061201e565b60c060ff16811015611ff35760018060b8611fd39190612d41565b60ff1682611fe19190612d0d565b611feb9190612a8a565b91505061201e565b60018060f86120029190612d41565b60ff16826120109190612d0d565b61201a9190612a8a565b9150505b919050565b6000808260000151141561203a57600090506120ac565b60008061204a8460200151611f64565b84602001516120599190612a8a565b90506000846000015185602001516120719190612a8a565b90505b808210156120a557612085826120b1565b826120909190612a8a565b9150828061209d90612e8f565b935050612074565b8293505050505b919050565b6000806000835160001a9050608060ff168110156120d25760019150612183565b60b860ff16811015612101576001608060ff16826120f09190612d0d565b6120fa9190612a8a565b9150612182565b60c060ff168110156121315760b78103600185019450806020036101000a85510460018201810193505050612181565b60f860ff1681101561216057600160c060ff168261214f9190612d0d565b6121599190612a8a565b9150612180565b60f78103600185019450806020036101000a855104600182018101935050505b5b5b5b8192505050919050565b600081141561219b57612233565b5b602060ff1681106121e65782518252602060ff16836121bb9190612a8a565b9250602060ff16826121cd9190612a8a565b9150602060ff16816121df9190612d0d565b905061219c565b60008114156121f457612233565b6000600182602060ff166122089190612d0d565b6101006122159190612b95565b61221f9190612d0d565b905080198451168184511681811785525050505b505050565b6040518060200160405280606081525090565b60405180606001604052806060815260200160608152602001600081525090565b604051806040016040528061227f61229f565b8152602001606081525090565b6040518060200160405280606081525090565b604051806040016040528060008152602001600081525090565b60006122cc6122c784612a21565b6129fc565b9050828152602081018484840111156122e457600080fd5b6122ef848285612e1c565b509392505050565b600061230a61230584612a21565b6129fc565b90508281526020810184848401111561232257600080fd5b61232d848285612e2b565b509392505050565b600081359050612344816131d9565b92915050565b600081519050612359816131d9565b92915050565b60008135905061236e816131f0565b92915050565b600081519050612383816131f0565b92915050565b600082601f83011261239a57600080fd5b81356123aa8482602086016122b9565b91505092915050565b600082601f8301126123c457600080fd5b81516123d48482602086016122f7565b91505092915050565b6000815190506123ec81613207565b92915050565b60006020828403121561240457600080fd5b600061241284828501612335565b91505092915050565b60006020828403121561242d57600080fd5b600061243b8482850161235f565b91505092915050565b600080600080600060a0868803121561245c57600080fd5b600061246a88828901612374565b955050602061247b888289016123dd565b945050604061248c888289016123dd565b935050606061249d888289016123dd565b92505060806124ae8882890161234a565b9150509295509295909350565b6000602082840312156124cd57600080fd5b600082013567ffffffffffffffff8111156124e757600080fd5b6124f384828501612389565b91505092915050565b60006020828403121561250e57600080fd5b600082015167ffffffffffffffff81111561252857600080fd5b612534848285016123b3565b91505092915050565b61254681612d75565b82525050565b61255581612d87565b82525050565b61256481612d93565b82525050565b61257b61257682612d93565b612ed8565b82525050565b600061258c82612a52565b6125968185612a5d565b93506125a6818560208601612e2b565b6125af81612fdb565b840191505092915050565b60006125c582612a52565b6125cf8185612a6e565b93506125df818560208601612e2b565b80840191505092915050565b6125f481612dd4565b82525050565b61260381612df8565b82525050565b6000612616602a83612a79565b915061262182612ff9565b604082019050919050565b6000612639602383612a79565b915061264482613048565b604082019050919050565b600061265c602483612a79565b915061266782613097565b604082019050919050565b600061267f601483612a79565b915061268a826130e6565b602082019050919050565b60006126a2601583612a79565b91506126ad8261310f565b602082019050919050565b60006126c5601c83612a79565b91506126d082613138565b602082019050919050565b60006126e8601f83612a79565b91506126f382613161565b602082019050919050565b600061270b602583612a79565b91506127168261318a565b604082019050919050565b61272a81612dbd565b82525050565b61274161273c82612dbd565b612ee2565b82525050565b6000612753828561256a565b602082019150612763828461256a565b6020820191508190509392505050565b600061277f8286612730565b60208201915061278f82856125ba565b915061279b8284612730565b602082019150819050949350505050565b60006127b88287612730565b6020820191506127c88286612730565b6020820191506127d8828561256a565b6020820191506127e8828461256a565b60208201915081905095945050505050565b600060208201905061280f600083018461253d565b92915050565b600060408201905061282a600083018561253d565b818103602083015261283c8184612581565b90509392505050565b600060208201905061285a600083018461254c565b92915050565b6000602082019050612875600083018461255b565b92915050565b600060408201905081810360008301526128958185612581565b90506128a46020830184612721565b9392505050565b60006020820190506128c060008301846125eb565b92915050565b60006020820190506128db60008301846125fa565b92915050565b600060208201905081810360008301526128fa81612609565b9050919050565b6000602082019050818103600083015261291a8161262c565b9050919050565b6000602082019050818103600083015261293a8161264f565b9050919050565b6000602082019050818103600083015261295a81612672565b9050919050565b6000602082019050818103600083015261297a81612695565b9050919050565b6000602082019050818103600083015261299a816126b8565b9050919050565b600060208201905081810360008301526129ba816126db565b9050919050565b600060208201905081810360008301526129da816126fe565b9050919050565b60006020820190506129f66000830184612721565b92915050565b6000612a06612a17565b9050612a128282612e5e565b919050565b6000604051905090565b600067ffffffffffffffff821115612a3c57612a3b612fac565b5b612a4582612fdb565b9050602081019050919050565b600081519050919050565b600082825260208201905092915050565b600081905092915050565b600082825260208201905092915050565b6000612a9582612dbd565b9150612aa083612dbd565b9250827fffffffffffffffffffffffffffffffffffffffffffffffffffffffffffffffff03821115612ad557612ad4612f4e565b5b828201905092915050565b6000612aeb82612dbd565b9150612af683612dbd565b925082612b0657612b05612f7d565b5b828204905092915050565b6000612b1c82612dc7565b9150612b2783612dc7565b925082612b3757612b36612f7d565b5b828204905092915050565b6000808291508390505b6001851115612b8c57808604811115612b6857612b67612f4e565b5b6001851615612b775780820291505b8081029050612b8585612fec565b9450612b4c565b94509492505050565b6000612ba082612dbd565b9150612bab83612dbd565b9250612bd87fffffffffffffffffffffffffffffffffffffffffffffffffffffffffffffffff8484612be0565b905092915050565b600082612bf05760019050612cac565b81612bfe5760009050612cac565b8160018114612c145760028114612c1e57612c4d565b6001915050612cac565b60ff841115612c3057612c2f612f4e565b5b8360020a915084821115612c4757612c46612f4e565b5b50612cac565b5060208310610133831016604e8410600b8410161715612c825782820a905083811115612c7d57612c7c612f4e565b5b612cac565b612c8f8484846001612b42565b92509050818404811115612ca657612ca5612f4e565b5b81810290505b9392505050565b6000612cbe82612dbd565b9150612cc983612dbd565b9250817fffffffffffffffffffffffffffffffffffffffffffffffffffffffffffffffff0483118215151615612d0257612d01612f4e565b5b828202905092915050565b6000612d1882612dbd565b9150612d2383612dbd565b925082821015612d3657612d35612f4e565b5b828203905092915050565b6000612d4c82612dc7565b9150612d5783612dc7565b925082821015612d6a57612d69612f4e565b5b828203905092915050565b6000612d8082612d9d565b9050919050565b60008115159050919050565b6000819050919050565b600073ffffffffffffffffffffffffffffffffffffffff82169050919050565b6000819050919050565b600060ff82169050919050565b6000612ddf82612de6565b9050919050565b6000612df182612d9d565b9050919050565b6000612e0382612e0a565b9050919050565b6000612e1582612d9d565b9050919050565b82818337600083830152505050565b60005b83811015612e49578082015181840152602081019050612e2e565b83811115612e58576000848401525b50505050565b612e6782612fdb565b810181811067ffffffffffffffff82111715612e8657612e85612fac565b5b80604052505050565b6000612e9a82612dbd565b91507fffffffffffffffffffffffffffffffffffffffffffffffffffffffffffffffff821415612ecd57612ecc612f4e565b5b600182019050919050565b6000819050919050565b6000819050919050565b6000612ef782612dbd565b9150612f0283612dbd565b925082612f1257612f11612f7d565b5b828206905092915050565b6000612f2882612dc7565b9150612f3383612dc7565b925082612f4357612f42612f7d565b5b828206905092915050565b7f4e487b7100000000000000000000000000000000000000000000000000000000600052601160045260246000fd5b7f4e487b7100000000000000000000000000000000000000000000000000000000600052601260045260246000fd5b7f4e487b7100000000000000000000000000000000000000000000000000000000600052604160045260246000fd5b6000601f19601f8301169050919050565b60008160011c9050919050565b7f467842617365526f6f7454756e6e656c3a204348494c445f54554e4e454c5f4160008201527f4c52454144595f53455400000000000000000000000000000000000000000000602082015250565b7f4678526f6f7454756e6e656c3a20494e56414c49445f524543454950545f505260008201527f4f4f460000000000000000000000000000000000000000000000000000000000602082015250565b7f4678526f6f7454756e6e656c3a20455849545f414c52454144595f50524f434560008201527f5353454400000000000000000000000000000000000000000000000000000000602082015250565b7f496e76616c69642070726f6f66206c656e677468000000000000000000000000600082015250565b7f4c65616620696e64657820697320746f6f206269670000000000000000000000600082015250565b7f4678526f6f7454756e6e656c3a20494e56414c49445f48454144455200000000600082015250565b7f4678526f6f7454756e6e656c3a20494e56414c49445f5349474e415455524500600082015250565b7f4678526f6f7454756e6e656c3a20494e56414c49445f46585f4348494c445f5460008201527f554e4e454c000000000000000000000000000000000000000000000000000000602082015250565b6131e281612d75565b81146131ed57600080fd5b50565b6131f981612d93565b811461320457600080fd5b50565b61321081612dbd565b811461321b57600080fd5b5056fea264697066735822122032ecc57ce81381f1c6b7ddd06efd07ed9262c205e51b69b590bb0b8eef06acc064736f6c63430008040033",
  "devdoc": {
    "kind": "dev",
    "methods": {
      "receiveMessage(bytes)": {
        "details": "This function verifies if the transaction actually happened on child chain",
        "params": {
          "inputData": "RLP encoded data of the reference tx containing following list of fields  0 - headerNumber - Checkpoint header block number containing the reference tx  1 - blockProof - Proof that the block header (in the child chain) is a leaf in the submitted merkle root  2 - blockNumber - Block number containing the reference tx on child chain  3 - blockTime - Reference tx block time  4 - txRoot - Transactions root of block  5 - receiptRoot - Receipts root of block  6 - receipt - Receipt of the reference transaction  7 - receiptProof - Merkle proof of the reference receipt  8 - branchMask - 32 bits denoting the path of receipt in merkle tree  9 - receiptLogIndex - Log Index to read from the receipt"
        }
      }
    },
    "version": 1
  },
  "userdoc": {
    "kind": "user",
    "methods": {
      "receiveMessage(bytes)": {
        "notice": "receive message from  L2 to L1, validated by proof"
      }
    },
    "version": 1
  },
  "storageLayout": {
    "storage": [
      {
        "astId": 2246,
        "contract": "contracts/l1/L1Tunnel.sol:L1Tunnel",
        "label": "fxRoot",
        "offset": 0,
        "slot": "0",
        "type": "t_contract(IFxStateSender)2196"
      },
      {
        "astId": 2249,
        "contract": "contracts/l1/L1Tunnel.sol:L1Tunnel",
        "label": "checkpointManager",
        "offset": 0,
        "slot": "1",
        "type": "t_contract(ICheckpointManager)2214"
      },
      {
        "astId": 2251,
        "contract": "contracts/l1/L1Tunnel.sol:L1Tunnel",
        "label": "fxChildTunnel",
        "offset": 0,
        "slot": "2",
        "type": "t_address"
      },
      {
        "astId": 2255,
        "contract": "contracts/l1/L1Tunnel.sol:L1Tunnel",
        "label": "processedExits",
        "offset": 0,
        "slot": "3",
        "type": "t_mapping(t_bytes32,t_bool)"
      },
      {
        "astId": 18,
        "contract": "contracts/l1/L1Tunnel.sol:L1Tunnel",
        "label": "_nonce",
        "offset": 0,
        "slot": "4",
        "type": "t_uint256"
      }
    ],
    "types": {
      "t_address": {
        "encoding": "inplace",
        "label": "address",
        "numberOfBytes": "20"
      },
      "t_bool": {
        "encoding": "inplace",
        "label": "bool",
        "numberOfBytes": "1"
      },
      "t_bytes32": {
        "encoding": "inplace",
        "label": "bytes32",
        "numberOfBytes": "32"
      },
      "t_contract(ICheckpointManager)2214": {
        "encoding": "inplace",
        "label": "contract ICheckpointManager",
        "numberOfBytes": "20"
      },
      "t_contract(IFxStateSender)2196": {
        "encoding": "inplace",
        "label": "contract IFxStateSender",
        "numberOfBytes": "20"
      },
      "t_mapping(t_bytes32,t_bool)": {
        "encoding": "mapping",
        "key": "t_bytes32",
        "label": "mapping(bytes32 => bool)",
        "numberOfBytes": "32",
        "value": "t_bool"
      },
      "t_uint256": {
        "encoding": "inplace",
        "label": "uint256",
        "numberOfBytes": "32"
      }
    }
  }
}